:100000000C9472000C9494000C9494000C94940042
:100010000C9494000C9494000C9494000C94940010
:100020000C9494000C9494000C9494000C94940000
:100030000C9494000C9494000C9494000C943D0542
:100040000C9494000C9494000C9494000C949400E0
:100050000C9494000C9494000C9494000C949400D0
:100060000C9494000C94ED020C9494000C944003B6
:100070000C9494000C946F030C9494000C949400D2
:100080000C9494000C9494000C9494000C949400A0
:100090000C9494000C9494000C9494000C94940090
:1000A0000C9494000C9494000C9494000C94940080
:1000B0000C9494000C9494000C9494000C94940070
:1000C0000C9494000C9494000C9494000C94940060
:1000D0000C9494000C9494000C9494000C94940050
:1000E0000C94940011241FBECFEFD1E2DEBFCDBF30
:1000F00000E00CBF14E0A0E0B2E0E0E4F2E200E0D7
:100100000BBF02C007900D92A630B107D9F71BBEF6
:1001100016E0A6E0B4E001C01D92A73CB107E1F7EC
:100120000E944A0B0C941E110C9400008FEF8093D8
:100130000B0180930A01089510920B01109206049E
:1001400008958FEF80930B0180930604089521E0BA
:1001500030E002C0220F331F8A95E2F78091060437
:1001600082238093060480930B01089521E030E000
:1001700002C0220F331F8A95E2F780910604822B7A
:100180008093060480930B01089580958093060464
:1001900080930B010895FC0180910704909108045D
:1001A000009739F4F0930804E09307041382128255
:1001B000089593838283F0930804E09307040895DD
:1001C000E0910704F0910804309731F4909308040B
:1001D0008093070408C0F90122813381211531057C
:1001E000D1F793838283FC01138212820895CF9307
:1001F000DF93FC012091070430910804211531059B
:1002000031F040815181D901C0E0D0E00FC090931E
:10021000080480930704138212821DC012968D91E8
:100220009C911397ED01009739F0DC018D919C9121
:1002300011978417950794F3209739F43383228319
:10024000F0930804E093070406C08A819B8193839E
:100250008283FB83EA83DF91CF9108950E946C0C27
:1002600008950F931F93CF93DF938AE090E00E944D
:10027000D30DC0910704D091080403E012E013C02D
:1002800000D00F92EDB7FEB7128301838881998168
:10029000948383830E94C10D0A80DB81C02D0F905F
:1002A0000F900F900F90209759F78AE090E00E94EE
:1002B000D30DDF91CF911F910F91089509C0FC01DB
:1002C0002281338130930804209307040E946C0C30
:1002D0008091070490910804009789F7089584E0BD
:1002E00090E00E94D60B0895CF93DF93FC0162E06B
:1002F00070E00E94780BEB0122E030E008C0CF01F3
:10030000B9010E94780B009741F02F5F3F4FC21751
:10031000D307ACF781E090E002C080E090E0DF918D
:10032000CF910895CF92DF92EF92FF920F931F9398
:10033000CF93DF93009721F00E94050D7C0104C04C
:1003400090EDE92E97E0F92E00E010E0C2E0D0E059
:100350008AE0C82E82E0D82E16C0CE010E94740119
:10036000009781F00F5F1F4F00D00F92EDB7FEB7DF
:10037000D282C182D483C3830E94C10D0F900F909B
:100380000F900F902196EC16FD063CF700D00F92CF
:1003900084E292E0EDB7FEB79283818314830383F6
:1003A0000E94C10D0F900F900F900F90DF91CF9191
:1003B0001F910F91FF90EF90DF90CF900895EF92F3
:1003C000FF921F93CF93DF93CDB7DEB728970FB679
:1003D000F894DEBF0FBECDBF009719F0FC0110816D
:1003E00001C011E62EE2E22E22E0F22E0F920F92D1
:1003F000EDB7FEB7F282E1820E94C10D0F900F901F
:100400004091C1065091C206CE01019668E070E0AD
:100410000E94670D0097A1F00E946F012981FC01E5
:1004200020831182183619F0143739F403C00E9462
:10043000CB00DCCF0E94E000D9CF0E94F700D6CFDE
:100440000E9431010E945E0128960FB6F894DEBF2B
:100450000FBECDBFDF91CF911F91FF90EF90089518
:10046000CF92DF92EF92FF920F931F93CF93DF9380
:10047000009741F0FC012081222321F00E94050D0C
:100480008C0102C000ED17E0C2E0D0E0EE24FF24B2
:1004900031E3C32E32E0D32E17C0CE010E94740187
:1004A000009789F00894E11CF11C00D00F92EDB781
:1004B000FEB7D282C182D483C3830E94C10D0F9044
:1004C0000F900F900F9021960C171D0734F700D056
:1004D0000F9284E292E0EDB7FEB792838183F482BB
:1004E000E3820E94C10D0F900F900F900F90DF914B
:1004F000CF911F910F91FF90EF90DF90CF900895D3
:10050000F8940E94A50578948823D1F3843011F0E3
:1005100090E008958FEF9FEF0895CF93C82F8A3012
:1005200019F48DE00E948D02F894809110048823C4
:1005300059F4C093C60081E0809310040AC07894F7
:1005400086EF8A95F1F7F8948C2F0E94C2050097E8
:10055000B1F3789481E090E0CF9108958DE492E03A
:100560009093C2068093C1068BE592E09093C406F7
:100570008093C306109210040E9472051092C50069
:1005800087E08093C400E0ECF0E0808182608083AB
:10059000E1ECF0E0808188608083808180648083EA
:1005A0008081806180838081806880830895CF937B
:1005B000C82F8A3019F48DE00E94D7028091100470
:1005C000882331F4C093C60081E08093100403C0F7
:1005D0008C2F0E94C205CF9108951F920F920FB6E3
:1005E0000F920BB60F9211241F932F933F934F93AB
:1005F0005F936F937F938F939F93AF93BF93EF938B
:10060000FF93CF93DF93CDB7DEB72A97DEBFCDBF81
:100610001091C600143031F01D3009F41AE0812F1A
:100620000E94D702812F0E948305143011F01A30E6
:1006300071F48FE097E09A838983CE01039669E491
:1006400072E00E94310DCE0101960E949D062A960D
:10065000DEBFCDBFDF91CF91FF91EF91BF91AF9101
:100660009F918F917F916F915F914F913F912F91CA
:100670001F910F900BBE0F900FBE0F901F901895FB
:100680001F920F920FB60F920BB60F9211242F9359
:100690003F934F935F936F937F938F939F93AF930A
:1006A000BF93EF93FF930E94E405882319F41092FF
:1006B000100402C08093C600FF91EF91BF91AF91EB
:1006C0009F918F917F916F915F914F913F912F916A
:1006D0000F900BBE0F900FBE0F901F9018951F929A
:1006E0000F920FB60F920BB60F9211242F933F93D8
:1006F0004F935F936F937F938F939F93AF93BF932A
:10070000EF93FF93CF93DF93CDB7DEB72A97DEBF8A
:10071000CDBF8091780090917900EAE7F0E02081E8
:100720002F7720832CE536E03A83298300D000D050
:10073000EDB7FEB731969E012D5F3F4FADB7BEB707
:1007400012963C932E9311972AE432E0338322834E
:100750009370958384830E94080E8DB79EB706968A
:100760000FB6F8949EBF0FBE8DBFCE0101960E94BA
:100770009D062A96DEBFCDBFDF91CF91FF91EF910D
:10078000BF91AF919F918F917F916F915F914F91A9
:100790003F912F910F900BBE0F900FBE0F901F90A7
:1007A00018958EE090E00E94D60B0895EF92FF928C
:1007B0000F931F93CF93DF93F82EE92E8B010E94A6
:1007C000D103EC01DC011296EF2DFE2D8AE00190A1
:1007D0000D928150E1F719830883E0910904F091AB
:1007E0000A04309729F4D0930A04C09309042FC057
:1007F00040E050E020E030E001C0FD0180819181C7
:10080000280F391F2017310734F4A485B585AF01AF
:10081000109799F701C0DF014115510579F48D91C9
:100820009C911197801B910B11969C938E93BD8781
:10083000AC87D0930A04C093090424C0109751F4E4
:10084000021B130B19830883FA01D587C4871D8601
:100850001C8618C08D919C911197B901681B790B6A
:100860009801261B370B398328838D919C91119712
:10087000821B930B11969C938E93FA01D587C487A4
:10088000BD87AC87DF91CF911F910F91FF90EF90C3
:100890000895EF92FF920F931F93CF93DF938AE017
:1008A00090E00E94D30DC0910904D0910A0400E0A9
:1008B00010E089E6E82E82E0F82E20C08881998138
:1008C000080F191F00D000D0EDB7FEB73196ADB7B5
:1008D000BEB71296FC92EE92119793838283158392
:1008E00004830E94C10D0C84DD85C02D8DB79EB799
:1008F00006960FB6F8949EBF0FBE8DBF2097F1F6F7
:100900008AE090E00E94D30DDF91CF911F910F916B
:10091000FF90EF9008958091090490910A04009748
:1009200049F0FC012485358530930A04209309049D
:100930000E946C0C0895CF93DF930DC08C859D852C
:1009400090930A0480930904CE0102960E949D06AA
:10095000CE010E948B04C0910904D0910A04209713
:1009600021F088819981009749F3DF91CF91089513
:100970000F931F93CF93DF93CDB7DEB762970FB678
:10098000F894DEBF0FBECDBF04E712E00F920F92C6
:10099000EDB7FEB7128301830E94C10D0F900F9037
:1009A0004091C1065091C206CE01019668E070E008
:1009B0000E94670D009761F0CE0101960E94050D1F
:1009C000BC01009729F0CE0109960E94D603DECF24
:1009D0000E9449040E948B0462960FB6F894DEBF11
:1009E0000FBECDBFDF91CF911F910F910895CF938F
:1009F000DF9380910E0490910F04E0910E04F0912A
:100A00000F0400D000D0CDB7DEB7219628E732E042
:100A1000ADB7BEB712963C932E9311972CE330E0FE
:100A2000B9010E94780B7B836A83CF01B9010E94D0
:100A3000780B9D838C830E94C10D8DB79EB706965F
:100A40000FB6F8949EBF0FBE8DBFDF91CF91089572
:100A50001092B200E6EBF0E0808180628083E0E7F4
:100A6000F0E0808181608083E1EBF0E08081816053
:100A7000808380818260808308951F920F920FB6D9
:100A80000F920BB60F9211242F933F934F935F93C6
:100A90006F937F938F939F93AF93BF93EF93FF9346
:100AA000E0910904F0910A04309749F08081918126
:100AB000019791838083009711F40E949B04FF911A
:100AC000EF91BF91AF919F918F917F916F915F91C6
:100AD0004F913F912F910F900BBE0F900FBE0F9033
:100AE0001F90189510921605109215051092140576
:100AF0001092130510921805109217051092120407
:100B0000109211040895482F20911705309118056F
:100B10002F5F3F4FC90160E071E00E94780B9C019C
:100B200080911104909112042817390759F03093DD
:100B3000180520931705275E3A4FF901408381E09D
:100B400090E0089580E090E00895809111049091E4
:100B5000120420911705309118052817390779F0EC
:100B6000019660E071E00E94780B909312048093EC
:100B70001104875E9A4FFC01808190E0089580E027
:100B800090E00895482F20911505309116052F5FAC
:100B90003F4FC90160E071E00E94780B9C01809199
:100BA0001305909114052817390759F0309316054D
:100BB000209315052D5E3B4FF901408381E090E0C5
:100BC000089580E090E008958091130590911405B8
:100BD00020911505309116052817390779F00196EF
:100BE00060E071E00E94780B9093140580931305E8
:100BF0008D5E9B4FFC01808190E0089580E090E045
:100C000008950F931F93CF93DF93CDB7DEB72A9745
:100C10000FB6F894DEBF0FBECDBF009741F0DC01E8
:100C20002C91222321F00E94050D8C0102C000E0CE
:100C300014E180910B04882331F40E949C0081E030
:100C400080930B0404C00E94A10010920B0481E069
:100C500096E09A83898300D000D0EDB7FEB7319635
:100C6000CE010396ADB7BEB712969C938E931197A3
:100C700081E892E093838283158304830E94080EA7
:100C8000EDB7FEB736960FB6F894FEBF0FBEEDBFB8
:100C9000C80160E071E00E94780BCE0101960E94CD
:100CA000D6032A960FB6F894DEBF0FBECDBFDF91F4
:100CB000CF911F910F910895FC012081222319F4F7
:100CC0000E94DE0708950E94050D9C01B901882746
:100CD00077FD8095982F0E94EF082DEC3CEC4CE8B6
:100CE0005AE30E94EE0720E030E04AE754E40E9415
:100CF000EE070E946609DC01CB01845F914000D0C1
:100D00000F9224E832E0EDB7FEB7328321836AE028
:100D100070E00E94780B748363830E94C10D0F9072
:100D20000F900F900F90089510921A0610921906C6
:100D30001092BC061092BB060895CF93DF93482F04
:100D4000E92F8091190690911A06C091BB06D091A7
:100D5000BC06019620E130E0B9010E94780B8C17A7
:100D60009D0719F18091190690911A060196B90113
:100D70000E94780B90931A068093190680911906A9
:100D800090911A06DC01AA0FBB1F63E0880F991F20
:100D90006A95E1F7A80FB91FA55EB94FC42FDE2FE2
:100DA0008AE009900D928150E1F780E090E0DF91B8
:100DB000CF9108959C014091190650911A06809197
:100DC000BB069091BC064817590731F18091BB06CC
:100DD0009091BC06019660E170E00E94780B9093C0
:100DE000BC068093BB068091BB069091BC06FC01BB
:100DF000EE0FFF1FA3E0880F991FAA95E1F7E80FF8
:100E0000F91FD901E55EF94F8AE001900D928150FA
:100E1000E1F781E090E0089580E090E00895AF92DE
:100E2000BF92CF92DF92EF92FF920F931F93CF93D7
:100E3000DF93CDB7DEB7CA54D0400FB6F894DEBF0B
:100E40000FBECDBFCE010B960E949B0D009709F4FB
:100E500092C0CE010B966EEB72E00E94230D7C01D6
:100E600080E090E06EEB72E00E94230D8C0180E048
:100E700090E06EEB72E00E94230D5C0180E090E058
:100E80006EEB72E00E94230D6C01E114F10419F481
:100E900083EC92E06EC0C7016BEC72E00E94280DFB
:100EA000009739F4C8010E943002C8010E9401066F
:100EB00062C0C70161ED72E00E94280D009709F041
:100EC0004AC00115110519F487ED92E052C0C8011E
:100ED0000E94050D60E071E00E94780B062FE72E5E
:100EE000162FF72EC5016BEC72E00E94280D0097BB
:100EF000B9F480E392E09A838983C6010E940106D7
:100F0000CE010396C114D10411F0B60102C06FEDF9
:100F100072E00E94310DCE010196612F7F2D15C028
:100F2000C50160EE72E00E94280D009789F48CE5FF
:100F300096E09A838983CE0103966FED72E00E945A
:100F4000310DCE010196602F7E2D0E94D60313C075
:100F500088EE92E00EC0C70160EE72E00E94280D9C
:100F6000009729F48FED92E00E945C0604C080EFA8
:100F700092E00E94DA0D0F920F928BEB92E0EDB7A8
:100F8000FEB7928381830E94C10D0F900F90C65BC4
:100F9000DF4F0FB6F894DEBF0FBECDBFDF91CF910C
:100FA0001F910F91FF90EF90DF90CF90BF90AF9087
:100FB0000895809880E880937C000895EAE7F0E047
:100FC0008081806880838DED90E00197F1F78081CA
:100FD000886080838081806480830895A0E2B0E08F
:100FE000E4EFF7E00C94A10BDC01CB018D839E8331
:100FF000AF83B88729833A834B835C83CE01059600
:10100000BE01675E7F4F0E94E10ACE010196BE01DC
:101010006F5E7F4F0E94E10A998D923078F0898946
:101020008230C0F0943019F4823041F4CAC0843068
:1010300019F4923079F4C5C0923051F481E02A8DD0
:101040009A89291709F480E08A8FCE014996BBC09E
:10105000823051F481E02A8D9A89291709F480E0C1
:101060008A8BCE014196AFC04D8C5E8C6F8C78A080
:101070000D891E892F89388DE0E2F0E040E050E0D4
:10108000BA01882499245401CC24DD247601C201BC
:10109000817090700097D1F0C00ED11EE21EF31E39
:1010A000DB01CA01880D991DAA1DBB1D41E050E05E
:1010B00060E070E0C016D106E206F30618F040E0EA
:1010C00050E0BA01480F591F6A1F7B1F880C991CFA
:1010D000AA1CBB1C37FF08C081E090E0A0E0B0E094
:1010E000882A992AAA2ABB2A000F111F221F331F00
:1010F0007694679457944794319749F68B8D9C8DDD
:101100002B893C89820F931F02969C878B8781E0F5
:101110002A8D9A89291709F480E08A872B853C85D6
:1011200017C0CA0181709070009761F0F694E7943F
:10113000D794C79480E090E0A0E0B0E8C82AD92A0C
:10114000EA2AFB2A76956795579547952F5F3F4F7B
:1011500077FDE7CFC9010BC0440F551F661F771FEE
:10116000F7FC4160CC0CDD1CEE1CFF1C01974030ED
:10117000A0E05A07A0E06A07A0E47A0768F38B872B
:101180009C87DB01CA018F779070A070B0708034AB
:101190009105A105B10561F447FD0AC0C114D10450
:1011A000E104F10429F0405C5F4F6F4F7F4F4078BE
:1011B0004D875E876F87788B83E08987CE0109969C
:1011C00002C088EF92E00E940A0A462F572F682F2C
:1011D000792FCB01BA01A096E0E10C94BD0BCF9220
:1011E000DF92EF92FF92CF93DF93CDB7DEB72897D0
:1011F0000FB6F894DEBF0FBECDBF6B017C0183E05C
:101200008983D701C6018827B7FD83959927AA2727
:10121000BB27282F8A83C114D104E104F10419F4F7
:1012200082E0898335C08EE190E09C838B8322230A
:1012300089F080E0C81680E0D80680E0E80680E803
:10124000F80659F1F094E094D094C094C11CD11CDC
:10125000E11CF11CCD82DE82EF82F886C701B60167
:101260000E94B70901971816190694F4082E04C0B5
:10127000CC0CDD1CEE1CFF1C0A94D2F7CD82DE8262
:10128000EF82F8862EE130E0281B390B3C832B835C
:10129000CE0101960E940A0A04C060E070E080E07E
:1012A0009FEC382F292F862F972FA32FB22FBC0109
:1012B000CD0128960FB6F894DEBF0FBECDBFDF91EB
:1012C000CF91FF90EF90DF90CF900895ACE0B0E029
:1012D000ECE6F9E00C94AD0BDC01CB0189839A8339
:1012E000AB83BC83CE010196BE016B5F7F4F0E9432
:1012F000E10A8D81823069F1823058F1843039F011
:101300002F81388537FD25C02F31310544F08E817E
:10131000882319F100E010E020E030E822C08EE1DF
:1013200090E0821B930B09851A852B853C8504C0B0
:1013300036952795179507958A95D2F78E8188233C
:1013400081F030952095109501951F4F2F4F3F4FFD
:1013500008C000E010E0980104C00FEF1FEF2FEF6E
:101360003FE7B801C9012C96E4E00C94C90BCF9279
:10137000DF92EF92FF920F931F938B019C0100303D
:1013800080E0180781E0280780E0380750F40F3F1D
:1013900011052105310509F088F480E090E0DC01B9
:1013A00016C00030E0E01E07E0E02E07E1E03E0757
:1013B00050F480E190E0A0E0B0E009C088E090E067
:1013C000A0E0B0E004C088E190E0A0E0B0E040E23E
:1013D00050E060E070E0481B590B6A0B7B0B680122
:1013E000790104C0F694E794D794C7948A95D2F70C
:1013F000D701C60180509D4FFC018081481B5109D7
:1014000061097109CA011F910F91FF90EF90DF9060
:10141000CF900895CF92DF92EF92FF920F931F9398
:10142000DC0114964D915D916D917C911797119609
:10143000EC9111978C91823020F460618FEF90E0F5
:10144000A5C0843009F49DC0823009F494C04115D0
:1014500051056105710509F491C012968D919C9119
:1014600013972FEF823892070CF059C022E83FEF14
:10147000281B390B2A31310564F56A017B01022EE4
:1014800004C0F694E794D794C7940A94D2F781E005
:1014900090E0A0E0B0E004C0880F991FAA1FBB1F16
:1014A0002A95D2F70197A109B10984239523A62390
:1014B000B72341E050E060E070E00097A105B1057E
:1014C00019F440E050E0BA014C295D296E297F29CA
:1014D00003C040E050E0BA01DB01CA018F77907091
:1014E000A070B07080349105A105B10539F447FFB3
:1014F00009C0405C5F4F6F4F7F4F04C0415C5F4F3E
:101500006F4F7F4F81E090E0403020E0520720E0B5
:10151000620720E4720738F580E090E024C080384C
:1015200091057CF58A019B010F7710702070307057
:10153000003411052105310539F447FF09C0405C2D
:101540005F4F6F4F7F4F04C0415C5F4F6F4F7F4FC6
:1015500077FD03C081589F4F06C0769567955795D4
:10156000479580589F4F97E0769567955795479593
:101570009A95D1F70BC080E090E005C080E090E044
:1015800005C08FEF90E040E050E0BA01982F9795AA
:1015900099279795A62FAF77E795EE27E79586953C
:1015A0003A2F392B282F2E2B842F952FA32FB22F94
:1015B000BC01CD011F910F91FF90EF90DF90CF9074
:1015C0000895DC01FB014C9111965C9111971296E4
:1015D0008C911297682F6F7770E0982F991F992739
:1015E000991F13962C911397822F880F892B90E0C7
:1015F000221F2227221F2183009739F5411551050B
:101600006105710511F482E029C082E89FEF9383A0
:10161000828327E0440F551F661F771F2A95D1F755
:1016200083E0808309C0440F551F661F771F8281A6
:101630009381019793838283403080E0580780E054
:10164000680780E4780778F320C08F3F910579F42C
:10165000411551056105710519F484E080830895F1
:1016600064FF03C081E0808310C010820EC08F57DA
:1016700090409383828383E0808387E0440F551FEB
:10168000661F771F8A95D1F77064448355836683FC
:1016900077830895CF93DF93CDB7DEB72A970FB640
:1016A000F894DEBF0FBECDBF0E94AE020E9494062A
:1016B0000E9428050E94D9070E9496000F920F925F
:1016C00080E092E0EDB7FEB7928381830E94C10D66
:1016D0000F900F90F894CE0101960E94DA0678944C
:1016E0000097C1F3E981FA81CE0103961995F2CFF3
:1016F00097FB092E07260AD077FD04D00CD006D020
:1017000000201AF4709561957F4F0895F6F7909533
:1017100081959F4F0895AA1BBB1B51E107C0AA1FCB
:10172000BB1FA617B70710F0A61BB70B881F991F82
:101730005A95A9F780959095BC01CD0108952F92F7
:101740003F924F925F926F927F928F929F92AF9251
:10175000BF92CF92DF92EF92FF920F931F93CF939E
:10176000DF93CDB7DEB7CA1BDB0B0FB6F894DEBF35
:101770000FBECDBF19942A88398848885F846E844B
:101780007D848C849B84AA84B984C884DF80EE80A5
:10179000FD800C811B81AA81B981CE0FD11D0FB6AE
:1017A000F894DEBF0FBECDBFED010895CF93DF9358
:1017B000AC018230910510F442E050E0E091BF06A8
:1017C000F091C00620E030E0A0E0B0E024C08081CD
:1017D000918184179507D0F08417950771F4828161
:1017E0009381109729F013969C938E9312972CC097
:1017F0009093C0068093BF0627C02115310519F0CC
:101800008217930718F49C01BD01EF019281838137
:10181000DF01E92FF82F3097D1F621153105F9F0C6
:10182000C901841B950B8430910580F48A819B81CA
:101830006115710521F0FB019383828304C09093AD
:10184000C0068093BF06FE01329642C0FE01E80F3B
:10185000F91F4193519302979983888339C08091EE
:10186000BD069091BE06009741F4809102049091CC
:1018700003049093BE068093BD062091000430912E
:1018800001042115310541F42DB73EB780910404C0
:1018900090910504281B390BE091BD06F091BE061E
:1018A000E217F30798F42E1B3F0B2417350770F04F
:1018B000CA0102962817390748F08E0F9F1F909390
:1018C000BE068093BD064193519302C0E0E0F0E074
:1018D000CF01DF91CF9108950F931F93CF93DF93A3
:1018E0009C01009709F48CC0DC01129713961C929E
:1018F0001E9212976091BF067091C0066115710526
:1019000089F48D919C911197820F931F2091BD06B0
:101910003091BE062817390769F5B093BE06A0932B
:10192000BD066EC0FB0140E050E001C0FC01EA17BB
:10193000FB0730F482819381AF010097B9F71FC094
:10194000E9012297FB83EA8308811981C901800F8D
:10195000911F8E179F0759F480819181800F911FED
:10196000029699838883828193819B838A83411520
:10197000510529F4B093C006A093BF0641C0FA01F7
:10198000B383A283C191D191EC0FFD1FAE17BF07A6
:1019900081F4F901929182918C0F9D1F0296DA01D8
:1019A00011969C938E938281938113969C938E9330
:1019B0001297E0E0F0E002C0FB01BC01DB011296EF
:1019C0008D919C9113970097B9F7CB0102962D91B9
:1019D0003C911197820F931F2091BD063091BE0656
:1019E0002817390769F4309729F41092C00610922D
:1019F000BF0602C0138212827093BE066093BD06BA
:101A0000DF91CF911F910F910895FC0188279927AD
:101A1000E89421912032E9F3293010F02E30C8F3F8
:101A20002B3241F02D3239F4689404C00E945F0DCE
:101A3000820F911D219120532A30C0F31EF49095FE
:101A400081959F4F08954CE054E00E94380D089511
:101A5000FB01DC018D91019080190110D9F3990BE4
:101A60000895FB01DC0101900D920020E1F708953B
:101A7000FA01A191B081009719F41097E1F0CD011E
:101A8000DC01CD010D90002011F4C00113C0FB0159
:101A90002191222319F02015D9F7F3CFFB012191D1
:101AA000201519F41E92119606C02223C1F70D903D
:101AB0000020A1F7D001FA01A193B08308957AE044
:101AC000979F902D879F802D910D11240895CF927F
:101AD000DF92EF92FF920F931F93CF93DF938C01CE
:101AE0006A01FA01838180FF1AC016161706BCF43A
:101AF0007B01E8010EC0C6010E945410FFEF8F3F2A
:101B00009F0769F089930894E108F1088A309105EC
:101B100021F021E0E216F10471F7188202C000E022
:101B200010E0C801DF91CF911F910F91FF90EF90CE
:101B3000DF90CF9008950F931F93CF93DF938C0185
:101B4000E091C106F091C206838180FF12C0E801D6
:101B50008091C1069091C2060E9454102FEF8F3FD2
:101B6000920739F089938A30910591F7219718826D
:101B700002C000E010E0C801DF91CF911F910F91EA
:101B80000895CF93DF93CDB7DEB7FE01369661910E
:101B900071918091C3069091C406AF010E94370EE7
:101BA000DF91CF9108956091C3067091C4060E94A1
:101BB000941008950F931F93CF93DF938C01E091BE
:101BC000C306F091C406838181FF1AC0C0E0D0E053
:101BD00005C01995009711F0CFEFDFEFF801819163
:101BE0008F016091C3067091C406DB011896ED91D8
:101BF000FC911997882369F78AE01995009711F0ED
:101C0000CFEFDFEFCE01DF91CF911F910F910895BC
:101C10000F931F93CF93DF93CDB7DEB72E970FB6F9
:101C2000F894DEBF0FBECDBF0E891F8986E08C837E
:101C30001A8309838FEF9FE79E838D83AE01465EF3
:101C40005F4FCE010196688D798D0E94370EEF812E
:101C5000F885E00FF11F10822E960FB6F894DEBFC4
:101C60000FBECDBFDF91CF911F910F9108952F929D
:101C70003F924F925F926F927F928F929F92AF921C
:101C8000BF92CF92DF92EF92FF920F931F93CF9369
:101C9000DF93CDB7DEB72D970FB6F894DEBF0FBE3A
:101CA000CDBF3C017D876C875A01FC0117821682EB
:101CB000838181FFC8C12E010894411C511CF3018E
:101CC0009381EC85FD8593FD859193FF8191FD873F
:101CD000EC87882309F4B3C1853241F493FD8591E3
:101CE00093FF8191FD87EC87853229F490E0B30161
:101CF0000E949410E4CFFF24EE2410E01032B0F4E0
:101D00008B3269F08C3228F4803251F0833271F4D6
:101D10000BC08D3239F0803349F411602CC0126051
:101D2000146029C0186027C0106125C017FD2EC09F
:101D3000282F20532A3098F416FF08C08F2D880FC3
:101D4000F82EFF0CFF0CF80EF20E15C08E2D880F2A
:101D5000E82EEE0CEE0CE80EE20E10620CC08E3295
:101D600021F416FD6CC1106406C08C3611F41068A5
:101D700002C0883659F4EC85FD8593FD859193FF6B
:101D80008191FD87EC87882309F0B8CF982F95546F
:101D9000933018F09052933038F424E030E0A20EE3
:101DA000B31E3FE339830FC0833631F0833781F0B0
:101DB000833509F05AC022C0F5018081898322E071
:101DC00030E0A20EB31E21E0C22ED12C420114C07D
:101DD00092E0292E312C2A0C3B1CF5018080918049
:101DE00016FF03C06F2D70E002C06FEF7FEFC401DC
:101DF0000E9449106C0151011F7715C082E0282E06
:101E0000312C2A0C3B1CF5018080918016FF03C009
:101E10006F2D70E002C06FEF7FEFC4010E943E1093
:101E20006C011068510113FD1CC006C080E290E0F7
:101E3000B3010E949410EA948E2D90E0C816D90642
:101E4000A8F30FC0F40117FD859117FF81914F0191
:101E500090E0B3010E949410E110EA940894C10844
:101E6000D108C114D10471F7E7C0843611F0893666
:101E700051F5F50117FF07C080819181A281B381DF
:101E800024E030E008C080819181AA2797FDA095C9
:101E9000BA2F22E030E0A20EB31E012F0F76B7FF5B
:101EA00008C0B095A095909581959F4FAF4FBF4FBB
:101EB0000068BC01CD01A2012AE030E00E94C01000
:101EC000D82ED4183FC0853721F41F7E2AE030E099
:101ED00020C0197F8F36A9F0803720F4883509F0AB
:101EE000AEC00BC0803721F0883709F0A8C001C010
:101EF000106114FF09C0146007C014FF08C0166009
:101F000006C028E030E005C020E130E002C020E15A
:101F100032E0F50117FF07C06081718182819381F2
:101F200044E050E006C06081718180E090E042E0D2
:101F300050E0A40EB51EA2010E94C010D82ED418E5
:101F4000012F0F7706FF09C00E7FDF1430F404FF66
:101F500006C002FD04C00F7E02C01D2D01C01F2D52
:101F6000802F90E004FF0CC0FE01ED0DF11D2081DB
:101F7000203311F4097E09C002FF06C01E5F05C0B0
:101F800086789070009709F01F5F802E992403FDDA
:101F900012C000FF0DC0FD2C1E1550F4FE0CF11AEE
:101FA0001E2D06C080E290E0B3010E9494101F5FD6
:101FB0001E15C0F304C01E1510F4E11A01C0EE2472
:101FC00084FE0FC080E390E0B3010E94941082FE73
:101FD0001FC081FE03C088E590E010C088E790E054
:101FE0000DC0C40186789070009791F081FC02C00A
:101FF00080E201C08BE207FD8DE290E0B3010E9418
:10200000941006C080E390E0B3010E949410FA940B
:10201000DF14C0F3DA94F201ED0DF11D808190E040
:10202000B3010E949410DD20A9F706C080E290E081
:10203000B3010E949410EA94EE20C1F740CEF30160
:102040008681978102C08FEF9FEF2D960FB6F8948F
:10205000DEBF0FBECDBFDF91CF911F910F91FF90DB
:10206000EF90DF90CF90BF90AF909F908F907F9038
:102070006F905F904F903F902F900895FC010590D6
:10208000615070400110D8F7809590958E0F9F1F7A
:102090000895FC016150704001900110D8F78095BF
:1020A00090958E0F9F1F0895CF93DF93EC012B81A6
:1020B00020FF35C026FF09C02F7B2B838E819F8197
:1020C00001969F838E838A8128C022FF0FC0E881FA
:1020D000F9818081992787FD9095009719F42062F6
:1020E0002B831DC03196F983E88311C0EA85FB85F7
:1020F000CE01199597FF0BC02B813FEF8F3F9307C0
:1021000011F480E101C080E2822B8B8308C02E8114
:102110003F812F5F3F4F3F832E8390E002C08FEFC0
:102120009FEFDF91CF9108950F931F93CF93DF938C
:102130008C01EB018B8181FF1BC082FF0DC02E81C2
:102140003F818C819D812817390764F4E881F981EA
:102150000193F983E88306C0E885F985802F1995F6
:10216000009731F48E819F8101969F838E8302C0F8
:102170000FEF1FEFC801DF91CF911F910F910895CD
:10218000FA01AA27283051F1203181F1E8946F93A8
:102190006E7F6E5F7F4F8F4F9F4FAF4FB1E03ED04E
:1021A000B4E03CD0670F781F891F9A1FA11D680FEC
:1021B000791F8A1F911DA11D6A0F711D811D911D1F
:1021C000A11D20D009F468943F912AE0269F112494
:1021D0003019305D3193DEF6CF010895462F4770F8
:1021E000405D4193B3E00FD0C9F7F6CF462F4F7053
:1021F000405D4A3318F0495D31FD4052419302D0B1
:10220000A9F7EACFB4E0A695979587957795679556
:10221000BA95C9F700976105710508959B01AC0156
:102220000A2E06945795479537952795BA95C9F77D
:10223000620F731F841F951FA01D0895F894FFCF90
:102240002420002D2D3E2563200025642069732065
:1022500061207072696D65206E756D6265722021F6
:1022600021210A00636F756E743D25640A003E20CB
:10227000002564206973207072696D65206E756D2C
:10228000626572202121210A0000256400000000FF
:1022900001000000000000800200000000000200B9
:1022A0000000008D02000000002D2D3E2564282531
:1022B000642920003E3E20002564203A2025640A3F
:1022C000002564007461736B5F746331303437616F
:1022D0002829203A2063757272656E742074656DCA
:1022E0007065726174757265202D3E2025642064CE
:1022F00065677265652E200A2420002420002009CD
:102300000A0D002121212D313131007072696D6576
:102310000074696D6572002121212D323232000076
:1023200074633130343761002121212D3333330080
:102330002121212D34343400000000000000000071
:10234000000102020303030304040404040404045C
:10235000050505050505050505050505050505052D
:10236000060606060606060606060606060606060D
:1023700006060606060606060606060606060606FD
:1023800007070707070707070707070707070707DD
:1023900007070707070707070707070707070707CD
:1023A00007070707070707070707070707070707BD
:1023B00007070707070707070707070707070707AD
:1023C000080808080808080808080808080808088D
:1023D000080808080808080808080808080808087D
:1023E000080808080808080808080808080808086D
:1023F000080808080808080808080808080808085D
:10240000080808080808080808080808080808084C
:10241000080808080808080808080808080808083C
:10242000080808080808080808080808080808082C
:10243000080808080808080808080808080808081C
:062440000000C7062000A9
:00000001FF
