:100000000C9472000C9494000C9494000C94940042
:100010000C9494000C9494000C9494000C94940010
:100020000C9494000C9494000C9494000C94940000
:100030000C9494000C9494000C9494000C949400F0
:100040000C9494000C9494000C9494000C949400E0
:100050000C9494000C9494000C9494000C949400D0
:100060000C9496000C9494000C9494000C949400BE
:100070000C9494000C9494000C9494000C949400B0
:100080000C9494000C9494000C9494000C949400A0
:100090000C9494000C9494000C9494000C94940090
:1000A0000C9494000C9494000C9494000C94940080
:1000B0000C9494000C9494000C9494000C94940070
:1000C0000C9494000C9494000C9494000C94940060
:1000D0000C9494000C9494000C9494000C94940050
:1000E0000C94940011241FBECFEFD1E2DEBFCDBF30
:1000F00000E00CBF15E0A0E0B2E0E4EBFDE100E0C1
:100100000BBF02C007900D92AE35B107D9F71BBEE9
:1001100015E0AEE5B5E001C01D92AB39B107E1F7DE
:100120000E94F4090C94D80E0C9400001F920F92B8
:100130000FB60F920BB60F9211242F933F934F934C
:100140005F936F937F938F939F93AF93BF93EF933F
:10015000FF932EB500D000D0EDB7FEB7319680E604
:1001600095E0ADB7BEB712969C938E93119780E041
:1001700092E093838283248315820E94BE0B81E0E8
:1001800090E090935F0580935E058DB79EB70696CD
:100190000FB6F8949EBF0FBE8DBFFF91EF91BF9138
:1001A000AF919F918F917F916F915F914F913F910F
:1001B0002F910F900BBE0F900FBE0F901F901895B0
:1001C000209A219A229A23988CB581608CBD80ED6B
:1001D0008CBD089528980895289A0895CF93DF93A9
:1001E000FC012081222331F481E0809370050E947C
:1001F000EA0017C020917005213021F0223009F06B
:1002000051C012C060E070E040E150E00E94390A45
:10021000762F6627709372056093710582E0809354
:1002200070058FEF8EBD42C0C0917105D0917205EF
:1002300060E070E040E150E00E94390AC62BD72B05
:1002400083E0D695C7958A95E1F7BE0180E090E0FE
:100250000E94870720E030E040E85DE30E9404064A
:100260000E941704DC01CB01909372058093710505
:100270008FEF8EBD8EBD0E94EC0000D00F9285E006
:1002800092E0EDB7FEB792838183809171059091E2
:100290007205948383830E947E0B0F900F900F90C2
:1002A0000F9004C085E392E00E94900BDF91CF9104
:1002B00008950E94E000C0E0D0E02AE7C22E22E0CC
:1002C000D22E30EFF32E00E615E044E6A42E42E0F5
:1002D000B42E5FE6852E52E0952E6FE0E62E52C0DA
:1002E00080915E0590915F050097D1F310925F05B4
:1002F00010925E0500D00F92ADB7BEB71296BC92B9
:10030000AE92119714961C930E9313970E947E0B36
:100310000F900F900F900F9080E695E00E94EE00F6
:1003200080915E0590915F050097D1F310925F0573
:1003300010925E0500D00F92EDB7FEB792828182D7
:10034000148303830E947E0B0F900F900F900F90E9
:1003500080E695E00E94EE008FE39DE8A9E18150E0
:100360009040A040E1F700C00000E0920B018FE355
:100370009DE8A9E181509040A040E1F700C0000055
:1003800010926005219600D00F92ADB7BEB71296BD
:10039000DC92CE9211971496DC93CE9313970E9421
:1003A0007E0BF0920B010F900F900F900F9080E654
:1003B00095E00E94EE0094CF8EBD0895CF93C82F94
:1003C0008091C00085FFFCCFCA3039F4609195055B
:1003D000709196058DE00E94DE01C093C60081E019
:1003E00090E0CF91089587E892E0909396058093EE
:1003F00095051092C50087E08093C400E0ECF0E022
:10040000808182608083E1ECF0E08081886080837D
:100410000895519A599A509A589AA1E0B1E08C9156
:1004200082608C93E2E0F1E080818D7F80838C910B
:1004300088608C938081877F80838C9180628C938D
:1004400080818F7D808308955898599A000000001C
:10045000589A00000000599883E08A95F1F70895B2
:100460005898599800000000589A00000000599AC6
:1004700083E08A95F1F70895519A28E030E090E8FA
:10048000589800000000492F482311F0599A01C0E4
:10049000599843E04A95F1F7589A43E04A95F1F7A5
:1004A00096952150304061F75198589883E08A958D
:1004B000F1F7589A43E04A95F1F789B182700895AF
:1004C000282F519898E080E0589833E03A95F1F75A
:1004D000589A33E03A95F1F7880F49998160915025
:1004E00099F7519A589800000000222311F0599A68
:1004F00001C0599893E09A95F1F7589A33E03A95EC
:10050000F1F708951F93CF93DF930F92CDB7DEB726
:100510000E94240280E90E943C02882329F00E9464
:10052000300285E992E015C080E00E943C028823F9
:1005300029F00E94300286EB92E00BC00E94240258
:1005400081E90E943C02882339F00E94300289ED43
:1005500092E00E94900B2FC080E00E946002182F52
:1005600081E00E94600289830E94300289814DB738
:100570005EB7485050400FB6F8945EBF0FBE4DBFF7
:10058000EDB7FEB7319644EF52E0ADB7BEB7129665
:100590005C934E9311971283138284831582168382
:1005A00017820E947E0BEDB7FEB738960FB6F8940F
:1005B000FEBF0FBEEDBF0F90DF91CF911F91089549
:1005C0000E940902C0E0D0E001E313E080EFE82ED2
:1005D0009FE0F92E219600D00F92ADB7BEB71296CC
:1005E0001C930E9311971496DC93CE9313970E944D
:1005F0007E0BE0920B010F900F900F900F9083E70E
:1006000095E00E9482028FE39DE8A9E1815090402D
:10061000A040E1F700C00000F0920B018FE39DE8DD
:10062000A9E181509040A040E1F700C00000D2CF86
:100630005098589A5198599A1092B90084E1809331
:10064000B800A1E0B1E08C9182608C93E2E0F1E02F
:1006500080818D7F80838C9188608C938081877F5F
:1006600080838C9180628C9380818F7D80830895BC
:1006700084EA8093BC008091BC0087FFFCCF80910E
:10068000B900887F08958093BB0084E88093BC0004
:100690008091BC0087FFFCCF8091B900887F0895CE
:1006A0006295660F660F607C64686093BC00209161
:1006B000BC0027FFFCCF2091BB00FC012083809170
:1006C000B900887F0895CF93DF930F920F92CDB733
:1006D000DEB70E943803883031F084E98093BC0093
:1006E0008EE393E044C080E90E944303883131F0F7
:1006F00084E98093BC0087E593E039C080E00E94E4
:100700004303883231F084E98093BC0088E793E0AA
:100710002EC00E943803803131F084E98093BC0000
:100720008BE993E024C081E90E944303803431F0D7
:1007300084E98093BC0080EB93E019C0CE0102965F
:1007400061E00E945003803531F084E98093BC0061
:1007500081ED93E00CC0CE01019660E00E94500351
:10076000883541F084E98093BC0083EF93E00E94D8
:10077000900B1CC084E98093BC0000D00F9287E1ED
:1007800094E0EDB7FEB7928381833A8120E08981BE
:1007900090E0822B932B892F990F990B948383835D
:1007A0000E947E0B0F900F900F900F900F900F9064
:1007B000DF91CF9108950E941803C0E0D0E009E4D2
:1007C00014E050EFE52E6FE0F62E219600D00F9248
:1007D000ADB7BEB712961C930E9311971496DC9387
:1007E000CE9313970E947E0BE0920B010F900F9017
:1007F0000F900F9083E895E00E9463038FE39DE8DC
:10080000A9E181509040A040E1F700C00000F092C3
:100810000B018FE39DE8A9E181509040A040E1F7F2
:1008200000C00000D2CF84E98093BC000895CF922D
:10083000DF92EF92FF920F931F936B017C0120E0F8
:1008400030E040E05FE40E94050787FD11C0C7016A
:10085000B60120E030E040E05FE40E94CC050E9459
:1008600036078B019C01005010402040304806C0E4
:10087000C701B6010E9436078B019C01B801C9016E
:100880001F910F91FF90EF90DF90CF900895A0E01F
:10089000B0E0EDE4F4E00C94040AEC014B01FA0141
:1008A0008881823008F43EC1DB019C91923008F4CB
:1008B00036C1843059F4943009F034C199811196CD
:1008C0008C911197981709F027C12CC1943009F425
:1008D00026C19230A9F4823009F024C1CE0128E06B
:1008E000DC010D90CD01DA010D92AD012150C1F76F
:1008F000D40111968C91119799818923818311C11B
:10090000823009F40CC1AA80BB80DB0112964D91A4
:100910005C911397CC80DD80EE80FF8014960D9162
:100920001D912D913C911797C501841B950BDC01FE
:1009300097FF04C0AA27BB27A81BB90BA032B1059B
:100940000CF067C01816190684F5280139010A2E23
:1009500004C076946794579447940A94D2F741E080
:1009600050E060E070E004C0440F551F661F771F21
:10097000AA95D2F741505040604070404023512327
:100980006223732381E090E0A0E0B0E041155105BF
:100990006105710519F480E090E0DC018C019D0196
:1009A00004291529262937293FC00097E9F1AA0E05
:1009B000BB1E260137010A2E04C076946794579413
:1009C00047940A94D2F741E050E060E070E004C040
:1009D000440F551F661F771FAA95D2F7415050400C
:1009E000604070404C215D216E217F2181E090E0CC
:1009F000A0E0B0E0411551056105710519F480E0F2
:100A000090E0DC016C017D01C428D528E628F72898
:100A10000BC04A155B0524F400E010E0980104C007
:100A20005A01CC24DD2476018981D40111969C9150
:100A30001197891709F445C0882329F00C191D095D
:100A40002E093F0908C0D701C601801B910BA20BDC
:100A5000B30B8C019D0137FD04C01182B382A282C9
:100A60000BC081E08183B382A282309520951095DE
:100A700001951F4F2F4F3F4F0483158326833783E4
:100A80000DC0880F991FAA1FBB1F84839583A6835F
:100A9000B783828193810197938382838481958137
:100AA000A681B781AC01BD0141505040604070400B
:100AB0004F3F2FEF52072FEF62072FE3720708F324
:100AC0000BC08183B382A2820C0D1D1D2E1D3F1D04
:100AD000048315832683378383E080834481558193
:100AE0006681778177FF1DC0DB01CA01817090703C
:100AF000A070B0707695679557954795842B952B88
:100B0000A62BB72B84839583A683B7838281938199
:100B100001969383828305C0C6E5D4E003C0E40157
:100B200001C0EF01CE01CDB7DEB7E0E10C94200AA1
:100B3000A0E2B0E0EEE9F5E00C94120ADC01CB0192
:100B40008D839E83AF83B88729833A834B835C83ED
:100B5000CE010596BE01675E7F4F0E942E09CE0131
:100B60000196BE016F5E7F4F0E942E09CE0149960D
:100B7000BE016F5E7F4FAE01475F5F4F0E9447042B
:100B80000E945708462F572F682F792FCB01BA01A3
:100B9000A096E2E00C942E0AA0E2B0E0E2EDF5E0CF
:100BA0000C94120ADC01CB018D839E83AF83B8873E
:100BB00029833A834B835C83CE010596BE01675E31
:100BC0007F4F0E942E09CE010196BE016F5E7F4FBE
:100BD0000E942E098A8991E089278A8BCE01499645
:100BE000BE016F5E7F4FAE01475F5F4F0E944704BB
:100BF0000E945708462F572F682F792FCB01BA0133
:100C0000A096E2E00C942E0AA0E2B0E0EAE0F6E062
:100C10000C94040ADC01CB018D839E83AF83B887DB
:100C200029833A834B835C83CE010596BE01675EC0
:100C30007F4F0E942E09CE010196BE016F5E7F4F4D
:100C40000E942E09998D923078F089898230C0F007
:100C5000943019F4823041F4CAC0843019F49230CF
:100C600079F4C5C0923051F481E02A8D9A89291710
:100C700009F480E08A8FCE014996BBC0823051F4DE
:100C800081E02A8D9A89291709F480E08A8BCE01A8
:100C90004196AFC04D8C5E8C6F8C78A00D891E89FB
:100CA0002F89388DE0E2F0E040E050E0BA0188247E
:100CB00099245401CC24DD247601C2018170907006
:100CC0000097D1F0C00ED11EE21EF31EDB01CA0157
:100CD000880D991DAA1DBB1D41E050E060E070E049
:100CE000C016D106E206F30618F040E050E0BA0163
:100CF000480F591F6A1F7B1F880C991CAA1CBB1C1C
:100D000037FF08C081E090E0A0E0B0E0882A992A8F
:100D1000AA2ABB2A000F111F221F331F7694679443
:100D200057944794319749F68B8D9C8D2B893C893C
:100D3000820F931F02969C878B8781E02A8D9A8968
:100D4000291709F480E08A872B853C8517C0CA01E2
:100D500081709070009761F0F694E794D794C794EF
:100D600080E090E0A0E0B0E8C82AD92AEA2AFB2A6D
:100D700076956795579547952F5F3F4F77FDE7CF5E
:100D8000C9010BC0440F551F661F771FF7FC416058
:100D9000CC0CDD1CEE1CFF1C01974030A0E05A0774
:100DA000A0E06A07A0E47A0768F38B879C87DB01E1
:100DB000CA018F779070A070B07080349105A10542
:100DC000B10561F447FD0AC0C114D104E104F10486
:100DD00029F0405C5F4F6F4F7F4F40784D875E87B3
:100DE0006F87788B83E08987CE01099602C086E5FC
:100DF00094E00E945708462F572F682F792FCB0178
:100E0000BA01A096E0E10C94200AA8E1B0E0EBE082
:100E1000F7E00C94120ADC01CB018D839E83AF8333
:100E2000B88729833A834B835C83CE010596BE0144
:100E30006F5E7F4F0E942E09CE010196BE01675F53
:100E40007F4F0E942E098989823058F0898582302F
:100E500040F0CE014196BE01675F7F4F0E94970927
:100E600001C08FEF6896E2E00C942E0AACE0B0E08F
:100E7000ECE3F7E00C94100ADC01CB0189839A8340
:100E8000AB83BC83CE010196BE016B5F7F4F0E9496
:100E90002E098D81823069F1823058F1843039F029
:100EA0002F81388537FD25C02F31310544F08E81E3
:100EB000882319F100E010E020E030E822C08EE144
:100EC00090E0821B930B09851A852B853C8504C015
:100ED00036952795179507958A95D2F78E818823A1
:100EE00081F030952095109501951F4F2F4F3F4F62
:100EF00008C000E010E0980104C00FEF1FEF2FEFD3
:100F00003FE7B801C9012C96E4E00C942C0AA8E054
:100F1000B0E0EDE8F7E00C940C0A6B017C011A825A
:100F2000611571058105910519F482E089835EC020
:100F300083E089830EE110E01C830B83CD82DE8287
:100F4000EF82F886C701B6010E9404089C01215077
:100F5000304037FF38C0EE27FF27E21BF30B81E05C
:100F600090E0A0E0B0E00E2E04C0880F991FAA1FE9
:100F7000BB1F0A94D2F70197A109B1098C219D21C9
:100F8000AE21BF2141E050E060E070E00097A10594
:100F9000B10519F440E050E0BA0104C0F694E794BA
:100FA000D794C794EA95D2F7C42AD52AE62AF72A15
:100FB000CD82DE82EF82F8868EE190E0821B930B79
:100FC0009C838B8313C02115310581F0022E04C050
:100FD000CC0CDD1CEE1CFF1C0A94D2F7CD82DE8205
:100FE000EF82F886021B130B1C830B83CE01019644
:100FF0000E945708462F572F682F792FCB01BA012F
:101000002896E8E00C94280ACF92DF92EF92FF92A4
:101010000F931F938B019C01003080E0180781E043
:10102000280780E0380750F40F3F110521053105EE
:1010300009F088F480E090E0DC0116C00030E0E0C8
:101040001E07E0E02E07E1E03E0750F480E190E06B
:10105000A0E0B0E009C088E090E0A0E0B0E004C00B
:1010600088E190E0A0E0B0E040E250E060E070E0B5
:10107000481B590B6A0B7B0B6801790104C0F6947D
:10108000E794D794C7948A95D2F7D701C601825ABC
:101090009B4FFC018081481B510961097109CA01FC
:1010A0001F910F91FF90EF90DF90CF900895CF9216
:1010B000DF92EF92FF920F931F93DC0114964D91F4
:1010C0005D916D917C9117971196EC9111978C9190
:1010D000823020F460618FEF90E0A5C0843009F485
:1010E0009DC0823009F494C0411551056105710518
:1010F00009F491C012968D919C9113972FEF82382D
:1011000092070CF059C022E83FEF281B390B2A3117
:10111000310564F56A017B01022E04C0F694E79460
:10112000D794C7940A94D2F781E090E0A0E0B0E0B1
:1011300004C0880F991FAA1FBB1F2A95D2F70197D9
:10114000A109B10984239523A623B72341E050E0E8
:1011500060E070E00097A105B10519F440E050E0AF
:10116000BA014C295D296E297F2903C040E050E077
:10117000BA01DB01CA018F779070A070B070803423
:101180009105A105B10539F447FF09C0405C5F4FE7
:101190006F4F7F4F04C0415C5F4F6F4F7F4F81E0C7
:1011A00090E0403020E0520720E0620720E4720720
:1011B00038F580E090E024C0803891057CF58A0104
:1011C0009B010F77107020703070003411052105DD
:1011D000310539F447FF09C0405C5F4F6F4F7F4FC7
:1011E00004C0415C5F4F6F4F7F4F77FD03C0815854
:1011F0009F4F06C0769567955795479580589F4FA6
:1012000097E076956795579547959A95D1F70BC0D6
:1012100080E090E005C080E090E005C08FEF90E0B6
:1012200040E050E0BA01982F979599279795A62FFF
:10123000AF77E795EE27E79586953A2F392B282F3C
:101240002E2B842F952FA32FB22FBC01CD011F91E0
:101250000F91FF90EF90DF90CF900895DC01FB019C
:101260004C9111965C91119712968C911297682F60
:101270006F7770E0982F991F9927991F13962C91DB
:101280001397822F880F892B90E0221F2227221F7D
:101290002183009739F5411551056105710511F458
:1012A00082E029C082E89FEF9383828327E0440F86
:1012B000551F661F771F2A95D1F783E0808309C0E9
:1012C000440F551F661F771F828193810197938377
:1012D0008283403080E0580780E0680780E4780728
:1012E00078F320C08F3F910579F4411551056105D0
:1012F000710519F484E08083089564FF03C081E0E0
:10130000808310C010820EC08F57904093838283D9
:1013100083E0808387E0440F551F661F771F8A95FF
:10132000D1F7706444835583668377830895CF93A0
:10133000FC01DB019081923008F44CC08C9182302A
:1013400008F448C0943069F42181843039F411964E
:101350008C91119790E0821B910944C02223D1F116
:101360003FC0843021F0923041F48230B1F11196C7
:101370008C9111978823A1F12DC0C181823001F198
:1013800011968C911197C817D9F482819381129686
:101390002D913C9113972817390794F082179307E2
:1013A000BCF0448155816681778114968D919D9121
:1013B0000D90BC91A02D84179507A607B70718F4C8
:1013C000CC2341F00DC0481759076A077B0728F462
:1013D000CC2331F081E090E005C080E090E002C0D5
:1013E0008FEF9FEFCF9108950E94F3018FEF8093CD
:1013F0000A018FE080930B0178940E94E00280E064
:1014000090E008952F923F924F925F926F927F9259
:101410008F929F92AF92BF92CF92DF92EF92FF9204
:101420000F931F93CF93DF93CDB7DEB7CA1BDB0BB0
:101430000FB6F894DEBF0FBECDBF19942A88398845
:1014400048885F846E847D848C849B84AA84B9845C
:10145000C884DF80EE80FD800C811B81AA81B98168
:10146000CE0FD11D0FB6F894DEBF0FBECDBFED017C
:1014700008952F923F924F925F926F927F928F9238
:101480009F92BF92CF92DF92EF92FF920F931F93A2
:10149000CF93DF933B018A016115710519F0FB01C0
:1014A000808391830115110539F098012250304055
:1014B0002332310508F003C16C0176010894C11C88
:1014C000D11CF701C08146018C2F90E00E94760B61
:1014D000009799F7CD3249F4F701C181B2E08B2E24
:1014E000912C8E0C9F1CD1E00AC0CB3239F4F7014D
:1014F000C181A2E08A2E912C8E0C9F1CD0E0011598
:10150000110519F000311105C1F4C03381F4F40163
:101510008081883711F0883551F4F401C18182E06F
:1015200090E0880E991ED26000E110E006C001151F
:10153000110519F4C033C1F422C008301105F9F0C7
:101540000930110524F40230110509F507C00A30ED
:10155000110551F000311105D1F427C0C12CD12C57
:10156000E12C70E4F72E26C00AE010E06CECC62EE9
:101570006CECD62E6CECE62E6CE0F62E1BC008E070
:1015800010E0C12CD12CE12C50E1F52E13C09801B4
:10159000442737FD4095542F60E070E080E090E8EC
:1015A0000E94B60E69017A0105C0C12CD12CE12C34
:1015B00048E0F42E20E040E050E0BA011801442455
:1015C00037FC4094542C30EDB32EBC0E99E09B15A3
:1015D00070F48C2F81548A3118F499ECB92E06C01E
:1015E0008C2F81568A3150F589EAB82EBC0E8B2D8E
:1015F00090E08017910714F527FD1CC0C416D5068E
:10160000E606F706A0F0CB01BA01A20191010E9403
:10161000970EAB01BC014B0D511D611D711D413079
:10162000E0E05E07E0E06E07E0E87E0710F02FEFF5
:1016300001C021E0F401C1914F01C5CF61147104D3
:1016400089F0222339F0089481089108F3019182EE
:10165000808208C0D1FF1AC0C4010297F3019183B0
:10166000808314C027FF12C0D0FF05C040E050E0C7
:1016700060E070E804C04FEF5FEF6FEF7FE782E25A
:1016800090E090939A058093990516C0D0FF08C00A
:1016900070956095509541955F4F6F4F7F4F0CC08F
:1016A00077FF0AC082E290E090939A0580939905B3
:1016B0004FEF5FEF6FEF7FE78A019B0103C000E010
:1016C00010E09801B801C901DF91CF911F910F91EE
:1016D000FF90EF90DF90CF90BF909F908F907F9082
:1016E0006F905F904F903F902F90089591117CC222
:1016F000803219F089508550D0F70895CF93DF9349
:10170000CDB7DEB7FE013696619171918091950556
:1017100090919605AF010E94ED0BDF91CF91089556
:101720000F931F93CF93DF938C01E0919505F09178
:101730009605838181FF1AC0C0E0D0E005C01995ED
:10174000009711F0CFEFDFEFF80181918F016091E9
:10175000950570919605DB011896ED91FC9119970E
:10176000882369F78AE01995009711F0CFEFDFEF32
:10177000CE01DF91CF911F910F9108950F931F9389
:10178000CF93DF93CDB7DEB72E970FB6F894DEBFB9
:101790000FBECDBF0E891F8986E08C831A83098313
:1017A0008FEF9FE79E838D83AE01465E5F4FCE0134
:1017B0000196688D798D0E94ED0BEF81F885E00F21
:1017C000F11F10822E960FB6F894DEBF0FBECDBF6C
:1017D000DF91CF911F910F9108952F923F924F92D9
:1017E0005F926F927F928F929F92AF92BF92CF92B1
:1017F000DF92EF92FF920F931F93CF93DF93CDB7BA
:10180000DEB72D970FB6F894DEBF0FBECDBF3C01FB
:101810007D876C875A01FC0117821682838181FFC4
:10182000C8C12E010894411C511CF3019381EC8521
:10183000FD8593FD859193FF8191FD87EC8788233A
:1018400009F4B3C1853241F493FD859193FF8191F1
:10185000FD87EC87853229F490E0B3010E940D0EDC
:10186000E4CFFF24EE2410E01032B0F48B3269F0A4
:101870008C3228F4803251F0833271F40BC08D32F7
:1018800039F0803349F411602CC01260146029C013
:10189000186027C0106125C017FD2EC0282F2053C7
:1018A0002A3098F416FF08C08F2D880FF82EFF0CF1
:1018B000FF0CF80EF20E15C08E2D880FE82EEE0CE0
:1018C000EE0CE80EE20E10620CC08E3221F416FD12
:1018D0006CC1106406C08C3611F4106802C08836E2
:1018E00059F4EC85FD8593FD859193FF8191FD87EA
:1018F000EC87882309F0B8CF982F9554933018F0CF
:101900009052933038F424E030E0A20EB31E3FE34F
:1019100039830FC0833631F0833781F0833509F086
:101920005AC022C0F5018081898322E030E0A20EF6
:10193000B31E21E0C22ED12C420114C092E0292E08
:10194000312C2A0C3B1CF5018080918016FF03C0CE
:101950006F2D70E002C06FEF7FEFC4010E94020E96
:101960006C0151011F7715C082E0282E312C2A0C02
:101970003B1CF5018080918016FF03C06F2D70E045
:1019800002C06FEF7FEFC4010E94F70D6C01106879
:10199000510113FD1CC006C080E290E0B3010E941B
:1019A0000D0EEA948E2D90E0C816D906A8F30FC04C
:1019B000F40117FD859117FF81914F0190E0B3016C
:1019C0000E940D0EE110EA940894C108D108C114D8
:1019D000D10471F7E7C0843611F0893651F5F5016D
:1019E00017FF07C080819181A281B38124E030E09C
:1019F00008C080819181AA2797FDA095BA2F22E087
:101A000030E0A20EB31E012F0F76B7FF08C0B095CD
:101A1000A095909581959F4FAF4FBF4F0068BC0137
:101A2000CD01A2012AE030E00E94390ED82ED41850
:101A30003FC0853721F41F7E2AE030E020C0197FA7
:101A40008F36A9F0803720F4883509F0AEC00BC07E
:101A5000803721F0883709F0A8C001C0106114FF59
:101A600009C0146007C014FF08C0166006C028E053
:101A700030E005C020E130E002C020E132E0F501B5
:101A800017FF07C0608171818281938144E050E03B
:101A900006C06081718180E090E042E050E0A40ED9
:101AA000B51EA2010E94390ED82ED418012F0F772F
:101AB00006FF09C00E7FDF1430F404FF06C002FDEC
:101AC00004C00F7E02C01D2D01C01F2D802F90E08D
:101AD00004FF0CC0FE01ED0DF11D2081203311F437
:101AE000097E09C002FF06C01E5F05C0867890709F
:101AF000009709F01F5F802E992403FD12C000FF9C
:101B00000DC0FD2C1E1550F4FE0CF11A1E2D06C042
:101B100080E290E0B3010E940D0E1F5F1E15C0F31E
:101B200004C01E1510F4E11A01C0EE2484FE0FC09B
:101B300080E390E0B3010E940D0E82FE1FC081FE83
:101B400003C088E590E010C088E790E00DC0C401B4
:101B500086789070009791F081FC02C080E201C00D
:101B60008BE207FD8DE290E0B3010E940D0E06C0EE
:101B700080E390E0B3010E940D0EFA94DF14C0F3ED
:101B8000DA94F201ED0DF11D808190E0B3010E9425
:101B90000D0EDD20A9F706C080E290E0B3010E949F
:101BA0000D0EEA94EE20C1F740CEF30186819781B5
:101BB00002C08FEF9FEF2D960FB6F894DEBF0FBED9
:101BC000CDBFDF91CF911F910F91FF90EF90DF90EC
:101BD000CF90BF90AF909F908F907F906F905F90CD
:101BE0004F903F902F900895992788270895FC01E2
:101BF0000590615070400110D8F7809590958E0F38
:101C00009F1F0895FC016150704001900110D8F7AA
:101C1000809590958E0F9F1F08950F931F93CF93DC
:101C2000DF938C01EB018B8181FF1BC082FF0DC014
:101C30002E813F818C819D812817390764F4E881CA
:101C4000F9810193F983E88306C0E885F985802F3F
:101C50001995009731F48E819F8101969F838E8321
:101C600002C00FEF1FEFC801DF91CF911F910F91BD
:101C70000895FA01AA27283051F1203181F1E89422
:101C80006F936E7F6E5F7F4F8F4F9F4FAF4FB1E06F
:101C90003ED0B4E03CD0670F781F891F9A1FA11D6A
:101CA000680F791F8A1F911DA11D6A0F711D811D6B
:101CB000911DA11D20D009F468943F912AE0269F30
:101CC00011243019305D3193DEF6CF010895462F8F
:101CD0004770405D4193B3E00FD0C9F7F6CF462F70
:101CE0004F70405D4A3318F0495D31FD40524193D9
:101CF00002D0A9F7EACFB4E0A69597958795779596
:101D00006795BA95C9F700976105710508959B011C
:101D1000AC010A2E06945795479537952795BA95A5
:101D2000C9F7620F731F841F951FA01D0895629F3E
:101D3000D001739FF001829FE00DF11D649FE00DC3
:101D4000F11D929FF00D839FF00D749FF00D659F24
:101D5000F00D9927729FB00DE11DF91F639FB00D23
:101D6000E11DF91FBD01CF0111240895A1E21A2E32
:101D7000AA1BBB1BFD010DC0AA1FBB1FEE1FFF1F2F
:101D8000A217B307E407F50720F0A21BB30BE40B7F
:101D9000F50B661F771F881F991F1A9469F76095C6
:101DA0007095809590959B01AC01BD01CF01089580
:041DB000F894FFCFD5
:101DB400252E3278007461736B5F7463373728297A
:101DC400203A2063757272656E745F74656D706518
:101DD400726174757265203F2025642064656772A2
:101DE40065652E0A007461736B5F74633737282945
:101DF400203A20756E657870656365746420737429
:101E040061746520696E207461736B5F7463373726
:101E14002E2E2E0041726730203D2025730A00418A
:101E2400726731203D2025730A00446F696E672E66
:101E34002E25642E2E0A000000000200000000DEA1
:101E440001000000007461736B5F746337352829E7
:101E5400203A20534C412B572077726974652066D1
:101E640061696CA1A6007461736B5F746337352874
:101E740029203A20706F696E7465722077726974D4
:101E840065206661696CA1A6007461736B5F7463FD
:101E940037352829203A20534C412B52206661695A
:101EA4006CA1A6007461736B5F74633735282920B5
:101EB4003A205B252E32782C20252E32785D206343
:101EC400757272656E745F74656D70657261747538
:101ED4007265203F202564206465677265652E0A5B
:101EE40000446F696E672E2E25642E2E0A007461DD
:101EF400736B5F746337353A205374617274206571
:101F040072726F72A1A6007461736B5F746337356C
:101F14002829203A20534C412B5720777269746545
:101F2400206661696CA1A6007461736B5F7463378A
:101F3400352829203A20706F696E74657220777293
:101F4400697465206661696CA1A60052657065615B
:101F540074205374617274206572726F72A1A6004A
:101F64007461736B5F746337352829203A20534CAE
:101F7400412B52207772697465206661696CA1A651
:101F8400007461736B5F746337352829203A2072BB
:101F94006561642068695F62797465206661696C53
:101FA400A1A6007461736B5F7463373528295F31B0
:101FB400203A2072656164206C6F5F6279746520D9
:101FC4006661696CA1A6007461736B5F74633735D5
:101FD40028295F31203A2063757272656E745F74CC
:101FE400656D7065726174757265203F202564208B
:101FF4006465677265652E0A00446F696E672E2EEC
:1020040025642E2E0A0000000000000000000001DC
:102014000202030303030404040404040404050582
:10202400050505050505050505050505050506065A
:10203400060606060606060606060606060606063C
:10204400060606060606060606060606060607072A
:10205400070707070707070707070707070707070C
:1020640007070707070707070707070707070707FC
:1020740007070707070707070707070707070707EC
:1020840007070707070707070707070707070808DA
:1020940008080808080808080808080808080808BC
:1020A40008080808080808080808080808080808AC
:1020B400080808080808080808080808080808089C
:1020C400080808080808080808080808080808088C
:1020D400080808080808080808080808080808087C
:1020E400080808080808080808080808080808086C
:1020F400080808080808080808080808080808085C
:0E21040008080808080808080808080808085D
:00000001FF
