:100000000C9472000C9494000C9494000C94940042
:100010000C9494000C9494000C9494000C94940010
:100020000C9494000C9494000C9494000C94940000
:100030000C9494000C9494000C9494000C946A0515
:100040000C9494000C9494000C9494000C949400E0
:100050000C9494000C9494000C9494000C949400D0
:100060000C9494000C940F020C9494000C94620273
:100070000C9494000C9494000C9494000C949400B0
:100080000C9494000C9494000C9494000C949400A0
:100090000C9494000C9494000C9494000C94940090
:1000A0000C9494000C9494000C9494000C94940080
:1000B0000C9494000C9494000C9494000C94940070
:1000C0000C9494000C9494000C9494000C94940060
:1000D0000C9494000C9494000C9494000C94940050
:1000E0000C94940011241FBECFEFD1E2DEBFCDBF30
:1000F00000E00CBF12E0A0E0B2E0E4E6F9E100E0CD
:100100000BBF02C007900D92AC3BB107D9F71BBEE5
:1001100015E0ACEBB2E001C01D92AD37B107E1F7DD
:100120000E9415070C94B00C0C940000CF93DF9341
:10013000FC0162E070E00E944107EB0122E030E048
:1001400008C0CF01B9010E944107009741F02F5F1D
:100150003F4FC217D307ACF781E090E002C080E0C8
:1001600090E0DF91CF910895CF92DF92EF92FF92CE
:100170000F931F93CF93DF93009721F00E9497086E
:100180007C0104C090EDE92E97E0F92E00E010E02C
:10019000C2E0D0E083E0C82E82E0D82E16C0CE01A7
:1001A0000E949600009781F00F5F1F4F00D00F92C2
:1001B000EDB7FEB7D282C182D483C3830E945309B4
:1001C0000F900F900F900F902196EC16FD063CF7C4
:1001D00000D00F928DE192E0EDB7FEB7928381835C
:1001E000148303830E9453090F900F900F900F9078
:1001F000DF91CF911F910F91FF90EF90DF90CF9003
:100200000895EF92FF921F93CF93DF93CDB7DEB7A0
:1002100028970FB6F894DEBF0FBECDBF009719F038
:10022000FC01108101C011E627E2E22E22E0F22E4D
:100230000F920F92EDB7FEB7F282E1820E9453094E
:100240000F900F904091770550917805CE0101965F
:1002500068E070E00E94F9080097A1F00E94C403D2
:100260002981FC0120831182183619F0143739F4E2
:1002700003C00E942003DCCF0E943503D9CF0E9427
:100280004C03D6CF0E9486030E94B30328960FB674
:10029000F894DEBF0FBECDBFDF91CF911F91FF90CD
:1002A000EF900895CF92DF92EF92FF920F931F93FA
:1002B000CF93DF93009741F0FC012081222321F0AE
:1002C0000E9497088C0102C000ED17E0C2E0D0E068
:1002D000EE24FF243AE2C32E32E0D32E17C0CE0123
:1002E0000E949600009789F00894E11CF11C00D050
:1002F0000F92EDB7FEB7D282C182D483C3830E942E
:1003000053090F900F900F900F9021960C171D0717
:1003100034F700D00F928DE192E0EDB7FEB79283F3
:100320008183F482E3820E9453090F900F900F9013
:100330000F90DF91CF911F910F91FF90EF90DF9081
:10034000CF900895F8940E94C40278948823D1F342
:10035000843011F090E008958FEF9FEF0895CF93D0
:10036000C82F8A3019F48DE00E94AF01F894809173
:10037000C602882359F4C093C60081E08093C60268
:100380000AC0789486EF8A95F1F7F8948C2F0E9432
:10039000E1020097B1F3789481E090E0CF91089565
:1003A00083E492E0909378058093770581E592E06D
:1003B00090937A05809379051092C6020E9491026B
:1003C0001092C50087E08093C400E0ECF0E08081EB
:1003D00082608083E1ECF0E08081886080838081AE
:1003E0008064808380818061808380818068808355
:1003F0000895CF93C82F8A3019F48DE00E94F90137
:100400008091C602882331F4C093C60081E08093B6
:10041000C60203C08C2F0E94E102CF9108951F9263
:100420000F920FB60F920BB60F9211241F932F93BA
:100430003F934F935F936F937F938F939F93AF936C
:10044000BF93EF93FF93CF93DF93CDB7DEB72A9798
:10045000DEBFCDBF1091C600143031F01D3009F45D
:100460001AE0812F0E94F901812F0E94A20214300C
:1004700011F01A3071F485E796E09A838983CE01F2
:10048000039662E472E00E94C308CE0101960E94C6
:1004900003062A96DEBFCDBFDF91CF91FF91EF918A
:1004A000BF91AF919F918F917F916F915F914F918C
:1004B0003F912F911F910F900BBE0F900FBE0F9089
:1004C0001F9018951F920F920FB60F920BB60F92B6
:1004D00011242F933F934F935F936F937F938F9349
:1004E0009F93AF93BF93EF93FF930E9403038823DF
:1004F00019F41092C60202C08093C600FF91EF91DA
:10050000BF91AF919F918F917F916F915F914F912B
:100510003F912F910F900BBE0F900FBE0F901F9029
:1005200018951092CC031092CB031092CA0310922C
:10053000C9031092CE031092CD031092C8021092FC
:10054000C7020895482F2091CD033091CE032F5F2D
:100550003F4FC90160E071E00E9441079C0180911A
:10056000C7029091C8022817390759F03093CE037B
:100570002093CD0321533C4FF901408381E090E06B
:10058000089580E090E008958091C7029091C8029C
:100590002091CD033091CE032817390779F00196C9
:1005A00060E071E00E9441079093C8028093C70207
:1005B00081539C4FFC01808190E0089580E090E0A1
:1005C0000895482F2091CB033091CC032F5F3F4FEC
:1005D000C90160E071E00E9441079C018091C9035C
:1005E0009091CA032817390759F03093CC03209310
:1005F000CB0327533D4FF901408381E090E00895FC
:1006000080E090E008958091C9039091CA03209101
:10061000CB033091CC032817390779F0019660E0BD
:1006200071E00E9441079093CA038093C9038753E6
:100630009D4FFC01808190E0089580E090E0089556
:10064000FC018091BC029091BD02009739F4F093B7
:10065000BD02E093BC0213821282089593838283C9
:10066000F093BD02E093BC020895E091BC02F091CA
:10067000BD02309731F49093BD028093BC0208C054
:10068000F9012281338121153105D1F793838283CA
:10069000FC01138212820895CF93DF93FC01209115
:1006A000BC023091BD022115310531F040815181EC
:1006B000D901C0E0D0E00FC09093BD028093BC028E
:1006C000138212821DC012968D919C911397ED0199
:1006D000009739F0DC018D919C9111978417950753
:1006E00094F3209739F433832283F093BD02E0938F
:1006F000BC0206C08A819B8193838283FB83EA8349
:10070000DF91CF9108950E94FE0708950F931F93E4
:10071000CF93DF938AE090E00E946509C091BC020C
:10072000D091BD020FE512E013C000D00F92EDB7DB
:10073000FEB71283018388819981948383830E9409
:1007400053090A80DB81C02D0F900F900F900F90FE
:10075000209759F78AE090E00E946509DF91CF91D8
:100760001F910F91089509C0FC01228133813093BC
:10077000BD022093BC020E94FE078091BC029091B2
:10078000BD02009789F7089584E090E00E94680711
:1007900008958FEF80930B0180930A0108951092C2
:1007A0000B011092BE0208958FEF80930B0180938E
:1007B000BE02089521E030E002C0220F331F8A9567
:1007C000E2F78091BE0282238093BE0280930B01E8
:1007D000089521E030E002C0220F331F8A95E2F72E
:1007E0008091BE02822B8093BE0280930B010895FC
:1007F00080958093BE0280930B0108958EE090E077
:100800000E9468070895EF92FF920F931F93CF9372
:10081000DF93F82EE92E8B010E94FE03EC01DC0130
:100820001296EF2DFE2D8AE001900D928150E1F796
:1008300019830883E091BF02F091C002309729F438
:10084000D093C002C093BF022FC040E050E020E030
:1008500030E001C0FD0180819181280F391F2017F0
:10086000310734F4A485B585AF01109799F701C01D
:10087000DF014115510579F48D919C911197801BF1
:10088000910B11969C938E93BD87AC87D093C00239
:10089000C093BF0224C0109751F4021B130B19839D
:1008A0000883FA01D587C4871D861C8618C08D91E0
:1008B0009C911197B901681B790B9801261B370B86
:1008C000398328838D919C911197821B930B1196EC
:1008D0009C938E93FA01D587C487BD87AC87DF913F
:1008E000CF911F910F91FF90EF900895EF92FF929B
:1008F0000F931F93CF93DF938AE090E00E946509E6
:10090000C091BF02D091C00200E010E086E6E82E60
:1009100082E0F82E20C088819981080F191F00D02D
:1009200000D0EDB7FEB73196ADB7BEB71296FC92C8
:10093000EE92119793838283158304830E94530957
:100940000C84DD85C02D8DB79EB706960FB6F89442
:100950009EBF0FBE8DBF2097F1F68AE090E00E9407
:100960006509DF91CF911F910F91FF90EF9008954E
:100970008091BF029091C002009749F0FC0124854C
:1009800035853093C0022093BF020E94FE07089570
:10099000CF93DF930DC08C859D859093C00280938B
:1009A000BF02CE0102960E940306CE010E94B80447
:1009B000C091BF02D091C002209721F08881998117
:1009C000009749F3DF91CF9108950F931F93CF9331
:1009D000DF93CDB7DEB762970FB6F894DEBF0FBED8
:1009E000CDBF01E712E00F920F92EDB7FEB7128371
:1009F00001830E9453090F900F9040917705509109
:100A00007805CE01019668E070E00E94F908009731
:100A100061F0CE0101960E949708BC01009729F071
:100A2000CE0109960E940304DECF0E9476040E9444
:100A3000B80462960FB6F894DEBF0FBECDBFDF914B
:100A4000CF911F910F910895CF93DF938091C402AE
:100A50009091C502E091C402F091C50200D000D08F
:100A6000CDB7DEB7219625E732E0ADB7BEB7129617
:100A70003C932E9311972CE330E0B9010E9441077B
:100A80007B836A83CF01B9010E9441079D838C83D8
:100A90000E9453098DB79EB706960FB6F8949EBF75
:100AA0000FBE8DBFDF91CF9108951092B200E6EB9B
:100AB000F0E0808180628083E0E7F0E08081816007
:100AC0008083E1EBF0E080818160808380818260BF
:100AD000808308951F920F920FB60F920BB60F925C
:100AE00011242F933F934F935F936F937F938F9333
:100AF0009F93AF93BF93EF93FF93E091BF02F09169
:100B0000C002309749F08081918101979183808361
:100B1000009711F40E94C804FF91EF91BF91AF912B
:100B20009F918F917F916F915F914F913F912F9105
:100B30000F900BBE0F900FBE0F901F9018950F9344
:100B40001F93CF93DF93CDB7DEB72A970FB6F894F4
:100B5000DEBF0FBECDBF009741F0DC012C912223F8
:100B600021F00E9497088C0102C000E014E18091FE
:100B7000C102882331F40E94CF0381E08093C10237
:100B800004C00E94D4031092C1028FE995E09A83B9
:100B9000898300D000D0EDB7FEB73196CE01039621
:100BA000ADB7BEB712969C938E9311978EE792E0E5
:100BB00093838283158304830E949A09EDB7FEB75D
:100BC00036960FB6F894FEBF0FBEEDBFC80160E0C9
:100BD00071E00E944107CE0101960E9403042A960B
:100BE0000FB6F894DEBF0FBECDBFDF91CF911F913E
:100BF0000F9108951092D0041092CF0410927205B4
:100C0000109271050895CF93DF93482FE92F8091BB
:100C1000CF049091D004C0917105D09172050196D6
:100C200020E130E0B9010E9441078C179D0719F1BE
:100C30008091CF049091D0040196B9010E944107A0
:100C40009093D0048093CF048091CF049091D004EE
:100C5000DC01AA0FBB1F63E0880F991F6A95E1F7BB
:100C6000A80FB91FAF52BB4FC42FDE2F8AE00990E7
:100C70000D928150E1F780E090E0DF91CF910895EF
:100C80009C014091CF045091D004809171059091C6
:100C900072054817590731F18091710590917205DD
:100CA000019660E170E00E94410790937205809385
:100CB00071058091710590917205FC01EE0FFF1F87
:100CC000A3E0880F991FAA95E1F7E80FF91FD90152
:100CD000EF52FB4F8AE001900D928150E1F781E0E5
:100CE00090E0089580E090E00895AF92BF92CF9297
:100CF000DF92EF92FF920F931F93CF93DF93CDB7C5
:100D0000DEB7CA54D0400FB6F894DEBF0FBECDBFD9
:100D1000CE010B960E942D09009709F468C0CE0100
:100D20000B9664E872E00E94B5088C0180E090E0C8
:100D300064E872E00E94B5087C0180E090E064E81D
:100D400072E00E94B5085C0180E090E064E872E027
:100D50000E94B5086C010115110519F489E892E0AB
:100D600044C0C80161E972E00E94BA08009739F4F2
:100D7000C7010E945201C7010E949F0538C0C801E7
:100D800067E972E00E94BA08009769F5E114F1047E
:100D900019F48DE992E029C0C7010E9497088C01DF
:100DA000C50161E972E00E94BA080097C9F482E5C2
:100DB00091E09A838983CE010396C114D10411F086
:100DC000B60102C065EA72E00E94C308C80160E093
:100DD00071E00E944107CE0101960E94030407C002
:100DE00086EA92E002C08EEA92E00E946C090F92BD
:100DF0000F9281E892E0EDB7FEB7928381830E9463
:100E000053090F900F90C65BDF4F0FB6F894DEBF0B
:100E10000FBECDBFDF91CF911F910F91FF90EF904B
:100E2000DF90CF90BF90AF900895CF93DF93CDB771
:100E3000DEB72A970FB6F894DEBF0FBECDBF0E9473
:100E4000D0010E94FA050E9455050E94C9030F9225
:100E50000F9280E092E0EDB7FEB7928381830E940B
:100E600053090F900F90F894CE0101960E9440060E
:100E700078940097C1F3E981FA81CE010396199520
:100E8000F2CF97FB092E07260AD077FD04D00CD0AD
:100E900006D000201AF4709561957F4F0895F6F7FB
:100EA000909581959F4F0895AA1BBB1B51E107C0E8
:100EB000AA1FBB1FA617B70710F0A61BB70B881FEA
:100EC000991F5A95A9F780959095BC01CD01089579
:100ED000CF93DF93AC018230910510F442E050E0F3
:100EE000E0917505F091760520E030E0A0E0B0E0FB
:100EF00024C08081918184179507D0F084179507CD
:100F000071F482819381109729F013969C938E93AC
:100F100012972CC0909376058093750527C02115F4
:100F2000310519F08217930718F49C01BD01EF01F8
:100F300092818381DF01E92FF82F3097D1F62115B7
:100F40003105F9F0C901841B950B8430910580F4BB
:100F50008A819B816115710521F0FB019383828356
:100F600004C09093760580937505FE01329642C0C9
:100F7000FE01E80FF91F41935193029799838883EB
:100F800039C08091730590917405009741F4809168
:100F9000B8029091B90290937405809373052091E3
:100FA000B6023091B7022115310541F42DB73EB795
:100FB0008091BA029091BB02281B390BE091730516
:100FC000F0917405E217F30798F42E1B3F0B2417DA
:100FD000350770F0CA0102962817390748F08E0FBE
:100FE0009F1F90937405809373054193519302C0A2
:100FF000E0E0F0E0CF01DF91CF9108950F931F93D0
:10100000CF93DF939C01009709F48CC0DC01129709
:1010100013961C921E921297609175057091760539
:101020006115710589F48D919C911197820F931F21
:1010300020917305309174052817390769F5B0932D
:101040007405A09373056EC0FB0140E050E001C041
:10105000FC01EA17FB0730F482819381AF0100970E
:10106000B9F71FC0E9012297FB83EA830881198140
:10107000C901800F911F8E179F0759F480819181BC
:10108000800F911F029699838883828193819B832D
:101090008A834115510529F4B0937605A09375050F
:1010A00041C0FA01B383A283C191D191EC0FFD1F1E
:1010B000AE17BF0781F4F901929182918C0F9D1FA9
:1010C0000296DA0111969C938E93828193811396F6
:1010D0009C938E931297E0E0F0E002C0FB01BC010C
:1010E000DB0112968D919C9113970097B9F7CB0174
:1010F00002962D913C911197820F931F20917305B9
:10110000309174052817390769F4309729F4109243
:1011100076051092750502C01382128270937405D1
:1011200060937305DF91CF911F910F910895FC019A
:1011300088279927E89421912032E9F3293010F08B
:101140002E30C8F32B3241F02D3239F4689404C0AC
:101150000E94F108820F911D219120532A30C0F383
:101160001EF4909581959F4F089542EC52E00E94A5
:10117000CA080895FB01DC018D91019080190110CE
:10118000D9F3990B0895FB01DC0101900D92002029
:10119000E1F70895FA01A191B081009719F4109731
:1011A000E1F0CD01DC01CD010D90002011F4C00172
:1011B00013C0FB012191222319F02015D9F7F3CF99
:1011C000FB012191201519F41E92119606C02223CD
:1011D000C1F70D900020A1F7D001FA01A193B083CF
:1011E00008957AE0979F902D879F802D910D11246F
:1011F0000895CF92DF92EF92FF920F931F93CF93B8
:10120000DF938C016A01FA01838180FF1AC01616F0
:101210001706BCF47B01E8010EC0C6010E94E60B74
:10122000FFEF8F3F9F0769F089930894E108F10869
:101230008A30910521F021E0E216F10471F718825D
:1012400002C000E010E0C801DF91CF911F910F9123
:10125000FF90EF90DF90CF9008950F931F93CF935F
:10126000DF938C01E0917705F0917805838180FF11
:1012700012C0E80180917705909178050E94E60BF5
:101280002FEF8F3F920739F089938A30910591F7BC
:101290002197188202C000E010E0C801DF91CF91D1
:1012A0001F910F910895CF93DF93CDB7DEB7FE0165
:1012B0003696619171918091790590917A05AF018F
:1012C0000E94C909DF91CF910895609179057091CD
:1012D0007A050E94260C08950F931F93CF93DF93F6
:1012E0008C01E0917905F0917A05838181FF1AC024
:1012F000C0E0D0E005C01995009711F0CFEFDFEF07
:10130000F80181918F016091790570917A05DB0177
:101310001896ED91FC911997882369F78AE0199541
:10132000009711F0CFEFDFEFCE01DF91CF911F914A
:101330000F9108950F931F93CF93DF93CDB7DEB72F
:101340002E970FB6F894DEBF0FBECDBF0E891F8952
:1013500086E08C831A8309838FEF9FE79E838D83BA
:10136000AE01465E5F4FCE010196688D798D0E9479
:10137000C909EF81F885E00FF11F10822E960FB694
:10138000F894DEBF0FBECDBFDF91CF911F910F91BB
:1013900008952F923F924F925F926F927F928F9219
:1013A0009F92AF92BF92CF92DF92EF92FF920F93F4
:1013B0001F93CF93DF93CDB7DEB72D970FB6F89479
:1013C000DEBF0FBECDBF3C017D876C875A01FC019B
:1013D00017821682838181FFC8C12E010894411CA7
:1013E000511CF3019381EC85FD8593FD859193FF5D
:1013F0008191FD87EC87882309F4B3C1853241F4DC
:1014000093FD859193FF8191FD87EC87853229F4C7
:1014100090E0B3010E94260CE4CFFF24EE2410E0FC
:101420001032B0F48B3269F08C3228F4803251F0F3
:10143000833271F40BC08D3239F0803349F411607E
:101440002CC01260146029C0186027C0106125C02C
:1014500017FD2EC0282F20532A3098F416FF08C0FD
:101460008F2D880FF82EFF0CFF0CF80EF20E15C012
:101470008E2D880FE82EEE0CEE0CE80EE20E1062B8
:101480000CC08E3221F416FD6CC1106406C08C367F
:1014900011F4106802C0883659F4EC85FD8593FD7F
:1014A000859193FF8191FD87EC87882309F0B8CF60
:1014B000982F9554933018F09052933038F424E0DC
:1014C00030E0A20EB31E3FE339830FC0833631F004
:1014D000833781F0833509F05AC022C0F50180813D
:1014E000898322E030E0A20EB31E21E0C22ED12C6F
:1014F000420114C092E0292E312C2A0C3B1CF5012C
:101500008080918016FF03C06F2D70E002C06FEFE6
:101510007FEFC4010E94DB0B6C0151011F7715C0E6
:1015200082E0282E312C2A0C3B1CF5018080918012
:1015300016FF03C06F2D70E002C06FEF7FEFC40194
:101540000E94D00B6C011068510113FD1CC006C035
:1015500080E290E0B3010E94260CEA948E2D90E088
:10156000C816D906A8F30FC0F40117FD859117FF1F
:1015700081914F0190E0B3010E94260CE110EA94A2
:101580000894C108D108C114D10471F7E7C08436AA
:1015900011F0893651F5F50117FF07C0808191815F
:1015A000A281B38124E030E008C080819181AA2724
:1015B00097FDA095BA2F22E030E0A20EB31E012FB6
:1015C0000F76B7FF08C0B095A095909581959F4F75
:1015D000AF4FBF4F0068BC01CD01A2012AE030E04F
:1015E0000E94520CD82ED4183FC0853721F41F7E9C
:1015F0002AE030E020C0197F8F36A9F0803720F430
:10160000883509F0AEC00BC0803721F0883709F06B
:10161000A8C001C0106114FF09C0146007C014FF06
:1016200008C0166006C028E030E005C020E130E0C8
:1016300002C020E132E0F50117FF07C0608171812F
:101640008281938144E050E006C06081718180E036
:1016500090E042E050E0A40EB51EA2010E94520CA0
:10166000D82ED418012F0F7706FF09C00E7FDF1484
:1016700030F404FF06C002FD04C00F7E02C01D2D21
:1016800001C01F2D802F90E004FF0CC0FE01ED0D66
:10169000F11D2081203311F4097E09C002FF06C02C
:1016A0001E5F05C086789070009709F01F5F802E3E
:1016B000992403FD12C000FF0DC0FD2C1E1550F42F
:1016C000FE0CF11A1E2D06C080E290E0B3010E94CC
:1016D000260C1F5F1E15C0F304C01E1510F4E11A7E
:1016E00001C0EE2484FE0FC080E390E0B3010E94AD
:1016F000260C82FE1FC081FE03C088E590E010C06A
:1017000088E790E00DC0C40186789070009791F052
:1017100081FC02C080E201C08BE207FD8DE290E017
:10172000B3010E94260C06C080E390E0B3010E9442
:10173000260CFA94DF14C0F3DA94F201ED0DF11DDA
:10174000808190E0B3010E94260CDD20A9F706C03D
:1017500080E290E0B3010E94260CEA94EE20C1F7EB
:1017600040CEF3018681978102C08FEF9FEF2D96C7
:101770000FB6F894DEBF0FBECDBFDF91CF911F91A2
:101780000F91FF90EF90DF90CF90BF90AF909F9020
:101790008F907F906F905F904F903F902F90089523
:1017A000FC010590615070400110D8F7809590952C
:1017B0008E0F9F1F0895FC01615070400190011031
:1017C000D8F7809590958E0F9F1F0895CF93DF9344
:1017D000EC012B8120FF35C026FF09C02F7B2B8316
:1017E0008E819F8101969F838E838A8128C022FFEC
:1017F0000FC0E881F9818081992787FD9095009736
:1018000019F420622B831DC03196F983E88311C03F
:10181000EA85FB85CE01199597FF0BC02B813FEF21
:101820008F3F930711F480E101C080E2822B8B830C
:1018300008C02E813F812F5F3F4F3F832E8390E072
:1018400002C08FEF9FEFDF91CF9108950F931F9309
:10185000CF93DF938C01EB018B8181FF1BC082FF53
:101860000DC02E813F818C819D812817390764F43A
:10187000E881F9810193F983E88306C0E885F98559
:10188000802F1995009731F48E819F8101969F8357
:101890008E8302C00FEF1FEFC801DF91CF911F9120
:1018A0000F910895FA01AA27283051F1203181F1D2
:1018B000E8946F936E7F6E5F7F4F8F4F9F4FAF4F58
:1018C000B1E03ED0B4E03CD0670F781F891F9A1F6B
:1018D000A11D680F791F8A1F911DA11D6A0F711D1F
:1018E000811D911DA11D20D009F468943F912AE02B
:1018F000269F11243019305D3193DEF6CF01089513
:10190000462F4770405D4193B3E00FD0C9F7F6CF43
:10191000462F4F70405D4A3318F0495D31FD40520B
:10192000419302D0A9F7EACFB4E0A69597958795A1
:1019300077956795BA95C9F7009761057105089580
:101940009B01AC010A2E069457954795379527952C
:10195000BA95C9F7620F731F841F951FA01D0895C4
:04196000F894FFCF29
:1019640024200025642069732061207072696D65EC
:10197400206E756D626572202121210A00636F75E6
:101984006E743D25640A003E20002564206973209E
:101994007072696D65206E756D62657220212121FA
:1019A4000A000000000001000000000000A2010085
:1019B400000000000200000000AF01000000002D44
:1019C4002D3E256320002D2D3E25642825642920E5
:1019D400003E3E20002564203A2025640A00256448
:1019E4000024200020090A0D002121212D3131314C
:1019F400007072696D650074696D65720021212142
:101A04002D32323200002121212D333333002121A4
:0C1A1400212D3434340000007D0520003A
:00000001FF
