:100000000C9472000C9494000C9494000C94940042
:100010000C9494000C9494000C9494000C94940010
:100020000C9494000C9494000C9494000C94940000
:100030000C9494000C9494000C9494000C94D106AD
:100040000C9494000C9494000C9494000C949400E0
:100050000C9494000C9494000C9494000C949400D0
:100060000C9457080C9473070C9494000C94C607D6
:100070000C9494000C94F5070C9494000C94940048
:100080000C9494000C9494000C9494000C949400A0
:100090000C9494000C9494000C9494000C94940090
:1000A0000C9494000C9494000C9494000C94940080
:1000B0000C9494000C9494000C9494000C94940070
:1000C0000C9494000C9494000C9494000C94940060
:1000D0000C9494000C9494000C9494000C94940050
:1000E0000C94940011241FBECFEFD1E2DEBFCDBF30
:1000F00000E00CBF14E0A0E0B2E0E6EDF9E200E0C1
:100100000BBF02C007900D92AC36B107D9F71BBEEA
:1001100017E0ACE6B4E001C01D92A033B107E1F7EF
:100120000E94130F0C94E9140C940000809880E84E
:1001300080937C000895EAE7F0E080818068808306
:100140008DED90E00197F1F7808188608083808158
:100150008064808308958FEF80930B0180930A0160
:10016000089510920B0110926C0408958FEF809304
:100170000B0180936C04089521E030E002C0220F4F
:10018000331F8A95E2F780916C04822380936C047C
:1001900080930B01089521E030E002C0220F331F4D
:1001A0008A95E2F780916C04822B80936C04809393
:1001B0000B010895809580936C0480930B01089542
:1001C000FC0180916D0490916E04009739F4F093D6
:1001D0006E04E0936D0413821282089593838283E8
:1001E000F0936E04E0936D040895E0916D04F09136
:1001F0006E04309731F490936E0480936D0408C0C0
:10020000F9012281338121153105D1F7938382834E
:10021000FC01138212820895CF93DF93FC01209199
:100220006D0430916E042115310531F0408151810A
:10023000D901C0E0D0E00FC090936E0480936D04AC
:10024000138212821DC012968D919C911397ED011D
:10025000009739F0DC018D919C91119784179507D7
:1002600094F3209739F433832283F0936E04E09360
:100270006D0406C08A819B8193838283FB83EA831A
:10028000DF91CF9108950E94371008950F931F9327
:10029000CF93DF938AE090E00E949E11C0916D049D
:1002A000D0916E0403E012E013C000D00F92EDB7BE
:1002B000FEB71283018388819981948383830E948E
:1002C0008C110A80DB81C02D0F900F900F900F9042
:1002D000209759F78AE090E00E949E11DF91CF911C
:1002E0001F910F91089509C0FC0122813381309341
:1002F0006E0420936D040E94371080916D049091DC
:100300006E04009789F7089584E090E00E94A10FA1
:100310000895CF93DF93FC0162E070E00E94430FE9
:10032000EB0122E030E008C0CF01B9010E94430F89
:10033000009741F02F5F3F4FC217D307ACF781E022
:1003400090E002C080E090E0DF91CF910895CF92DD
:10035000DF92EF92FF920F931F93CF93DF9300975B
:1003600021F00E94D0107C0104C090EDE92E97E0AE
:10037000F92E00E010E0C2E0D0E08AE0C82E82E072
:10038000D82E16C0CE010E948901009781F00F5F20
:100390001F4F00D00F92EDB7FEB7D282C182D48337
:1003A000C3830E948C110F900F900F900F90219695
:1003B000EC16FD063CF700D00F9284E292E0EDB718
:1003C000FEB792838183148303830E948C110F9064
:1003D0000F900F900F90DF91CF911F910F91FF9091
:1003E000EF90DF90CF900895EF92FF921F93CF93FD
:1003F000DF93CDB7DEB728970FB6F894DEBF0FBEF8
:10040000CDBF009719F0FC01108101C011E62EE26A
:10041000E22E22E0F22E0F920F92EDB7FEB7F2829B
:10042000E1820E948C110F900F9040912A07509109
:100430002B07CE01019668E070E00E943211009710
:10044000A1F00E9484012981FC01208311821836C9
:1004500019F0143739F403C00E94E000DCCF0E9489
:10046000F500D9CF0E940C01D6CF0E9446010E9410
:10047000730128960FB6F894DEBF0FBECDBFDF9193
:10048000CF911F91FF90EF900895CF92DF92EF925E
:10049000FF920F931F93CF93DF93009741F0FC01DE
:1004A0002081222321F00E94D0108C0102C000ED97
:1004B00017E0C2E0D0E0EE24FF2431E3C32E32E0A7
:1004C000D32E17C0CE010E948901009789F00894AD
:1004D000E11CF11C00D00F92EDB7FEB7D282C182B1
:1004E000D483C3830E948C110F900F900F900F90B4
:1004F00021960C171D0734F700D00F9284E292E08A
:10050000EDB7FEB792838183F482E3820E948C115F
:100510000F900F900F900F90DF91CF911F910F913F
:10052000FF90EF90DF90CF90089510927E0510928B
:100530007D0510927C0510927B051092800510922B
:100540007F0510927A04109279040895482F209123
:100550007F05309180052F5F3F4FC90160E071E05A
:100560000E94430F9C018091790490917A0428178E
:10057000390759F03093800520937F052F573A4F64
:10058000F901408381E090E0089580E090E00895D3
:100590008091790490917A0420917F0530918005B3
:1005A0002817390779F0019660E071E00E94430F47
:1005B00090937A04809379048F579A4FFC0180813D
:1005C00090E0089580E090E00895482F20917D0507
:1005D00030917E052F5F3F4FC90160E071E00E94BE
:1005E000430F9C0180917B0590917C05281739076A
:1005F00059F030937E0520937D0525583B4FF90136
:10060000408381E090E0089580E090E0089580913B
:100610007B0590917C0520917D0530917E05281702
:10062000390779F0019660E071E00E94430F9093E2
:100630007C0580937B0585589B4FFC01808190E071
:10064000089580E090E008950F931F93CF93DF9378
:10065000CDB7DEB72A970FB6F894DEBF0FBECDBF79
:10066000009741F0DC012C91222321F00E94D01050
:100670008C0102C000E014E180916F04882331F402
:100680000E94B10081E080936F0404C00E94B60014
:1006900010926F0484E293E09A83898300D000D0A3
:1006A000EDB7FEB73196CE010396ADB7BEB7129641
:1006B0009C938E93119789E492E0938382831583B0
:1006C00004830E94D311EDB7FEB736960FB6F894A7
:1006D000FEBF0FBEEDBFC80160E071E00E94430F96
:1006E000CE0101960E946A052A960FB6F894DEBFE5
:1006F0000FBECDBFDF91CF911F910F910895FC01E7
:100700002081222319F40E949B0008950E94D0109A
:100710009C01B901882777FD8095982F0E94DE0BF8
:100720002DEC3CEC4CE85AE30E94AC0A20E030E0AF
:100730004AE754E40E94AC0A0E94550CDC01CB014C
:10074000845F914000D00F922CE432E0EDB7FEB709
:10075000328321836AE070E00E94430F74836383D5
:100760000E948C110F900F900F900F90089510928F
:100770008206109281061092240710922307089592
:10078000CF93DF93482FE92F8091810690918206C5
:10079000C0912307D0912407019620E130E0B901F0
:1007A0000E94430F8C179D0719F18091810690914B
:1007B00082060196B9010E94430F909382068093AE
:1007C00081068091810690918206DC01AA0FBB1FF1
:1007D00063E0880F991F6A95E1F7A80FB91FAD571D
:1007E000B94FC42FDE2F8AE009900D928150E1F7B6
:1007F00080E090E0DF91CF9108959C0140918106C7
:100800005091820680912307909124074817590739
:1008100031F18091230790912407019660E170E007
:100820000E94430F9093240780932307809123070E
:1008300090912407FC01EE0FFF1FA3E0880F991F82
:10084000AA95E1F7E80FF91FD901ED57F94F8AE0B2
:1008500001900D928150E1F781E090E0089580E0F1
:1008600090E00895CF93DF93FC012081222331F49F
:1008700081E0809370040E94B90811C02091700437
:10088000213021F0223009F045C00DC00E94D01067
:10089000109271048093720482E08093700480E06F
:1008A0000E94BD083DC0C0917104D09172040E94A5
:1008B000D010C82BD92BB3E0D695C795BA95E1F7E0
:1008C000BE0180E090E00E94A60C20E030E040E80D
:1008D0005DE30E94AC0A0E94BF08DC01CB0190934B
:1008E0007204809371040E94BB0800D00F9283E8C9
:1008F00092E0EDB7FEB7928381838091710490916D
:100900007204948383830E948C110F900F900F9038
:100910000F9006C00E94BB0884EB92E00E94A511D4
:10092000DF91CF910895AF92BF92CF92DF92EF9275
:10093000FF920F931F93CF93DF93CDB7DEB7CA54C7
:10094000D0400FB6F894DEBF0FBECDBFCE010B96E0
:100950000E946611009709F49AC0CE010B9666EECC
:1009600072E00E94EE108C0180E090E066EE72E092
:100970000E94EE107C0180E090E066EE72E00E9442
:10098000EE105C0180E090E066EE72E00E94EE10F6
:100990006C010115110519F48BEE92E076C0C801C7
:1009A00063EF72E00E94F310009739F4C7010E94D0
:1009B0004502C7010E9424036AC0C80169EF72E0C2
:1009C0000E94F310009729F481E093E00E947F03D6
:1009D0005EC0C80162E073E00E94F310009729F442
:1009E00081E093E00E94320452C0C80167E073E0E6
:1009F0000E94F310009709F046C0E114F10419F4C5
:100A00008DE093E042C0C7010E94D01060E071E029
:100A10000E94430F8B017B01C50163EF72E00E94CE
:100A2000F3100097B1F485E492E09A838983C601BC
:100A30000E942403CE010396C114D10411F0B60123
:100A400002C061E073E00E94FC10CE010196B70184
:100A500014C0C50169EF72E00E94F310009781F4A1
:100A60008FE793E09A838983CE01039661E073E078
:100A70000E94FC10CE010196B8010E946A0507C0D1
:100A800085E193E002C08DE193E00E94A5110F92F1
:100A90000F9283EE92E0EDB7FEB7928381830E94BE
:100AA0008C110F900F90C65BDF4F0FB6F894DEBF2E
:100AB0000FBECDBFDF91CF911F910F91FF90EF90AF
:100AC000DF90CF90BF90AF9008958EE090E00E94AD
:100AD000A10F0895EF92FF920F931F93CF93DF938F
:100AE000F82EE92E8B010E946505EC01DC011296BF
:100AF000EF2DFE2D8AE001900D928150E1F71983D0
:100B00000883E0917304F0917404309729F4D09332
:100B10007404C09373042FC040E050E020E030E044
:100B200001C0FD0180819181280F391F20173107F5
:100B300034F4A485B585AF01109799F701C0DF01A2
:100B40004115510579F48D919C911197801B910B62
:100B500011969C938E93BD87AC87D0937404C093F9
:100B6000730424C0109751F4021B130B19830883DC
:100B7000FA01D587C4871D861C8618C08D919C916B
:100B80001197B901681B790B9801261B370B398324
:100B900028838D919C911197821B930B11969C93A6
:100BA0008E93FA01D587C487BD87AC87DF91CF913B
:100BB0001F910F91FF90EF900895EF92FF920F9386
:100BC0001F93CF93DF938AE090E00E949E11C09123
:100BD0007304D091740400E010E085E2E82E83E015
:100BE000F82E20C088819981080F191F00D000D0ED
:100BF000EDB7FEB73196ADB7BEB71296FC92EE9246
:100C0000119793838283158304830E948C110C8433
:100C1000DD85C02D8DB79EB706960FB6F8949EBFA2
:100C20000FBE8DBF2097F1F68AE090E00E949E11E2
:100C3000DF91CF911F910F91FF90EF9008958091D8
:100C4000730490917404009749F0FC012485358564
:100C500030937404209373040E9437100895CF9347
:100C6000DF930DC08C859D859093740480937304ED
:100C7000CE0102960E94C003CE010E941F06C091C1
:100C80007304D0917404209721F088819981009792
:100C900049F3DF91CF9108950F931F93CF93DF9383
:100CA000CDB7DEB762970FB6F894DEBF0FBECDBFEB
:100CB00000E313E00F920F92EDB7FEB712830183AA
:100CC0000E948C110F900F9040912A0750912B0792
:100CD000CE01019668E070E00E943211009761F049
:100CE000CE0101960E94D010BC01009729F0CE01E0
:100CF00009960E946A05DECF0E94DD050E941F064C
:100D000062960FB6F894DEBF0FBECDBFDF91CF91D4
:100D10001F910F910895CF93DF9380917704909165
:100D20007804E0917704F091780400D000D0CDB73A
:100D3000DEB7219624E333E0ADB7BEB712963C93FD
:100D40002E9311972CE330E0B9010E94430F7B836F
:100D50006A83CF01B9010E94430F9D838C830E9457
:100D60008C118DB79EB706960FB6F8949EBF0FBE36
:100D70008DBFDF91CF9108951092B200E6EBF0E0C5
:100D8000808180628083E0E7F0E080818160808301
:100D9000E1EBF0E0808181608083808182608083EC
:100DA00008951F920F920FB60F920BB60F92112457
:100DB0002F933F934F935F936F937F938F939F9363
:100DC000AF93BF93EF93FF93E0917304F09174049A
:100DD000309749F0808191810197918380830097BA
:100DE00011F40E942F06FF91EF91BF91AF919F9157
:100DF0008F917F916F915F914F913F912F910F90C4
:100E00000BBE0F900FBE0F901F901895F8940E9484
:100E1000C80278948823D1F3843011F090E00895CB
:100E20008FEF9FEF0895CF93C82F8A3019F48DE08C
:100E30000E941307F89480912507882359F4C093E2
:100E4000C60081E0809325070AC0789486EF8A95D2
:100E5000F1F7F8948C2F0E94E5020097B1F3789493
:100E600081E090E0CF91089581E493E090932B0787
:100E700080932A078FE493E090932D0780932C07AB
:100E8000109225070E9495021092C50087E080937A
:100E9000C400E0ECF0E0808182608083E1ECF0E06F
:100EA000808188608083808180648083808180618C
:100EB00080838081806880830895CF93C82F8A3093
:100EC00019F48DE00E945D0780912507882331F495
:100ED000C093C60081E08093250703C08C2F0E9439
:100EE000E502CF9108951F920F920FB60F920BB6A5
:100EF0000F9211241F932F933F934F935F936F9300
:100F00007F938F939F93AF93BF93EF93FF93CF9371
:100F1000DF93CDB7DEB72A97DEBFCDBF1091C600F5
:100F2000143031F01D3009F41AE0812F0E945D0762
:100F3000812F0E94A602143011F01A3071F483E957
:100F400094E09A838983CE0103966DE373E00E9457
:100F5000FC10CE0101960E94C0032A96DEBFCDBFD1
:100F6000DF91CF91FF91EF91BF91AF919F918F91C1
:100F70007F916F915F914F913F912F911F910F90B2
:100F80000BBE0F900FBE0F901F9018951F920F92DF
:100F90000FB60F920BB60F9211242F933F934F93DE
:100FA0005F936F937F938F939F93AF93BF93EF93D1
:100FB000FF930E940703882319F41092250702C0AB
:100FC0008093C600FF91EF91BF91AF919F918F9158
:100FD0007F916F915F914F913F912F910F900BBE39
:100FE0000F900FBE0F901F9018951F920F920FB683
:100FF0000F920BB60F9211242F933F934F935F9351
:101000006F937F938F939F93AF93BF93EF93FF93D0
:10101000CF93DF93CDB7DEB72A97DEBFCDBF8091E8
:10102000780090917900EAE7F0E020812F77208323
:101030002FE733E03A83298300D000D0EDB7FEB725
:1010400031969E012D5F3F4FADB7BEB712963C93D0
:101050002E9311972EE333E033832283937095838D
:1010600084830E94D3118DB79EB706960FB6F8946D
:101070009EBF0FBE8DBFCE0101960E94C0032A966F
:10108000DEBFCDBFDF91CF91FF91EF91BF91AF91C7
:101090009F918F917F916F915F914F913F912F9190
:1010A0000F900BBE0F900FBE0F901F9018951F92C0
:1010B0000F920FB60F920BB60F9211242F933F93FE
:1010C0004F935F936F937F938F939F93AF93BF9350
:1010D000EF93FF93CF93DF93CDB7DEB72A97DEBFB1
:1010E000CDBF2EB582E394E09A83898300D000D0EF
:1010F000EDB7FEB73196CE010396ADB7BEB71296E7
:101100009C938E9311978EE393E093838283248341
:1011100015820E94D3118DB79EB706960FB6F8942C
:101120009EBF0FBE8DBFCE0101960E94C0032A96BE
:10113000DEBFCDBFDF91CF91FF91EF91BF91AF9116
:101140009F918F917F916F915F914F913F912F91DF
:101150000F900BBE0F900FBE0F901F901895209A06
:10116000219A229A23988DB581608DBD80ED8CBD2A
:10117000089528980895289A08958EBD0895CF92CD
:10118000DF92EF92FF920F931F936B017C0120E09F
:1011900030E040E05FE40E94AD0B87FD11C0C70165
:1011A000B60120E030E040E05FE40E94740A0E9453
:1011B000550C8B019C01005010402040304806C067
:1011C000C701B6010E94550C8B019C01B801C901F1
:1011D0001F910F91FF90EF90DF90CF900895A0E0C6
:1011E000B0E0E5EFF8E00C946C0FEC014B01FA0174
:1011F0008881823008F43EC1DB019C91923008F472
:1012000036C1843059F4943009F034C19981119673
:101210008C911197981709F027C12CC1943009F4CB
:1012200026C19230A9F4823009F024C1CE0128E011
:10123000DC010D90CD01DA010D92AD012150C1F715
:10124000D40111968C91119799818923818311C1C1
:10125000823009F40CC1AA80BB80DB0112964D914B
:101260005C911397CC80DD80EE80FF8014960D9109
:101270001D912D913C911797C501841B950BDC01A5
:1012800097FF04C0AA27BB27A81BB90BA032B10542
:101290000CF067C01816190684F5280139010A2ECA
:1012A00004C076946794579447940A94D2F741E027
:1012B00050E060E070E004C0440F551F661F771FC8
:1012C000AA95D2F7415050406040704040235123CE
:1012D0006223732381E090E0A0E0B0E04115510566
:1012E0006105710519F480E090E0DC018C019D013D
:1012F00004291529262937293FC00097E9F1AA0EAC
:10130000BB1E260137010A2E04C0769467945794B9
:1013100047940A94D2F741E050E060E070E004C0E6
:10132000440F551F661F771FAA95D2F741505040B2
:10133000604070404C215D216E217F2181E090E072
:10134000A0E0B0E0411551056105710519F480E098
:1013500090E0DC016C017D01C428D528E628F7283F
:101360000BC04A155B0524F400E010E0980104C0AE
:101370005A01CC24DD2476018981D40111969C91F7
:101380001197891709F445C0882329F00C191D0904
:101390002E093F0908C0D701C601801B910BA20B83
:1013A000B30B8C019D0137FD04C01182B382A28270
:1013B0000BC081E08183B382A28230952095109585
:1013C00001951F4F2F4F3F4F04831583268337838B
:1013D0000DC0880F991FAA1FBB1F84839583A68306
:1013E000B7838281938101979383828384819581DE
:1013F000A681B781AC01BD014150504060407040B2
:101400004F3F2FEF52072FEF62072FE3720708F3CA
:101410000BC08183B382A2820C0D1D1D2E1D3F1DAA
:10142000048315832683378383E080834481558139
:101430006681778177FF1DC0DB01CA0181709070E2
:10144000A070B0707695679557954795842B952B2E
:10145000A62BB72B84839583A683B7838281938140
:1014600001969383828305C0CDE5D3E003C0E401F8
:1014700001C0EF01CE01CDB7DEB7E0E10C94880FDB
:10148000A0E2B0E0E6E4FAE00C947A0FDC01CB01D4
:101490008D839E83AF83B88729833A834B835C8394
:1014A000CE010596BE01675E7F4F0E944D0ECE01B4
:1014B0000196BE016F5E7F4F0E944D0ECE01499690
:1014C000BE016F5E7F4FAE01475F5F4F0E94EF0826
:1014D0000E94760D462F572F682F792FCB01BA0126
:1014E000A096E2E00C94960FA0E2B0E0EAE7FAE002
:1014F0000C947A0FDC01CB018D839E83AF83B88778
:1015000029833A834B835C83CE010596BE01675ED7
:101510007F4F0E944D0ECE010196BE016F5E7F4F40
:101520000E944D0E8A8991E089278A8BCE014996C7
:10153000BE016F5E7F4FAE01475F5F4F0E94EF08B5
:101540000E94760D462F572F682F792FCB01BA01B5
:10155000A096E2E00C94960FA0E2B0E0E2EBFAE095
:101560000C946C0FDC01CB018D839E83AF83B88715
:1015700029833A834B835C83CE010596BE01675E67
:101580007F4F0E944D0ECE010196BE016F5E7F4FD0
:101590000E944D0E998D923078F089898230C0F08A
:1015A000943019F4823041F4CAC0843019F4923076
:1015B00079F4C5C0923051F481E02A8D9A892917B7
:1015C00009F480E08A8FCE014996BBC0823051F485
:1015D00081E02A8D9A89291709F480E08A8BCE014F
:1015E0004196AFC04D8C5E8C6F8C78A00D891E89A2
:1015F0002F89388DE0E2F0E040E050E0BA01882425
:1016000099245401CC24DD247601C20181709070AC
:101610000097D1F0C00ED11EE21EF31EDB01CA01FD
:10162000880D991DAA1DBB1D41E050E060E070E0EF
:10163000C016D106E206F30618F040E050E0BA0109
:10164000480F591F6A1F7B1F880C991CAA1CBB1CC2
:1016500037FF08C081E090E0A0E0B0E0882A992A36
:10166000AA2ABB2A000F111F221F331F76946794EA
:1016700057944794319749F68B8D9C8D2B893C89E3
:10168000820F931F02969C878B8781E02A8D9A890F
:10169000291709F480E08A872B853C8517C0CA0189
:1016A00081709070009761F0F694E794D794C79496
:1016B00080E090E0A0E0B0E8C82AD92AEA2AFB2A14
:1016C00076956795579547952F5F3F4F77FDE7CF05
:1016D000C9010BC0440F551F661F771FF7FC4160FF
:1016E000CC0CDD1CEE1CFF1C01974030A0E05A071B
:1016F000A0E06A07A0E47A0768F38B879C87DB0188
:10170000CA018F779070A070B07080349105A105E8
:10171000B10561F447FD0AC0C114D104E104F1042C
:1017200029F0405C5F4F6F4F7F4F40784D875E8759
:101730006F87788B83E08987CE01099602C08DE59B
:1017400093E00E94760D462F572F682F792FCB01FB
:10175000BA01A096E0E10C94880FA8E1B0E0E3EBB9
:10176000FBE00C947A0FDC01CB018D839E83AF8369
:10177000B88729833A834B835C83CE010596BE01EB
:101780006F5E7F4F0E944D0ECE010196BE01675FD6
:101790007F4F0E944D0E8989823058F089858230B2
:1017A00040F0CE014196BE01675F7F4F0E94B60EAA
:1017B00001C08FEF6896E2E00C94960FCF92DF9213
:1017C000EF92FF92CF93DF93CDB7DEB728970FB696
:1017D000F894DEBF0FBECDBF6B017C0183E089832F
:1017E000D701C6018827B7FD83959927AA27BB276C
:1017F000282F8A83C114D104E104F10419F482E092
:10180000898335C08EE190E09C838B83222389F00D
:1018100080E0C81680E0D80680E0E80680E8F80698
:1018200059F1F094E094D094C094C11CD11CE11CF7
:10183000F11CCD82DE82EF82F886C701B6010E94DC
:10184000230D01971816190694F4082E04C0CC0C29
:10185000DD1CEE1CFF1C0A94D2F7CD82DE82EF82E3
:10186000F8862EE130E0281B390B3C832B83CE0118
:1018700001960E94760D04C060E070E080E09FEC6D
:10188000382F292F862F972FA32FB22FBC01CD01E0
:1018900028960FB6F894DEBF0FBECDBFDF91CF9173
:1018A000FF90EF90DF90CF900895ACE0B0E0EBE5D3
:1018B000FCE00C94780FDC01CB0189839A83AB8325
:1018C000BC83CE010196BE016B5F7F4F0E944D0E1F
:1018D0008D81823069F1823058F1843039F02F8166
:1018E000388537FD25C02F31310544F08E8188239E
:1018F00019F100E010E020E030E822C08EE190E035
:10190000821B930B09851A852B853C8504C036956F
:101910002795179507958A95D2F78E81882381F0B0
:1019200030952095109501951F4F2F4F3F4F08C0C0
:1019300000E010E0980104C00FEF1FEF2FEF3FE72A
:10194000B801C9012C96E4E00C94940FA8E0B0E033
:10195000ECEAFCE00C94740F6B017C011A826115B7
:1019600071058105910519F482E089835EC083E0E9
:1019700089830EE110E01C830B83CD82DE82EF822F
:10198000F886C701B6010E94230D9C01215030400A
:1019900037FF38C0EE27FF27E21BF30B81E090E012
:1019A000A0E0B0E00E2E04C0880F991FAA1FBB1F35
:1019B0000A94D2F70197A109B1098C219D21AE218A
:1019C000BF2141E050E060E070E00097A105B10563
:1019D00019F440E050E0BA0104C0F694E794D794BB
:1019E000C794EA95D2F7C42AD52AE62AF72ACD82E7
:1019F000DE82EF82F8868EE190E0821B930B9C835F
:101A00008B8313C02115310581F0022E04C0CC0C4C
:101A1000DD1CEE1CFF1C0A94D2F7CD82DE82EF8221
:101A2000F886021B130B1C830B83CE0101960E94C8
:101A3000760D462F572F682F792FCB01BA012896A4
:101A4000E8E00C94900FCF92DF92EF92FF920F9309
:101A50001F938B019C01003080E0180781E028076C
:101A600080E0380750F40F3F11052105310509F0DA
:101A700088F480E090E0DC0116C00030E0E01E0752
:101A8000E0E02E07E1E03E0750F480E190E0A0E0C6
:101A9000B0E009C088E090E0A0E0B0E004C088E1D8
:101AA00090E0A0E0B0E040E250E060E070E0481B71
:101AB000590B6A0B7B0B6801790104C0F694E7941B
:101AC000D794C7948A95D2F7D701C6018B599C4FFA
:101AD000FC018081481B510961097109CA011F91EC
:101AE0000F91FF90EF90DF90CF900895CF92DF920B
:101AF000EF92FF920F931F93DC0114964D915D912D
:101B00006D917C9117971196EC9111978C91823081
:101B100020F460618FEF90E0A5C0843009F49DC08F
:101B2000823009F494C0411551056105710509F42D
:101B300091C012968D919C9113972FEF8238920746
:101B40000CF059C022E83FEF281B390B2A31310530
:101B500064F56A017B01022E04C0F694E794D794E1
:101B6000C7940A94D2F781E090E0A0E0B0E004C00E
:101B7000880F991FAA1FBB1F2A95D2F70197A109A9
:101B8000B10984239523A623B72341E050E060E008
:101B900070E00097A105B10519F440E050E0BA01EA
:101BA0004C295D296E297F2903C040E050E0BA012D
:101BB000DB01CA018F779070A070B07080349105FE
:101BC000A105B10539F447FF09C0405C5F4F6F4F75
:101BD0007F4F04C0415C5F4F6F4F7F4F81E090E0CB
:101BE000403020E0520720E0620720E4720738F519
:101BF00080E090E024C0803891057CF58A019B014B
:101C00000F771070207030700034110521053105F8
:101C100039F447FF09C0405C5F4F6F4F7F4F04C0EE
:101C2000415C5F4F6F4F7F4F77FD03C081589F4FDF
:101C300006C0769567955795479580589F4F97E0D2
:101C400076956795579547959A95D1F70BC080E0A3
:101C500090E005C080E090E005C08FEF90E040E0AC
:101C600050E0BA01982F979599279795A62FAF77AF
:101C7000E795EE27E79586953A2F392B282F2E2BBF
:101C8000842F952FA32FB22FBC01CD011F910F914F
:101C9000FF90EF90DF90CF900895DC01FB014C9115
:101CA00011965C91119712968C911297682F6F770D
:101CB00070E0982F991F9927991F13962C911397CD
:101CC000822F880F892B90E0221F2227221F218339
:101CD000009739F5411551056105710511F482E050
:101CE00029C082E89FEF9383828327E0440F551F2A
:101CF000661F771F2A95D1F783E0808309C0440FC0
:101D0000551F661F771F828193810197938382837A
:101D1000403080E0580780E0680780E4780778F377
:101D200020C08F3F910579F441155105610571057A
:101D300019F484E08083089564FF03C081E0808308
:101D400010C010820EC08F5790409383828383E02F
:101D5000808387E0440F551F661F771F8A95D1F750
:101D6000706444835583668377830895CF93FC0121
:101D7000DB019081923008F44CC08C91823008F4E1
:101D800048C0943069F42181843039F411968C91E3
:101D9000119790E0821B910944C02223D1F13FC0EA
:101DA000843021F0923041F48230B1F111968C915F
:101DB00011978823A1F12DC0C181823001F11196C4
:101DC0008C911197C817D9F48281938112962D9125
:101DD0003C9113972817390794F082179307BCF0AA
:101DE000448155816681778114968D919D910D90E6
:101DF000BC91A02D84179507A607B70718F4CC232C
:101E000041F00DC0481759076A077B0728F4CC2317
:101E100031F081E090E005C080E090E002C08FEFFB
:101E20009FEFCF910895CF93DF93CDB7DEB72A9779
:101E30000FB6F894DEBF0FBECDBF0E9434070E94DC
:101E4000B7030E94BC060E9496000E94AF080E9441
:101E5000AB000F920F9280E092E0EDB7FEB7928355
:101E600081830E948C110F900F90F894CE010196FF
:101E70000E94FD0378940097C1F3E981FA81CE01B5
:101E800003961995F2CF97FB092E07260AD077FD06
:101E900004D00CD006D000201AF4709561957F4FC5
:101EA0000895F6F7909581959F4F0895AA1BBB1B47
:101EB00051E107C0AA1FBB1FA617B70710F0A61B4A
:101EC000B70B881F991F5A95A9F780959095BC016B
:101ED000CD0108952F923F924F925F926F927F9221
:101EE0008F929F92AF92BF92CF92DF92EF92FF922A
:101EF0000F931F93CF93DF93CDB7DEB7CA1BDB0BD6
:101F00000FB6F894DEBF0FBECDBF19942A8839886A
:101F100048885F846E847D848C849B84AA84B98481
:101F2000C884DF80EE80FD800C811B81AA81B9818D
:101F3000CE0FD11D0FB6F894DEBF0FBECDBFED01A1
:101F40000895CF93DF93AC018230910510F442E005
:101F500050E0E0912807F091290720E030E0A0E070
:101F6000B0E024C08081918184179507D0F0841758
:101F7000950771F482819381109729F013969C93B1
:101F80008E9312972CC0909329078093280727C01F
:101F90002115310519F08217930718F49C01BD0132
:101FA000EF0192818381DF01E92FF82F3097D1F67D
:101FB00021153105F9F0C901841B950B8430910579
:101FC00080F48A819B816115710521F0FB01938367
:101FD000828304C09093290780932807FE013296DC
:101FE00042C0FE01E80FF91F419351930297998374
:101FF000888339C08091260790912707009741F484
:102000008091670490916804909327078093260736
:1020100020916504309166042115310541F42DB7F6
:102020003EB78091690490916A04281B390BE091B6
:102030002607F0912707E217F30798F42E1B3F0BB2
:102040002417350770F0CA0102962817390748F09F
:102050008E0F9F1F909327078093260741935193DC
:1020600002C0E0E0F0E0CF01DF91CF9108950F933F
:102070001F93CF93DF939C01009709F48CC0DC0180
:10208000129713961C921E921297609128077091D6
:1020900029076115710589F48D919C911197820F23
:1020A000931F20912607309127072817390769F5D4
:1020B000B0932707A09326076EC0FB0140E050E0D5
:1020C00001C0FC01EA17FB0730F482819381AF0164
:1020D0000097B9F71FC0E9012297FB83EA830881C3
:1020E0001981C901800F911F8E179F0759F48081B4
:1020F0009181800F911F02969983888382819381B9
:102100009B838A834115510529F4B0932907A09335
:10211000280741C0FA01B383A283C191D191EC0F8A
:10212000FD1FAE17BF0781F4F901929182918C0FC8
:102130009D1F0296DA0111969C938E938281938162
:1021400013969C938E931297E0E0F0E002C0FB019F
:10215000BC01DB0112968D919C9113970097B9F702
:10216000CB0102962D913C911197820F931F2091E4
:102170002607309127072817390769F4309729F483
:10218000109229071092280702C0138212827093BE
:10219000270760932607DF91CF911F910F91089534
:1021A000FC0188279927E89421912032E9F329300E
:1021B00010F02E30C8F32B3241F02D3239F46894F0
:1021C00004C00E942A11820F911D219120532A30B0
:1021D000C0F31EF4909581959F4F089545E754E014
:1021E0000E9403110895FB01DC018D91019080197B
:1021F0000110D9F3990B0895FB01DC0101900D92B8
:102200000020E1F70895FA01A191B081009719F437
:102210001097E1F0CD01DC01CD010D90002011F40B
:10222000C00113C0FB012191222319F02015D9F719
:10223000F3CFFB012191201519F41E92119606C0CF
:102240002223C1F70D900020A1F7D001FA01A1933C
:10225000B08308957AE0979F902D879F802D910DF0
:1022600011240895CF92DF92EF92FF920F931F9364
:10227000CF93DF938C016A01FA01838180FF1AC03A
:1022800016161706BCF47B01E8010EC0C6010E94B9
:102290001F14FFEF8F3F9F0769F089930894E108AF
:1022A000F1088A30910521F021E0E216F10471F77E
:1022B000188202C000E010E0C801DF91CF911F91A9
:1022C0000F91FF90EF90DF90CF9008950F931F93A1
:1022D000CF93DF938C01E0912A07F0912B07838144
:1022E00080FF12C0E80180912A0790912B070E947D
:1022F0001F142FEF8F3F920739F089938A30910591
:1023000091F72197188202C000E010E0C801DF9128
:10231000CF911F910F910895CF93DF93CDB7DEB783
:10232000FE0136966191719180912C0790912D0755
:10233000AF010E940212DF91CF91089560912C07A6
:1023400070912D070E945F1408950F931F93CF93F0
:10235000DF938C01E0912C07F0912D07838181FFA1
:102360001AC0C0E0D0E005C01995009711F0CFEF7A
:10237000DFEFF80181918F0160912C0770912D079B
:10238000DB011896ED91FC911997882369F78AE093
:102390001995009711F0CFEFDFEFCE01DF91CF91CC
:1023A0001F910F9108950F931F93CF93DF93CDB794
:1023B000DEB72E970FB6F894DEBF0FBECDBF0E89E5
:1023C0001F8986E08C831A8309838FEF9FE79E83A2
:1023D0008D83AE01465E5F4FCE010196688D798D8B
:1023E0000E940212EF81F885E00FF11F10822E96F5
:1023F0000FB6F894DEBF0FBECDBFDF91CF911F9116
:102400000F9108952F923F924F925F926F927F9219
:102410008F929F92AF92BF92CF92DF92EF92FF92F4
:102420000F931F93CF93DF93CDB7DEB72D970FB6E2
:10243000F894DEBF0FBECDBF3C017D876C875A018B
:10244000FC0117821682838181FFC8C12E01089486
:10245000411C511CF3019381EC85FD8593FD859111
:1024600093FF8191FD87EC87882309F4B3C18532FE
:1024700041F493FD859193FF8191FD87EC8785322F
:1024800029F490E0B3010E945F14E4CFFF24EE240E
:1024900010E01032B0F48B3269F08C3228F48032C4
:1024A00051F0833271F40BC08D3239F0803349F42E
:1024B00011602CC01260146029C0186027C0106120
:1024C00025C017FD2EC0282F20532A3098F416FF60
:1024D00008C08F2D880FF82EFF0CFF0CF80EF20E9F
:1024E00015C08E2D880FE82EEE0CEE0CE80EE20ED5
:1024F00010620CC08E3221F416FD6CC1106406C04F
:102500008C3611F4106802C0883659F4EC85FD85CC
:1025100093FD859193FF8191FD87EC87882309F0D6
:10252000B8CF982F9554933018F09052933038F4D8
:1025300024E030E0A20EB31E3FE339830FC08336A0
:1025400031F0833781F0833509F05AC022C0F5019C
:102550008081898322E030E0A20EB31E21E0C22EEA
:10256000D12C420114C092E0292E312C2A0C3B1CA4
:10257000F5018080918016FF03C06F2D70E002C0CE
:102580006FEF7FEFC4010E9414146C0151011F779B
:1025900015C082E0282E312C2A0C3B1CF5018080CE
:1025A000918016FF03C06F2D70E002C06FEF7FEFC8
:1025B000C4010E9409146C011068510113FD1CC074
:1025C00006C080E290E0B3010E945F14EA948E2D71
:1025D00090E0C816D906A8F30FC0F40117FD859145
:1025E00017FF81914F0190E0B3010E945F14E11049
:1025F000EA940894C108D108C114D10471F7E7C066
:10260000843611F0893651F5F50117FF07C0808136
:102610009181A281B38124E030E008C08081918162
:10262000AA2797FDA095BA2F22E030E0A20EB31E94
:10263000012F0F76B7FF08C0B095A09590958195B2
:102640009F4FAF4FBF4F0068BC01CD01A2012AE0F0
:1026500030E00E948B14D82ED4183FC0853721F467
:102660001F7E2AE030E020C0197F8F36A9F0803726
:1026700020F4883509F0AEC00BC0803721F08837D0
:1026800009F0A8C001C0106114FF09C0146007C0A0
:1026900014FF08C0166006C028E030E005C020E145
:1026A00030E002C020E132E0F50117FF07C0608191
:1026B00071818281938144E050E006C06081718124
:1026C00080E090E042E050E0A40EB51EA2010E941E
:1026D0008B14D82ED418012F0F7706FF09C00E7F58
:1026E000DF1430F404FF06C002FD04C00F7E02C0F8
:1026F0001D2D01C01F2D802F90E004FF0CC0FE0196
:10270000ED0DF11D2081203311F4097E09C002FF77
:1027100006C01E5F05C086789070009709F01F5FA5
:10272000802E992403FD12C000FF0DC0FD2C1E1544
:1027300050F4FE0CF11A1E2D06C080E290E0B301A9
:102740000E945F141F5F1E15C0F304C01E1510F415
:10275000E11A01C0EE2484FE0FC080E390E0B301D3
:102760000E945F1482FE1FC081FE03C088E590E0D6
:1027700010C088E790E00DC0C40186789070009783
:1027800091F081FC02C080E201C08BE207FD8DE286
:1027900090E0B3010E945F1406C080E390E0B301B3
:1027A0000E945F14FA94DF14C0F3DA94F201ED0D85
:1027B000F11D808190E0B3010E945F14DD20A9F734
:1027C00006C080E290E0B3010E945F14EA94EE201C
:1027D000C1F740CEF3018681978102C08FEF9FEF52
:1027E0002D960FB6F894DEBF0FBECDBFDF91CF910F
:1027F0001F910F91FF90EF90DF90CF90BF90AF901F
:102800009F908F907F906F905F904F903F902F9010
:102810000895FC010590615070400110D8F7809533
:1028200090958E0F9F1F0895FC016150704001909C
:102830000110D8F7809590958E0F9F1F0895CF9324
:10284000DF93EC012B8120FF35C026FF09C02F7BD1
:102850002B838E819F8101969F838E838A8128C0DE
:1028600022FF0FC0E881F9818081992787FD90952B
:10287000009719F420622B831DC03196F983E883F9
:1028800011C0EA85FB85CE01199597FF0BC02B81FE
:102890003FEF8F3F930711F480E101C080E2822B6C
:1028A0008B8308C02E813F812F5F3F4F3F832E8354
:1028B00090E002C08FEF9FEFDF91CF9108950F93CB
:1028C0001F93CF93DF938C01EB018B8181FF1BC0A2
:1028D00082FF0DC02E813F818C819D812817390791
:1028E00064F4E881F9810193F983E88306C0E885FF
:1028F000F985802F1995009731F48E819F8101967B
:102900009F838E8302C00FEF1FEFC801DF91CF912D
:102910001F910F910895FA01AA27283051F1203113
:1029200081F1E8946F936E7F6E5F7F4F8F4F9F4F63
:10293000AF4FB1E03ED0B4E03CD0670F781F891FA5
:102940009A1FA11D680F791F8A1F911DA11D6A0F73
:10295000711D811D911DA11D20D009F468943F9126
:102960002AE0269F11243019305D3193DEF6CF0125
:102970000895462F4770405D4193B3E00FD0C9F7EB
:10298000F6CF462F4F70405D4A3318F0495D31FD58
:102990004052419302D0A9F7EACFB4E0A6959795AB
:1029A000879577956795BA95C9F700976105710581
:1029B00008959B01AC010A2E0694579547953795CB
:1029C0002795BA95C9F7620F731F841F951FA01D25
:0629D0000895F894FFCF0A
:1029D6002420002D2D3E25632000256420697320C8
:1029E60061207072696D65206E756D626572202159
:1029F60021210A00636F756E743D25640A003E202E
:102A0600002564206973207072696D65206E756D8E
:102A1600626572202121210A002564007461736BAE
:102A26005F746331303437612829203A2063757228
:102A360072656E742074656D706572617475726509
:102A4600202D3E202564206465677265652E200A68
:102A56002420007461736B5F746337372829203A2A
:102A66002063757272656E745F74656D70657261F0
:102A760074757265202D3E20256420646567726535
:102A8600652E0A007461736B5F74633737282920DB
:102A96003A20756E65787065636574642073746139
:102AA600746520696E207461736B5F746337372EAB
:102AB6002E2E0024200020090A0D002121212D316F
:102AC6003131007072696D6500746331303437617D
:102AD6000000746337370074696D65720021212127
:102AE6002D323232002121212D3333330021212191
:102AF6002D343434002D2D3E2564282564292000EC
:102B06003E3E20002564203A2025640A0000256404
:102B160000000000010000000000000607000000A1
:102B26000000020000000013070000000000000083
:102B36000000000000000102020303030304040472
:102B46000404040404050505050505050505050534
:102B56000505050505060606060606060606060614
:102B660006060606060606060606060606060606FF
:102B760006060606060707070707070707070707E4
:102B860007070707070707070707070707070707CF
:102B960007070707070707070707070707070707BF
:102BA60007070707070707070707070707070707AF
:102BB6000707070707080808080808080808080894
:102BC600080808080808080808080808080808087F
:102BD600080808080808080808080808080808086F
:102BE600080808080808080808080808080808085F
:102BF600080808080808080808080808080808084F
:102C0600080808080808080808080808080808083E
:102C1600080808080808080808080808080808082E
:102C2600080808080808080808080808080808081E
:0C2C360008080808080000300720000013
:00000001FF
