:100000000C9472000C9494000C9494000C94940042
:100010000C9494000C9494000C9494000C94940010
:100020000C9494000C9494000C9494000C94940000
:100030000C9494000C9494000C9494000C94F7028B
:100040000C9494000C9494000C9494000C949400E0
:100050000C9494000C9494000C9494000C949400D0
:100060000C9494000C9489030C9494000C945A03FF
:100070000C9494000C9494000C9494000C949400B0
:100080000C9494000C9494000C9494000C949400A0
:100090000C9494000C9494000C9494000C94940090
:1000A0000C9494000C9494000C9494000C94940080
:1000B0000C9494000C9494000C9494000C94940070
:1000C0000C9494000C9494000C9494000C94940060
:1000D0000C9494000C9494000C9494000C94940050
:1000E0000C94940011241FBECFEFD1E2DEBFCDBF30
:1000F00000E00CBF12E0A0E0B2E0EEE9F5E100E0C4
:100100000BBF02C007900D92AE3AB107D9F71BBEE4
:1001100014E0AEEAB2E001C01D92AE3CB107E1F7D7
:100120000E9443050C94CD0A0C940000CF93DF93FA
:10013000FC0162E070E00E94BA05EB0122E030E0D1
:1001400008C0CF01B9010E94BA05009741F02F5FA6
:100150003F4FC217D307ACF781E090E002C080E0C8
:1001600090E0DF91CF910895CF92DF92EF92FF92CE
:100170000F931F93CF93DF93009721F00E941007F6
:100180007C0104C090EDE92E97E0F92E00E010E02C
:10019000C2E0D0E086E4C82E82E0D82E16C0CE01A0
:1001A0000E949600009781F00F5F1F4F00D00F92C2
:1001B000EDB7FEB7D282C182D483C3830E949F076A
:1001C0000F900F900F900F902196EC16FD063CF7C4
:1001D00000D00F9280E692E0EDB7FEB79283818364
:1001E000148303830E949F070F900F900F900F902E
:1001F000DF91CF911F910F91FF90EF90DF90CF9003
:100200000895EF92FF921F93CF93DF93CDB7DEB7A0
:1002100028970FB6F894DEBF0FBECDBF009719F038
:10022000FC01108101C011E62AE6E22E22E0F22E46
:100230000F920F92EDB7FEB7F282E1820E949F0704
:100240000F900F904091C8045091C904CE010196BF
:1002500068E070E00E946B070097A1F00E94F20234
:100260002981FC0120831182183619F0143739F4E2
:1002700003C00E944E02DCCF0E946302D9CF0E94CD
:100280007A02D6CF0E94B4020E94E10228960FB6ED
:10029000F894DEBF0FBECDBFDF91CF911F91FF90CD
:1002A000EF9008951092C0031092BF031092BE0306
:1002B0001092BD031092C2031092C1031092BC02AF
:1002C0001092BB020895482F2091C1033091C203C0
:1002D0002F5F3F4FC90160E071E00E94BA059C01A9
:1002E0008091BB029091BC022817390759F03093D6
:1002F000C2032093C1032D533C4FF901408381E099
:1003000090E0089580E090E008958091BB02909184
:10031000BC022091C1033091C2032817390779F03C
:10032000019660E071E00E94BA059093BC02809350
:10033000BB028D539C4FFC01808190E0089580E0CA
:1003400090E00895482F2091BF033091C0032F5FA4
:100350003F4FC90160E071E00E94BA059C018091A5
:10036000BD039091BE032817390759F03093C0039D
:100370002093BF0323543D4FF901408381E090E077
:10038000089580E090E008958091BD039091BE03B0
:100390002091BF033091C0032817390779F00196E7
:1003A00060E071E00E94BA059093BE038093BD03A4
:1003B00083549D4FFC01808190E0089580E090E09F
:1003C0000895F8940E94850178948823D1F38430AD
:1003D00011F090E008958FEF9FEF0895CF93C82F0D
:1003E0008A3019F48DE00E94EE01F8948091C304E4
:1003F000882359F4C093C60081E08093C3040AC0E7
:10040000789486EF8A95F1F7F8948C2F0E94A201D8
:100410000097B1F3789481E090E0CF9108958DE654
:1004200092E09093C9048093C8048BE792E0909384
:10043000CB048093CA041092C3040E94520110920C
:10044000C50087E08093C400E0ECF0E0808182602A
:100450008083E1ECF0E0808188608083808180642B
:10046000808380818061808380818068808308951B
:10047000CF93C82F8A3019F48DE00E943802809102
:10048000C304882331F4C093C60081E08093C30481
:1004900003C08C2F0E94A201CF910895FC0180918E
:1004A000AE029091AF02009739F4F093AF02E0935F
:1004B000AE0213821282089593838283F093AF0277
:1004C000E093AE020895E091AE02F091AF02309752
:1004D00031F49093AF028093AE0208C0F9012281FB
:1004E000338121153105D1F793838283FC01138277
:1004F00012820895CF93DF93FC012091AE023091D8
:10050000AF022115310531F040815181D901C0E0A0
:10051000D0E00FC09093AF028093AE02138212829C
:100520001DC012968D919C911397ED01009739F0A3
:10053000DC018D919C9111978417950794F3209776
:1005400039F433832283F093AF02E093AE0206C006
:100550008A819B8193838283FB83EA83DF91CF919E
:1005600008950E94770608950F931F93CF93DF930A
:100570008AE090E00E94B107C091AE02D091AF0234
:1005800009E812E013C000D00F92EDB7FEB7128356
:10059000018388819981948383830E949F070A80C5
:1005A000DB81C02D0F900F900F900F90209759F77F
:1005B0008AE090E00E94B107DF91CF911F910F91E7
:1005C000089509C0FC01228133813093AF0220934A
:1005D000AE020E9477068091AE029091AF02009722
:1005E00089F7089584E090E00E94E10508951F9244
:1005F0000F920FB60F920BB60F9211242F933F93C9
:100600004F935F936F937F938F939F93AF93BF931A
:10061000EF93FF938091B0029091B1020196909375
:10062000B1028093B0028430910589F51092B10235
:100630001092B0028091B9029091BA020196909303
:10064000BA028093B90284E70E94630189E60E949E
:1006500063018DE60E94630185E60E9463018AE0E2
:100660000E9463018091B2029091B302009749F415
:100670000E94140581E090E09093B3028093B2024F
:1006800006C00E9419051092B3021092B202FF91A7
:10069000EF91BF91AF919F918F917F916F915F91FA
:1006A0004F913F912F910F900BBE0F900FBE0F9067
:1006B0001F9018951F920F920FB60F920BB60F92C4
:1006C00011242F933F934F935F936F937F938F9357
:1006D0009F93AF93BF93EF93FF930E94C40188232E
:1006E00019F41092C30402C08093C600FF91EF91E9
:1006F000BF91AF919F918F917F916F915F914F913A
:100700003F912F910F900BBE0F900FBE0F901F9037
:1007100018951F920F920FB60F920BB60F921124DD
:100720002F933F934F935F936F937F938F939F93F9
:10073000AF93BF93CF93EF93FF93C091C600C430A4
:1007400031F0CD3009F4CAE08C2F0E9438028C2F92
:100750000E946301FF91EF91CF91BF91AF919F9163
:100760008F917F916F915F914F913F912F910F905A
:100770000BBE0F900FBE0F901F9018958EE090E06B
:100780000E94E1050895EF92FF920F931F93CF937C
:10079000DF93F82EE92E8B010E94BE03EC01DC01F1
:1007A0001296EF2DFE2D8AE001900D928150E1F717
:1007B00019830883E091B402F091B502309729F4CF
:1007C000D093B502C093B4022FC040E050E020E0C7
:1007D00030E001C0FD0180819181280F391F201771
:1007E000310734F4A485B585AF01109799F701C09E
:1007F000DF014115510579F48D919C911197801B72
:10080000910B11969C938E93BD87AC87D093B502C4
:10081000C093B40224C0109751F4021B130B198328
:100820000883FA01D587C4871D861C8618C08D9160
:100830009C911197B901681B790B9801261B370B06
:10084000398328838D919C911197821B930B11966C
:100850009C938E93FA01D587C487BD87AC87DF91BF
:10086000CF911F910F91FF90EF900895EF92FF921B
:100870000F931F93CF93DF938AE090E00E94B1071C
:10088000C091B402D091B50200E010E080E9E82EFA
:1008900082E0F82E20C088819981080F191F00D0AE
:1008A00000D0EDB7FEB73196ADB7BEB71296FC9249
:1008B000EE92119793838283158304830E949F078E
:1008C0000C84DD85C02D8DB79EB706960FB6F894C3
:1008D0009EBF0FBE8DBF2097F1F68AE090E00E9488
:1008E000B107DF91CF911F910F91FF90EF90089585
:1008F00009C0FC01248535853093B5022093B402EC
:100900000E9477068091B4029091B502009789F712
:1009100008950F931F93CF93DF93CDB7DEB7629700
:100920000FB6F894DEBF0FBECDBF0BE912E00F92F9
:100930000F92EDB7FEB7128301830E949F070F90BD
:100940000F904091C8045091C904CE01019668E00F
:1009500070E00E946B07009761F0CE0101960E9443
:100960001007BC01009729F0CE0109960E94C3032D
:10097000DECF0E9436040E94780462960FB6F89487
:10098000DEBF0FBECDBFDF91CF911F910F910895B4
:10099000CF93DF938091B9029091BA02E091B902AE
:1009A000F091BA0200D000D0CDB7DEB721962FE982
:1009B00032E0ADB7BEB712963C932E9311972CE35D
:1009C00030E0B9010E94BA057B836A83CF01B90187
:1009D0000E94BA059D838C830E949F078DB79EB7A6
:1009E00006960FB6F8949EBF0FBE8DBFDF91CF91D4
:1009F00008951092B200E6EBF0E08081806280837F
:100A0000E0E7F0E0808181608083E1EBF0E08081CD
:100A10008160808380818260808308958FEF8093DE
:100A20000B0180930A01089510920B011092B602F7
:100A300008958FEF80930B018093B602089521E013
:100A400030E002C0220F331F8A95E2F78091B60290
:100A500082238093B60280930B01089521E030E059
:100A600002C0220F331F8A95E2F78091B602822BD3
:100A70008093B60280930B01089580958093B6020F
:100A800080930B010895CF93DF93CDB7DEB7C058A5
:100A9000D0400FB6F894DEBF0FBECDBF1092BA02A1
:100AA0001092B9020E940E050E94F9040E940F02E2
:100AB000789480E0C82E82E0D82E0F920F92EDB786
:100AC000FEB7D282C1820E949F070F900F90409183
:100AD000C8045091C904CE01019660E870E00E94FC
:100AE0006B07009709F441C0CE01019663E072E004
:100AF0000E942E078C01009701F380E090E063E0F4
:100B000072E00E942E077C01C80168E072E00E943A
:100B10003307009721F4C7010E94B400CECFC8016B
:100B20006EE072E00E943307009721F4C7010E9433
:100B30000101C3CFC80163E172E00E94330700974F
:100B400021F4C7010E948904B8CFC80169E172E0AD
:100B50000E943307009721F4C7010E94C804ADCF5B
:100B60008EE192E00E94B807A8CF81E392E00E9454
:100B7000B807FFCF97FB092E07260AD077FD04D0D0
:100B80000CD006D000201AF4709561957F4F08951F
:100B9000F6F7909581959F4F0895AA1BBB1B51E1D5
:100BA00007C0AA1FBB1FA617B70710F0A61BB70BDD
:100BB000881F991F5A95A9F780959095BC01CD0182
:100BC0000895CF93DF93AC018230910510F442E099
:100BD00050E0E091C604F091C70420E030E0A0E0CE
:100BE000B0E024C08081918184179507D0F08417EC
:100BF000950771F482819381109729F013969C9345
:100C00008E9312972CC09093C7048093C60427C07C
:100C10002115310519F08217930718F49C01BD01C5
:100C2000EF0192818381DF01E92FF82F3097D1F610
:100C300021153105F9F0C901841B950B843091050C
:100C400080F48A819B816115710521F0FB019383FA
:100C5000828304C09093C7048093C604FE01329639
:100C600042C0FE01E80FF91F419351930297998307
:100C7000888339C08091C4049091C504009741F4E1
:100C80008091AA029091AB029093C5048093C40412
:100C90002091A8023091A9022115310541F42DB708
:100CA0003EB78091AC029091AD02281B390BE091C8
:100CB000C404F091C504E217F30798F42E1B3F0B10
:100CC0002417350770F0CA0102962817390748F033
:100CD0008E0F9F1F9093C5048093C404419351933A
:100CE00002C0E0E0F0E0CF01DF91CF9108950F93D3
:100CF0001F93CF93DF939C01009709F48CC0DC0114
:100D0000129713961C921E9212976091C6047091CE
:100D1000C7046115710589F48D919C911197820F1B
:100D2000931F2091C4043091C5042817390769F531
:100D3000B093C504A093C4046EC0FB0140E050E032
:100D400001C0FC01EA17FB0730F482819381AF01F7
:100D50000097B9F71FC0E9012297FB83EA83088156
:100D60001981C901800F911F8E179F0759F4808147
:100D70009181800F911F029699838883828193814C
:100D80009B838A834115510529F4B093C704A0932E
:100D9000C60441C0FA01B383A283C191D191EC0F83
:100DA000FD1FAE17BF0781F4F901929182918C0F5C
:100DB0009D1F0296DA0111969C938E9382819381F6
:100DC00013969C938E931297E0E0F0E002C0FB0133
:100DD000BC01DB0112968D919C9113970097B9F796
:100DE000CB0102962D913C911197820F931F209178
:100DF000C4043091C5042817390769F4309729F4E1
:100E00001092C7041092C60402C01382128270931B
:100E1000C5046093C404DF91CF911F910F91089591
:100E2000FC0188279927E89421912032E9F32930A1
:100E300010F02E30C8F32B3241F02D3239F4689483
:100E400004C00E946307820F911D219120532A3014
:100E5000C0F31EF4909581959F4F089547EB52E0A3
:100E60000E943C070895FB01DC018D9101908019DF
:100E70000110D9F3990B0895FA01A191B08100975F
:100E800019F41097E1F0CD01DC01CD010D900020A7
:100E900011F4C00113C0FB012191222319F0201588
:100EA000D9F7F3CFFB012191201519F41E92119669
:100EB00006C02223C1F70D900020A1F7D001FA014E
:100EC000A193B08308957AE0979F902D879F802DFE
:100ED000910D11240895CF92DF92EF92FF920F931C
:100EE0001F93CF93DF938C016A01FA01838180FF06
:100EF0001AC016161706BCF47B01E8010EC0C60125
:100F00000E94030AFFEF8F3F9F0769F089930894BF
:100F1000E108F1088A30910521F021E0E216F104A0
:100F200071F7188202C000E010E0C801DF91CF9194
:100F30001F910F91FF90EF90DF90CF900895CF9386
:100F4000DF93CDB7DEB7FE01369661917191809146
:100F5000CA049091CB04AF010E94E607DF91CF91C4
:100F600008956091CA047091CB040E94430A0895C9
:100F70000F931F93CF93DF938C01E091CA04F091FC
:100F8000CB04838181FF1AC0C0E0D0E005C0199571
:100F9000009711F0CFEFDFEFF80181918F016091A1
:100FA000CA047091CB04DB011896ED91FC9119975E
:100FB000882369F78AE01995009711F0CFEFDFEFEA
:100FC000CE01DF91CF911F910F9108952F923F9203
:100FD0004F925F926F927F928F929F92AF92BF9249
:100FE000CF92DF92EF92FF920F931F93CF93DF93F5
:100FF000CDB7DEB72D970FB6F894DEBF0FBECDBFCD
:101000003C017D876C875A01FC011782168283811F
:1010100081FFC8C12E010894411C511CF30193812A
:10102000EC85FD8593FD859193FF8191FD87EC878C
:10103000882309F4B3C1853241F493FD859193FF70
:101040008191FD87EC87853229F490E0B3010E94FD
:10105000430AE4CFFF24EE2410E01032B0F48B32C8
:1010600069F08C3228F4803251F0833271F40BC075
:101070008D3239F0803349F411602CC01260146055
:1010800029C0186027C0106125C017FD2EC0282F69
:1010900020532A3098F416FF08C08F2D880FF82EA1
:1010A000FF0CFF0CF80EF20E15C08E2D880FE82EE7
:1010B000EE0CEE0CE80EE20E10620CC08E3221F443
:1010C00016FD6CC1106406C08C3611F4106802C0A5
:1010D000883659F4EC85FD8593FD859193FF8191C8
:1010E000FD87EC87882309F0B8CF982F955493306B
:1010F00018F09052933038F424E030E0A20EB31E82
:101100003FE339830FC0833631F0833781F0833575
:1011100009F05AC022C0F5018081898322E030E0C5
:10112000A20EB31E21E0C22ED12C420114C092E0C7
:10113000292E312C2A0C3B1CF5018080918016FF52
:1011400003C06F2D70E002C06FEF7FEFC4010E94FB
:10115000F8096C0151011F7715C082E0282E312C4F
:101160002A0C3B1CF5018080918016FF03C06F2D77
:1011700070E002C06FEF7FEFC4010E94ED096C01C7
:101180001068510113FD1CC006C080E290E0B3015D
:101190000E94430AEA948E2D90E0C816D906A8F35F
:1011A0000FC0F40117FD859117FF81914F0190E069
:1011B000B3010E94430AE110EA940894C108D108DF
:1011C000C114D10471F7E7C0843611F0893651F5A6
:1011D000F50117FF07C080819181A281B38124E0CE
:1011E00030E008C080819181AA2797FDA095BA2F91
:1011F00022E030E0A20EB31E012F0F76B7FF08C029
:10120000B095A095909581959F4FAF4FBF4F0068C7
:10121000BC01CD01A2012AE030E00E946F0AD82E65
:10122000D4183FC0853721F41F7E2AE030E020C06B
:10123000197F8F36A9F0803720F4883509F0AEC0C9
:101240000BC0803721F0883709F0A8C001C01061B9
:1012500014FF09C0146007C014FF08C0166006C060
:1012600028E030E005C020E130E002C020E132E0BB
:10127000F50117FF07C0608171818281938144E08D
:1012800050E006C06081718180E090E042E050E073
:10129000A40EB51EA2010E946F0AD82ED418012FE9
:1012A0000F7706FF09C00E7FDF1430F404FF06C07D
:1012B00002FD04C00F7E02C01D2D01C01F2D802F16
:1012C00090E004FF0CC0FE01ED0DF11D20812033E4
:1012D00011F4097E09C002FF06C01E5F05C08678B2
:1012E0009070009709F01F5F802E992403FD12C0B3
:1012F00000FF0DC0FD2C1E1550F4FE0CF11A1E2D22
:1013000006C080E290E0B3010E94430A1F5F1E15F1
:10131000C0F304C01E1510F4E11A01C0EE2484FECF
:101320000FC080E390E0B3010E94430A82FE1FC019
:1013300081FE03C088E590E010C088E790E00DC012
:10134000C40186789070009791F081FC02C080E221
:1013500001C08BE207FD8DE290E0B3010E94430AD9
:1013600006C080E390E0B3010E94430AFA94DF14C0
:10137000C0F3DA94F201ED0DF11D808190E0B3012C
:101380000E94430ADD20A9F706C080E290E0B30185
:101390000E94430AEA94EE20C1F740CEF301868111
:1013A000978102C08FEF9FEF2D960FB6F894DEBFA6
:1013B0000FBECDBFDF91CF911F910F91FF90EF90A6
:1013C000DF90CF90BF90AF909F908F907F906F9065
:1013D0005F904F903F902F900895FC0105906150D1
:1013E00070400110D8F7809590958E0F9F1F08953B
:1013F000FC016150704001900110D8F780959095E4
:101400008E0F9F1F0895CF93DF93EC012B8120FF58
:1014100035C026FF09C02F7B2B838E819F810196CB
:101420009F838E838A8128C022FF0FC0E881F981C3
:101430008081992787FD9095009719F420622B836E
:101440001DC03196F983E88311C0EA85FB85CE0182
:10145000199597FF0BC02B813FEF8F3F930711F436
:1014600080E101C080E2822B8B8308C02E813F8106
:101470002F5F3F4F3F832E8390E002C08FEF9FEF9F
:10148000DF91CF9108950F931F93CF93DF938C013A
:10149000EB018B8181FF1BC082FF0DC02E813F813C
:1014A0008C819D812817390764F4E881F9810193C3
:1014B000F983E88306C0E885F985802F19950097A0
:1014C00031F48E819F8101969F838E8302C00FEF3E
:1014D0001FEFC801DF91CF911F910F910895FA017D
:1014E000AA27283051F1203181F1E8946F936E7F63
:1014F0006E5F7F4F8F4F9F4FAF4FB1E03ED0B4E054
:101500003CD0670F781F891F9A1FA11D680F791F94
:101510008A1F911DA11D6A0F711D811D911DA11DA5
:1015200020D009F468943F912AE0269F11243019B5
:10153000305D3193DEF6CF010895462F4770405D50
:101540004193B3E00FD0C9F7F6CF462F4F70405DFF
:101550004A3318F0495D31FD4052419302D0A9F75A
:10156000EACFB4E0A6959795879577956795BA9554
:10157000C9F700976105710508959B01AC010A2E1A
:1015800006945795479537952795BA95C9F7620FF1
:0E159000731F841F951FA01D0895F894FFCFB0
:10159E002420000A0D0920007072696D65006C69C7
:1015AE0073740074696D65720074696D6500556EB3
:1015BE006B6E6F776E20636F6D6D616E642E2E2E67
:1015CE00006C6F676F75742C20676F6F6420627983
:1015DE00652021212100256420697320612070720D
:1015EE00696D65206E756D626572202121210A007C
:1015FE00636F756E743D25640A003E200000000086
:10160E0001000000000000E10100000000000200E7
:10161E00000000EE01000000002D2D3E256320008D
:10162E002D2D3E25642825642920003E3E200025D0
:0E163E0064203A2025640A000000CE0420003B
:00000001FF
