:100000000C9472000C9494000C9494000C94940042
:100010000C9494000C9494000C9494000C94940010
:100020000C9494000C9494000C9494000C94940000
:100030000C9494000C9494000C9494000C94B308C9
:100040000C9494000C9494000C9494000C949400E0
:100050000C9494000C9494000C9494000C949400D0
:100060000C94390A0C9455090C9494000C94A8092A
:100070000C9494000C94D7090C9494000C94940064
:100080000C9494000C9494000C9494000C949400A0
:100090000C9494000C9494000C9494000C94940090
:1000A0000C9494000C9494000C9494000C94940080
:1000B0000C9494000C9494000C9494000C94940070
:1000C0000C9494000C9494000C9494000C94940060
:1000D0000C9494000C9494000C9494000C94940050
:1000E0000C94940011241FBECFEFD1E2DEBFCDBF30
:1000F00000E00CBF16E0A0E0B2E0E6EFFDE200E0B9
:100100000BBF02C007900D92A832B107D9F71BBEF2
:1001100018E0A8E2B6E001C01D92AC3EB107E1F7DD
:100120000E941F110C94F9160C940000809880E82E
:1001300080937C000895EAE7F0E080818068808306
:100140008DED90E00197F1F7808188608083808158
:100150008064808308958FEF80930B0180930A0160
:10016000089510920B011092280608958FEF809346
:100170000B0180932806089521E030E002C0220F91
:10018000331F8A95E2F78091280682238093280600
:1001900080930B01089521E030E002C0220F331F4D
:1001A0008A95E2F780912806822B80932806809317
:1001B0000B01089580958093280680930B01089584
:1001C000FC018091290690912A06009739F4F0935A
:1001D0002A06E0932906138212820895938382836C
:1001E000F0932A06E09329060895E0912906F091FC
:1001F0002A06309731F490932A068093290608C086
:10020000F9012281338121153105D1F7938382834E
:10021000FC01138212820895CF93DF93FC01209199
:10022000290630912A062115310531F0408151818E
:10023000D901C0E0D0E00FC090932A068093290630
:10024000138212821DC012968D919C911397ED011D
:10025000009739F0DC018D919C91119784179507D7
:1002600094F3209739F433832283F0932A06E093A2
:10027000290606C08A819B8193838283FB83EA835C
:10028000DF91CF9108950E94471208950F931F9315
:10029000CF93DF938AE090E00E94AE13C0912906CD
:1002A000D0912A0603E012E013C000D00F92EDB700
:1002B000FEB71283018388819981948383830E948E
:1002C0009C130A80DB81C02D0F900F900F900F9030
:1002D000209759F78AE090E00E94AE13DF91CF910A
:1002E0001F910F91089509C0FC0122813381309341
:1002F0002A06209329060E94471280912906909190
:100300002A06009789F7089584E090E00E94B111D1
:100310000895CF93DF93FC0162E070E00E945311D7
:10032000EB0122E030E008C0CF01B9010E94531177
:10033000009741F02F5F3F4FC217D307ACF781E022
:1003400090E002C080E090E0DF91CF910895CF92DD
:10035000DF92EF92FF920F931F93CF93DF9300975B
:1003600021F00E94E0127C0104C090EDE92E97E09C
:10037000F92E00E010E0C2E0D0E08AE0C82E82E072
:10038000D82E16C0CE010E948901009781F00F5F20
:100390001F4F00D00F92EDB7FEB7D282C182D48337
:1003A000C3830E949C130F900F900F900F90219683
:1003B000EC16FD063CF700D00F9284E292E0EDB718
:1003C000FEB792838183148303830E949C130F9052
:1003D0000F900F900F90DF91CF911F910F91FF9091
:1003E000EF90DF90CF900895EF92FF921F93CF93FD
:1003F000DF93CDB7DEB728970FB6F894DEBF0FBEF8
:10040000CDBF009719F0FC01108101C011E62EE26A
:10041000E22E22E0F22E0F920F92EDB7FEB7F2829B
:10042000E1820E949C130F900F904091E60850913A
:10043000E708CE01019668E070E00E944213009741
:10044000A1F00E9484012981FC01208311821836C9
:1004500019F0143739F403C00E94E000DCCF0E9489
:10046000F500D9CF0E940C01D6CF0E9446010E9410
:10047000730128960FB6F894DEBF0FBECDBFDF9193
:10048000CF911F91FF90EF900895CF92DF92EF925E
:10049000FF920F931F93CF93DF93009741F0FC01DE
:1004A0002081222321F00E94E0128C0102C000ED85
:1004B00017E0C2E0D0E0EE24FF2431E3C32E32E0A7
:1004C000D32E17C0CE010E948901009789F00894AD
:1004D000E11CF11C00D00F92EDB7FEB7D282C182B1
:1004E000D483C3830E949C130F900F900F900F90A2
:1004F00021960C171D0734F700D00F9284E292E08A
:10050000EDB7FEB792838183F482E3820E949C134D
:100510000F900F900F900F90DF91CF911F910F913F
:10052000FF90EF90DF90CF90089510923A071092CD
:100530003907109238071092370710923C07109233
:100540003B0710923606109235060895482F2091E9
:100550003B0730913C072F5F3F4FC90160E071E0DE
:100560000E9453119C018091350690913606281700
:10057000390759F030933C0720933B07235C384FF1
:10058000F901408381E090E0089580E090E00895D3
:10059000809135069091360620913B0730913C07BB
:1005A0002817390779F0019660E071E00E94531135
:1005B0009093360680933506835C984FFC018081CA
:1005C00090E0089580E090E00895482F2091390749
:1005D00030913A072F5F3F4FC90160E071E00E9400
:1005E00053119C01809137079091380728173907DC
:1005F00059F030933A0720933907295C394FF901B4
:10060000408381E090E0089580E090E0089580913B
:100610003707909138072091390730913A0728170A
:10062000390779F0019660E071E00E9453119093D0
:10063000380780933707895C994FFC01808190E0EF
:10064000089580E090E008958EBD0895289A089559
:1006500028980895209A219A229A23988DB581602E
:100660008DBD80ED8CBD08950F931F93CF93DF93C5
:10067000CDB7DEB72A970FB6F894DEBF0FBECDBF59
:10068000009741F0DC012C91222321F00E94E0121E
:100690008C0102C000E014E180912B06882331F424
:1006A0000E94B10081E080932B0604C00E94B60036
:1006B00010922B0684E393E09A83898300D000D0C4
:1006C000EDB7FEB73196CE010396ADB7BEB7129621
:1006D0009C938E93119789E492E093838283158390
:1006E00004830E94E313EDB7FEB736960FB6F89475
:1006F000FEBF0FBEEDBFC80160E071E00E94531164
:10070000CE0101960E944C072A960FB6F894DEBFE0
:100710000FBECDBFDF91CF911F910F910895FC01C6
:100720002081222319F40E949B0008950E94E01268
:100730009C01B901882777FD8095982F0E94EA0DCA
:100740002DEC3CEC4CE85AE30E94B80C20E030E081
:100750004AE754E40E94B80C0E94610EDC01CB0110
:10076000845F914000D00F922CE432E0EDB7FEB7E9
:10077000328321836AE070E00E94531174836383A3
:100780000E949C130F900F900F900F90089510925D
:100790003E0810923D081092E0081092DF0808957C
:1007A000CF93DF93482FE92F80913D0890913E0829
:1007B000C091DF08D091E008019620E130E0B90156
:1007C0000E9453118C179D0719F180913D0890915B
:1007D0003E080196B9010E94531190933E08809300
:1007E0003D0880913D0890913E08DC01AA0FBB1F97
:1007F00063E0880F991F6A95E1F7A80FB91FA15C04
:10080000B74FC42FDE2F8AE009900D928150E1F797
:1008100080E090E0DF91CF9108959C0140913D08E8
:1008200050913E088091DF089091E00848175907E1
:1008300031F18091DF089091E008019660E170E06D
:100840000E9453119093E0088093DF088091DF08A5
:100850009091E008FC01EE0FFF1FA3E0880F991FA5
:10086000AA95E1F7E80FF91FD901E15CF74F8AE09B
:1008700001900D928150E1F781E090E0089580E0D1
:1008800090E00895CF93DF93FC012081222331F47F
:1008900081E080932C060E94280311C020912C0631
:1008A000213021F0223009F045C00DC00E94E01235
:1008B00010922D0680932E0682E080932C0680E015
:1008C0000E9424033DC0C0912D06D0912E060E94A7
:1008D000E012C82BD92BB3E0D695C795BA95E1F7AE
:1008E000BE0180E090E00E94B20E20E030E040E8DF
:1008F0005DE30E94B80C0E94CB0ADC01CB0190930F
:100900002E0680932D060E94260300D00F9283E8C6
:1009100092E0EDB7FEB79283818380912D0690918E
:100920002E06948383830E949C130F900F900F9048
:100930000F9006C00E94260384EB92E00E94B5133C
:10094000DF91CF9108955898599A00000000589A65
:1009500000000000599822E02A95F1F700C0519A52
:1009600088E090E020E8589800000000322F3079AD
:1009700011F0599A01C0599832E03A95F1F700C048
:10098000589A42E04A95F1F700C02695019759F729
:100990005198589882E08A95F1F700C0589A92E0F1
:1009A0009A95F1F700C089B181FF0FC05898599806
:1009B00000000000589A00000000599AE2E0EA9511
:1009C000F1F700C083EE92E06FC0519A88E090E0AA
:1009D0005898000000005998F2E0FA95F1F700C02D
:1009E000589A22E02A95F1F700C0019789F75198AB
:1009F000589832E03A95F1F700C0589A42E04A958B
:100A0000F1F700C089B1589881FF0EC059980000D5
:100A10000000589A00000000599A82E08A95F1F788
:100A200000C089E093E040C0599A00000000589A45
:100A300000000000599892E09A95F1F700C0519A91
:100A400088E090E020E8589800000000322F3179CB
:100A500011F0599A01C05998E2E0EA95F1F700C007
:100A6000589AF2E0FA95F1F700C02695019759F7E8
:100A70005198589822E02A95F1F700C0589A32E030
:100A80003A95F1F700C089B181FF11C05898599883
:100A900000000000589A00000000599A42E04A9570
:100AA000F1F700C081E393E00E94B51308955198D7
:100AB00098E080E05898E2E0EA95F1F700C0589A93
:100AC000F2E0FA95F1F700C0880F499981609150E2
:100AD00089F7519A589800000000599822E02A9509
:100AE000F1F700C0589A32E03A95F1F700C0382F7C
:100AF00020E0519898E080E0589842E04A95F1F75C
:100B000000C0589AE2E0EA95F1F700C0880F4999D1
:100B10008160915089F7519A589800000000599AC5
:100B2000F2E0FA95F1F700C0589A42E04A95F1F7E1
:100B300000C090E0822B932B880F892F881F990B80
:100B40005898599800000000589A00000000599ADF
:100B5000E2E0EA95F1F700C000D00F9227E533E01C
:100B6000EDB7FEB73283218396958795948383836F
:100B70000E949C130F900F900F900F90089584EA9D
:100B80008093BC008091BC0087FFFCCF8091B900AE
:100B9000887F883031F084E98093BC008CE893E052
:100BA00077C080E98093BB0084E88093BC0080918B
:100BB000BC0087FFFCCF8091B900887F883131F07D
:100BC00084E98093BC0085EA93E062C01092BB0088
:100BD00084E88093BC008091BC0087FFFCCF8091AB
:100BE000B900887F883231F084E98093BC0086ECBC
:100BF00093E04EC084EA8093BC008091BC0087FFE4
:100C0000FCCF8091B900887F803131F084E98093F6
:100C1000BC0089EE93E03CC081E98093BB0084E88E
:100C20008093BC008091BC0087FFFCCF8091B9000D
:100C3000887F803431F084E98093BC008EEF93E0AC
:100C400027C084EC8093BC008091BC0087FFFCCF60
:100C50004091BB008091B900887F803531F084E9F4
:100C60008093BC008FE194E013C084E88093BC00C3
:100C70008091BC0087FFFCCF8091BB009091B900B0
:100C8000987F983541F084E98093BC0081E494E03A
:100C90000E94B513089594E99093BC0000D00F9280
:100CA00025E634E0EDB7FEB732832183342F20E010
:100CB00090E0822B932B892F990F990B9483838338
:100CC0000E949C130F900F900F900F900895AF9279
:100CD000BF92CF92DF92EF92FF920F931F93CF9329
:100CE000DF93CDB7DEB7CA54D0400FB6F894DEBF5D
:100CF0000FBECDBFCE010B960E947613009709F46C
:100D0000A8C0CE010B966AE974E00E94FE128C0125
:100D100080E090E06AE974E00E94FE127C0180E0CD
:100D200090E06AE974E00E94FE125C0180E090E0CD
:100D30006AE974E00E94FE126C010115110519F4B4
:100D40008FE994E084C0C80167EA74E00E9403134D
:100D5000009739F4C7010E944502C7010E9434037D
:100D600078C0C8016DEA74E00E940313009729F46B
:100D700081EB94E00E94A3046CC0C80162EB74E0B4
:100D80000E940313009729F481EB94E00E948F03E3
:100D900060C0C8016AEB74E00E940313009729F455
:100DA00081EB94E00E94420454C0C8016FEB74E0F0
:100DB0000E940313009729F481EB94E00E94BF0581
:100DC00048C0C80163EC74E00E9403130097E9F582
:100DD000E114F10419F489EC94E039C0C7010E94D0
:100DE000E01260E071E00E9453118B01C50167EAD7
:100DF00074E00E940313009771F485E492E09A83F3
:100E00008983C6010E943403CE010396C114D10424
:100E100079F0B6010FC0C50162EB74E00E940313C4
:100E2000009781F48FE893E09A838983CE0103963B
:100E300061EB74E00E940C13CE010196B8010E9490
:100E40004C0707C081ED94E002C089ED94E00E9458
:100E5000B5130F920F9287E994E0EDB7FEB7928336
:100E600081830E949C130F900F90C65BDF4F0FB6DB
:100E7000F894DEBF0FBECDBFDF91CF911F910F91D0
:100E8000FF90EF90DF90CF90BF90AF9008958EE0ED
:100E900090E00E94B1110895EF92FF920F931F937B
:100EA000CF93DF93F82EE92E8B010E944707EC01C8
:100EB000DC011296EF2DFE2D8AE001900D928150FB
:100EC000E1F719830883E0912F06F09130063097FF
:100ED00029F4D0933006C0932F062FC040E050E095
:100EE00020E030E001C0FD0180819181280F391F91
:100EF0002017310734F4A485B585AF01109799F711
:100F000001C0DF014115510579F48D919C91119734
:100F1000801B910B11969C938E93BD87AC87D093C9
:100F20003006C0932F0624C0109751F4021B130BF8
:100F300019830883FA01D587C4871D861C8618C0CB
:100F40008D919C911197B901681B790B9801261B13
:100F5000370B398328838D919C911197821B930BBA
:100F600011969C938E93FA01D587C487BD87AC8771
:100F7000DF91CF911F910F91FF90EF900895EF9225
:100F8000FF920F931F93CF93DF938AE090E00E942C
:100F9000AE13C0912F06D091300600E010E081EE34
:100FA000E82E84E0F82E20C088819981080F191F4F
:100FB00000D000D0EDB7FEB73196ADB7BEB71296F0
:100FC000FC92EE92119793838283158304830E948F
:100FD0009C130C84DD85C02D8DB79EB706960FB689
:100FE000F8949EBF0FBE8DBF2097F1F68AE090E087
:100FF0000E94AE13DF91CF911F910F91FF90EF9060
:10100000089580912F0690913006009749F0FC01D9
:10101000248535853093300620932F060E94471291
:101020000895CF93DF930DC08C859D8590933006F6
:1010300080932F06CE0102960E94D003CE010E941B
:101040000108C0912F06D0913006209721F08881A9
:101050009981009749F3DF91CF9108950F931F93E2
:10106000CF93DF93CDB7DEB762970FB6F894DEBFAC
:101070000FBECDBF0CEE14E00F920F92EDB7FEB78E
:10108000128301830E949C130F900F904091E608F9
:101090005091E708CE01019668E070E00E9442138B
:1010A000009761F0CE0101960E94E012BC0100970A
:1010B00029F0CE0109960E944C07DECF0E94BF079F
:1010C0000E94010862960FB6F894DEBF0FBECDBF36
:1010D000DF91CF911F910F910895CF93DF9380916E
:1010E000330690913406E0913306F091340600D037
:1010F00000D0CDB7DEB7219620EF34E0ADB7BEB754
:1011000012963C932E9311972CE330E0B9010E9484
:1011100053117B836A83CF01B9010E9453119D83D0
:101120008C830E949C138DB79EB706960FB6F894D9
:101130009EBF0FBE8DBFDF91CF9108951092B20078
:10114000E6EBF0E0808180628083E0E7F0E0808180
:1011500081608083E1EBF0E0808181608083808129
:101160008260808308951F920F920FB60F920BB684
:101170000F9211242F933F934F935F936F937F931D
:101180008F939F93AF93BF93EF93FF93E0912F06BD
:10119000F0913006309749F08081918101979183D9
:1011A0008083009711F40E941108FF91EF91BF9185
:1011B000AF919F918F917F916F915F914F913F91EF
:1011C0002F910F900BBE0F900FBE0F901F90189590
:1011D000F8940E94C80278948823D1F3843011F0E7
:1011E00090E008958FEF9FEF0895CF93C82F8A3036
:1011F00019F48DE00E94F508F8948091E1088823A5
:1012000059F4C093C60081E08093E1080AC0789445
:1012100086EF8A95F1F7F8948C2F0E94E5020097EB
:10122000B1F3789481E090E0CF9108958DEF94E050
:101230009093E7088093E6088BE095E09093E908A7
:101240008093E8081092E1080E9495021092C50070
:1012500087E08093C400E0ECF0E0808182608083CE
:10126000E1ECF0E08081886080838081806480830D
:101270008081806180838081806880830895CF939E
:10128000C82F8A3019F48DE00E943F098091E1084F
:10129000882331F4C093C60081E08093E10803C045
:1012A0008C2F0E94E502CF9108951F920F920FB6E6
:1012B0000F920BB60F9211241F932F933F934F93CE
:1012C0005F936F937F938F939F93AF93BF93EF93AE
:1012D000FF93CF93DF93CDB7DEB72A97DEBFCDBFA5
:1012E0001091C600143031F01D3009F41AE0812F3E
:1012F0000E943F09812F0E94A602143011F01A307B
:1013000071F487E696E09A838983CE01039669EFAC
:1013100074E00E940C13CE0101960E94D0032A961D
:10132000DEBFCDBFDF91CF91FF91EF91BF91AF9124
:101330009F918F917F916F915F914F913F912F91ED
:101340001F910F900BBE0F900FBE0F901F9018951E
:101350001F920F920FB60F920BB60F9211242F937C
:101360003F934F935F936F937F938F939F93AF932D
:10137000BF93EF93FF930E940703882319F4109201
:10138000E10802C08093C600FF91EF91BF91AF9139
:101390009F918F917F916F915F914F913F912F918D
:1013A0000F900BBE0F900FBE0F901F9018951F92BD
:1013B0000F920FB60F920BB60F9211242F933F93FB
:1013C0004F935F936F937F938F939F93AF93BF934D
:1013D000EF93FF93CF93DF93CDB7DEB72A97DEBFAE
:1013E000CDBF8091780090917900EAE7F0E020810C
:1013F0002F7720832FE833E03A83298300D000D071
:10140000EDB7FEB731969E012D5F3F4FADB7BEB72A
:1014100012963C932E9311972AEF34E03383228364
:101420009370958384830E94E3138DB79EB70696CD
:101430000FB6F8949EBF0FBE8DBFCE0101960E94DD
:10144000D0032A96DEBFCDBFDF91CF91FF91EF9100
:10145000BF91AF919F918F917F916F915F914F91CC
:101460003F912F910F900BBE0F900FBE0F901F90CA
:1014700018951F920F920FB60F920BB60F92112470
:101480002F933F934F935F936F937F938F939F938C
:10149000AF93BF93EF93FF93CF93DF93CDB7DEB7B7
:1014A0002A97DEBFCDBF2EB582E494E09A8389836C
:1014B00000D000D0EDB7FEB73196CE010396ADB7A0
:1014C000BEB712969C938E9311978AEF94E0938304
:1014D0008283248315820E94E3138DB79EB70696FC
:1014E0000FB6F8949EBF0FBE8DBFCE0101960E942D
:1014F000D0032A96DEBFCDBFDF91CF91FF91EF9150
:10150000BF91AF919F918F917F916F915F914F911B
:101510003F912F910F900BBE0F900FBE0F901F9019
:101520001895519A599A509A589AA1E0B1E08C9125
:1015300082608C93E2E0F1E080818D7F80838C91EA
:1015400088608C938081877F80838C9180628C936C
:1015500080818F7D808308955098589A5198599A28
:101560001092B9001092B800A1E0B1E08C918260B5
:101570008C93E2E0F1E080818D7F80838C918860A4
:101580008C938081877F80838C9180628C93808113
:101590008F7D80830895CF92DF92EF92FF920F9319
:1015A0001F936B017C0120E030E040E05FE40E948B
:1015B000B90D87FD11C0C701B60120E030E040E061
:1015C0005FE40E94800C0E94610E8B019C01005020
:1015D00010402040304806C0C701B6010E94610E8D
:1015E0008B019C01B801C9011F910F91FF90EF90F1
:1015F000DF90CF900895A0E0B0E0E1E0FBE00C9434
:101600007C11EC014B01FA018881823008F43EC163
:10161000DB019C91923008F436C1843059F4943047
:1016200009F034C1998111968C911197981709F09E
:1016300027C12CC1943009F426C19230A9F482301C
:1016400009F024C1CE0128E0DC010D90CD01DA01C2
:101650000D92AD012150C1F7D40111968C911197D3
:1016600099818923818311C1823009F40CC1AA8038
:10167000BB80DB0112964D915C911397CC80DD808D
:10168000EE80FF8014960D911D912D913C9117973E
:10169000C501841B950BDC0197FF04C0AA27BB275B
:1016A000A81BB90BA032B1050CF067C018161906BB
:1016B00084F5280139010A2E04C076946794579462
:1016C00047940A94D2F741E050E060E070E004C033
:1016D000440F551F661F771FAA95D2F741505040FF
:1016E00060407040402351236223732381E090E0E7
:1016F000A0E0B0E0411551056105710519F480E0E5
:1017000090E0DC018C019D01042915292629372947
:101710003FC00097E9F1AA0EBB1E260137010A2E31
:1017200004C076946794579447940A94D2F741E0A2
:1017300050E060E070E004C0440F551F661F771F43
:10174000AA95D2F741505040604070404C215D2135
:101750006E217F2181E090E0A0E0B0E041155105CD
:101760006105710519F480E090E0DC016C017D01F8
:10177000C428D528E628F7280BC04A155B0524F4B1
:1017800000E010E0980104C05A01CC24DD24760169
:101790008981D40111969C911197891709F445C04C
:1017A000882329F00C191D092E093F0908C0D7010B
:1017B000C601801B910BA20BB30B8C019D0137FD61
:1017C00004C01182B382A2820BC081E08183B38204
:1017D000A28230952095109501951F4F2F4F3F4FB6
:1017E00004831583268337830DC0880F991FAA1F92
:1017F000BB1F84839583A683B783828193810197DE
:101800009383828384819581A681B781AC01BD01D8
:1018100041505040604070404F3F2FEF52072FEF34
:1018200062072FE3720708F30BC08183B382A282A1
:101830000C0D1D1D2E1D3F1D04831583268337832C
:1018400083E08083448155816681778177FF1DC065
:10185000DB01CA0181709070A070B07076956795B9
:1018600057954795842B952BA62BB72B848395836F
:10187000A683B7838281938101969383828305C077
:10188000C9E1D5E003C0E40101C0EF01CE01CDB74D
:10189000DEB7E0E10C949811A0E2B0E0E2E5FCE0F4
:1018A0000C948A11DC01CB018D839E83AF83B887B2
:1018B00029833A834B835C83CE010596BE01675E24
:1018C0007F4F0E945910CE010196BE016F5E7F4F7F
:1018D0000E945910CE014996BE016F5E7F4FAE0146
:1018E000475F5F4F0E94FB0A0E94820F462F572FCF
:1018F000682F792FCB01BA01A096E2E00C94A611D3
:10190000A0E2B0E0E6E8FCE00C948A11DC01CB0137
:101910008D839E83AF83B88729833A834B835C830F
:10192000CE010596BE01675E7F4F0E945910CE0121
:101930000196BE016F5E7F4F0E9459108A8991E027
:1019400089278A8BCE014996BE016F5E7F4FAE011B
:10195000475F5F4F0E94FB0A0E94820F462F572F5E
:10196000682F792FCB01BA01A096E2E00C94A61162
:10197000A0E2B0E0EEEBFCE00C947C11DC01CB01CA
:101980008D839E83AF83B88729833A834B835C839F
:10199000CE010596BE01675E7F4F0E945910CE01B1
:1019A0000196BE016F5E7F4F0E945910998D923053
:1019B00078F089898230C0F0943019F4823041F493
:1019C000CAC0843019F4923079F4C5C0923051F411
:1019D00081E02A8D9A89291709F480E08A8FCE0147
:1019E0004996BBC0823051F481E02A8D9A8929172B
:1019F00009F480E08A8BCE014196AFC04D8C5E8C9D
:101A00006F8C78A00D891E892F89388DE0E2F0E077
:101A100040E050E0BA01882499245401CC24DD240C
:101A20007601C201817090700097D1F0C00ED11E76
:101A3000E21EF31EDB01CA01880D991DAA1DBB1D04
:101A400041E050E060E070E0C016D106E206F30627
:101A500018F040E050E0BA01480F591F6A1F7B1F81
:101A6000880C991CAA1CBB1C37FF08C081E090E0C1
:101A7000A0E0B0E0882A992AAA2ABB2A000F111FE9
:101A8000221F331F7694679457944794319749F6F1
:101A90008B8D9C8D2B893C89820F931F02969C878E
:101AA0008B8781E02A8D9A89291709F480E08A873B
:101AB0002B853C8517C0CA0181709070009761F03A
:101AC000F694E794D794C79480E090E0A0E0B0E863
:101AD000C82AD92AEA2AFB2A769567955795479509
:101AE0002F5F3F4F77FDE7CFC9010BC0440F551F54
:101AF000661F771FF7FC4160CC0CDD1CEE1CFF1C41
:101B000001974030A0E05A07A0E06A07A0E47A07F6
:101B100068F38B879C87DB01CA018F779070A07078
:101B2000B07080349105A105B10561F447FD0AC08C
:101B3000C114D104E104F10429F0405C5F4F6F4F00
:101B40007F4F40784D875E876F87788B83E08987EA
:101B5000CE01099602C089E195E00E94820F462FCE
:101B6000572F682F792FCB01BA01A096E0E10C9492
:101B70009811A8E1B0E0EFEBFDE00C948A11DC01D4
:101B8000CB018D839E83AF83B88729833A834B83B0
:101B90005C83CE010596BE016F5E7F4F0E94591097
:101BA000CE010196BE01675F7F4F0E94591089895F
:101BB000823058F08985823040F0CE014196BE01D6
:101BC000675F7F4F0E94C21001C08FEF6896E2E00E
:101BD0000C94A611CF92DF92EF92FF92CF93DF93F6
:101BE000CDB7DEB728970FB6F894DEBF0FBECDBFD6
:101BF0006B017C0183E08983D701C6018827B7FD8B
:101C000083959927AA27BB27282F8A83C114D1043B
:101C1000E104F10419F482E0898335C08EE190E09B
:101C20009C838B83222389F080E0C81680E0D8064D
:101C300080E0E80680E8F80659F1F094E094D0944A
:101C4000C094C11CD11CE11CF11CCD82DE82EF824C
:101C5000F886C701B6010E942F0F019718161906C2
:101C600094F4082E04C0CC0CDD1CEE1CFF1C0A945E
:101C7000D2F7CD82DE82EF82F8862EE130E0281B9B
:101C8000390B3C832B83CE0101960E94820F04C046
:101C900060E070E080E09FEC382F292F862F972F8F
:101CA000A32FB22FBC01CD0128960FB6F894DEBF4A
:101CB0000FBECDBFDF91CF91FF90EF90DF90CF901F
:101CC0000895ACE0B0E0E7E6FEE00C948811DC019A
:101CD000CB0189839A83AB83BC83CE010196BE017D
:101CE0006B5F7F4F0E9459108D81823069F1823085
:101CF00058F1843039F02F81388537FD25C02F31D8
:101D0000310544F08E81882319F100E010E020E0D5
:101D100030E822C08EE190E0821B930B09851A8582
:101D20002B853C8504C036952795179507958A9590
:101D3000D2F78E81882381F03095209510950195FA
:101D40001F4F2F4F3F4F08C000E010E0980104C024
:101D50000FEF1FEF2FEF3FE7B801C9012C96E4E02A
:101D60000C94A411A8E0B0E0E8EBFEE00C94841120
:101D70006B017C011A82611571058105910519F4C9
:101D800082E089835EC083E089830EE110E01C83DA
:101D90000B83CD82DE82EF82F886C701B6010E94F6
:101DA0002F0F9C012150304037FF38C0EE27FF270E
:101DB000E21BF30B81E090E0A0E0B0E00E2E04C047
:101DC000880F991FAA1FBB1F0A94D2F70197A10978
:101DD000B1098C219D21AE21BF2141E050E060E09E
:101DE00070E00097A105B10519F440E050E0BA0198
:101DF00004C0F694E794D794C794EA95D2F7C42A1E
:101E0000D52AE62AF72ACD82DE82EF82F8868EE195
:101E100090E0821B930B9C838B8313C021153105AB
:101E200081F0022E04C0CC0CDD1CEE1CFF1C0A94B9
:101E3000D2F7CD82DE82EF82F886021B130B1C8361
:101E40000B83CE0101960E94820F462F572F682FD9
:101E5000792FCB01BA012896E8E00C94A011CF921B
:101E6000DF92EF92FF920F931F938B019C01003042
:101E700080E0180781E0280780E0380750F40F3F22
:101E800011052105310509F088F480E090E0DC01BE
:101E900016C00030E0E01E07E0E02E07E1E03E075C
:101EA00050F480E190E0A0E0B0E009C088E090E06C
:101EB000A0E0B0E004C088E190E0A0E0B0E040E243
:101EC00050E060E070E0481B590B6A0B7B0B680127
:101ED000790104C0F694E794D794C7948A95D2F711
:101EE000D701C6018F5D9A4FFC018081481B5109C3
:101EF00061097109CA011F910F91FF90EF90DF9066
:101F0000CF900895CF92DF92EF92FF920F931F939D
:101F1000DC0114964D915D916D917C91179711960E
:101F2000EC9111978C91823020F460618FEF90E0FA
:101F3000A5C0843009F49DC0823009F494C04115D5
:101F400051056105710509F491C012968D919C911E
:101F500013972FEF823892070CF059C022E83FEF19
:101F6000281B390B2A31310564F56A017B01022EE9
:101F700004C0F694E794D794C7940A94D2F781E00A
:101F800090E0A0E0B0E004C0880F991FAA1FBB1F1B
:101F90002A95D2F70197A109B10984239523A62395
:101FA000B72341E050E060E070E00097A105B10583
:101FB00019F440E050E0BA014C295D296E297F29CF
:101FC00003C040E050E0BA01DB01CA018F77907096
:101FD000A070B07080349105A105B10539F447FFB8
:101FE00009C0405C5F4F6F4F7F4F04C0415C5F4F43
:101FF0006F4F7F4F81E090E0403020E0520720E0BB
:10200000620720E4720738F580E090E024C0803851
:1020100091057CF58A019B010F771070207030705C
:10202000003411052105310539F447FF09C0405C32
:102030005F4F6F4F7F4F04C0415C5F4F6F4F7F4FCB
:1020400077FD03C081589F4F06C0769567955795D9
:10205000479580589F4F97E0769567955795479598
:102060009A95D1F70BC080E090E005C080E090E049
:1020700005C08FEF90E040E050E0BA01982F9795AF
:1020800099279795A62FAF77E795EE27E795869541
:102090003A2F392B282F2E2B842F952FA32FB22F99
:1020A000BC01CD011F910F91FF90EF90DF90CF9079
:1020B0000895DC01FB014C9111965C9111971296E9
:1020C0008C911297682F6F7770E0982F991F99273E
:1020D000991F13962C911397822F880F892B90E0CC
:1020E000221F2227221F2183009739F54115510510
:1020F0006105710511F482E029C082E89FEF9383A6
:10210000828327E0440F551F661F771F2A95D1F75A
:1021100083E0808309C0440F551F661F771F8281AB
:102120009381019793838283403080E0580780E059
:10213000680780E4780778F320C08F3F910579F431
:10214000411551056105710519F484E080830895F6
:1021500064FF03C081E0808310C010820EC08F57DF
:1021600090409383828383E0808387E0440F551FF0
:10217000661F771F8A95D1F7706444835583668301
:1021800077830895CF93FC01DB019081923008F4AE
:102190004CC08C91823008F448C0943069F421819D
:1021A000843039F411968C91119790E0821B91093B
:1021B00044C02223D1F13FC0843021F0923041F459
:1021C0008230B1F111968C9111978823A1F12DC025
:1021D000C181823001F111968C911197C817D9F401
:1021E0008281938112962D913C911397281739077C
:1021F00094F082179307BCF0448155816681778102
:1022000014968D919D910D90BC91A02D84179507EA
:10221000A607B70718F4CC2341F00DC0481759079B
:102220006A077B0728F4CC2331F081E090E005C0F9
:1022300080E090E002C08FEF9FEFCF910895CF93A1
:10224000DF93CDB7DEB72A970FB6F894DEBF0FBE87
:10225000CDBF0E9416090E94C7030E949E080E94DB
:1022600096000E942A030E94AB000E94910A0E94DD
:10227000AC0A0F920F9280E092E0EDB7FEB7928326
:1022800081830E949C130F900F90F894CE010196C9
:102290000E940D0478940097C1F3E981FA81CE0180
:1022A00003961995F2CF97FB092E07260AD077FDE2
:1022B00004D00CD006D000201AF4709561957F4FA1
:1022C0000895F6F7909581959F4F0895AA1BBB1B23
:1022D00051E107C0AA1FBB1FA617B70710F0A61B26
:1022E000B70B881F991F5A95A9F780959095BC0147
:1022F000CD0108952F923F924F925F926F927F92FD
:102300008F929F92AF92BF92CF92DF92EF92FF9205
:102310000F931F93CF93DF93CDB7DEB7CA1BDB0BB1
:102320000FB6F894DEBF0FBECDBF19942A88398846
:1023300048885F846E847D848C849B84AA84B9845D
:10234000C884DF80EE80FD800C811B81AA81B98169
:10235000CE0FD11D0FB6F894DEBF0FBECDBFED017D
:102360000895CF93DF93AC018230910510F442E0E1
:1023700050E0E091E408F091E50820E030E0A0E0D2
:10238000B0E024C08081918184179507D0F0841734
:10239000950771F482819381109729F013969C938D
:1023A0008E9312972CC09093E5088093E40827C081
:1023B0002115310519F08217930718F49C01BD010E
:1023C000EF0192818381DF01E92FF82F3097D1F659
:1023D00021153105F9F0C901841B950B8430910555
:1023E00080F48A819B816115710521F0FB01938343
:1023F000828304C09093E5088093E408FE0132963E
:1024000042C0FE01E80FF91F41935193029799834F
:10241000888339C08091E2089091E308009741F4E5
:1024200080912306909124069093E3088093E2081C
:1024300020912106309122062115310541F42DB756
:102440003EB78091250690912606281B390BE09116
:10245000E208F091E308E217F30798F42E1B3F0B14
:102460002417350770F0CA0102962817390748F07B
:102470008E0F9F1F9093E3088093E208419351933E
:1024800002C0E0E0F0E0CF01DF91CF9108950F931B
:102490001F93CF93DF939C01009709F48CC0DC015C
:1024A000129713961C921E9212976091E4087091F5
:1024B000E5086115710589F48D919C911197820F42
:1024C000931F2091E2083091E3082817390769F536
:1024D000B093E308A093E2086EC0FB0140E050E037
:1024E00001C0FC01EA17FB0730F482819381AF0140
:1024F0000097B9F71FC0E9012297FB83EA8308819F
:102500001981C901800F911F8E179F0759F480818F
:102510009181800F911F0296998388838281938194
:102520009B838A834115510529F4B093E508A09354
:10253000E40841C0FA01B383A283C191D191EC0FA9
:10254000FD1FAE17BF0781F4F901929182918C0FA4
:102550009D1F0296DA0111969C938E93828193813E
:1025600013969C938E931297E0E0F0E002C0FB017B
:10257000BC01DB0112968D919C9113970097B9F7DE
:10258000CB0102962D913C911197820F931F2091C0
:10259000E2083091E3082817390769F4309729F4E5
:1025A0001092E5081092E40802C013821282709320
:1025B000E3086093E208DF91CF911F910F91089596
:1025C000FC0188279927E89421912032E9F32930EA
:1025D00010F02E30C8F32B3241F02D3239F46894CC
:1025E00004C00E943A13820F911D219120532A307A
:1025F000C0F31EF4909581959F4F089541E356E0F6
:102600000E9413130895FB01DC018D910190801944
:102610000110D9F3990B0895FB01DC0101900D9293
:102620000020E1F70895FA01A191B081009719F413
:102630001097E1F0CD01DC01CD010D90002011F4E7
:10264000C00113C0FB012191222319F02015D9F7F5
:10265000F3CFFB012191201519F41E92119606C0AB
:102660002223C1F70D900020A1F7D001FA01A19318
:10267000B08308957AE0979F902D879F802D910DCC
:1026800011240895CF92DF92EF92FF920F931F9340
:10269000CF93DF938C016A01FA01838180FF1AC016
:1026A00016161706BCF47B01E8010EC0C6010E9495
:1026B0002F16FFEF8F3F9F0769F089930894E10879
:1026C000F1088A30910521F021E0E216F10471F75A
:1026D000188202C000E010E0C801DF91CF911F9185
:1026E0000F91FF90EF90DF90CF9008950F931F937D
:1026F000CF93DF938C01E091E608F091E7088381A6
:1027000080FF12C0E8018091E6089091E7080E94DE
:102710002F162FEF8F3F920739F089938A3091055A
:1027200091F72197188202C000E010E0C801DF9104
:10273000CF911F910F910895CF93DF93CDB7DEB75F
:10274000FE013696619171918091E8089091E908B7
:10275000AF010E941214DF91CF9108956091E808B3
:102760007091E9080E946F1608950F931F93CF93FD
:10277000DF938C01E091E808F091E908838181FF03
:102780001AC0C0E0D0E005C01995009711F0CFEF56
:10279000DFEFF80181918F016091E8087091E908FD
:1027A000DB011896ED91FC911997882369F78AE06F
:1027B0001995009711F0CFEFDFEFCE01DF91CF91A8
:1027C0001F910F9108950F931F93CF93DF93CDB770
:1027D000DEB72E970FB6F894DEBF0FBECDBF0E89C1
:1027E0001F8986E08C831A8309838FEF9FE79E837E
:1027F0008D83AE01465E5F4FCE010196688D798D67
:102800000E941214EF81F885E00FF11F10822E96BE
:102810000FB6F894DEBF0FBECDBFDF91CF911F91F1
:102820000F9108952F923F924F925F926F927F92F5
:102830008F929F92AF92BF92CF92DF92EF92FF92D0
:102840000F931F93CF93DF93CDB7DEB72D970FB6BE
:10285000F894DEBF0FBECDBF3C017D876C875A0167
:10286000FC0117821682838181FFC8C12E01089462
:10287000411C511CF3019381EC85FD8593FD8591ED
:1028800093FF8191FD87EC87882309F4B3C18532DA
:1028900041F493FD859193FF8191FD87EC8785320B
:1028A00029F490E0B3010E946F16E4CFFF24EE24D8
:1028B00010E01032B0F48B3269F08C3228F48032A0
:1028C00051F0833271F40BC08D3239F0803349F40A
:1028D00011602CC01260146029C0186027C01061FC
:1028E00025C017FD2EC0282F20532A3098F416FF3C
:1028F00008C08F2D880FF82EFF0CFF0CF80EF20E7B
:1029000015C08E2D880FE82EEE0CEE0CE80EE20EB0
:1029100010620CC08E3221F416FD6CC1106406C02A
:102920008C3611F4106802C0883659F4EC85FD85A8
:1029300093FD859193FF8191FD87EC87882309F0B2
:10294000B8CF982F9554933018F09052933038F4B4
:1029500024E030E0A20EB31E3FE339830FC083367C
:1029600031F0833781F0833509F05AC022C0F50178
:102970008081898322E030E0A20EB31E21E0C22EC6
:10298000D12C420114C092E0292E312C2A0C3B1C80
:10299000F5018080918016FF03C06F2D70E002C0AA
:1029A0006FEF7FEFC4010E9424166C0151011F7765
:1029B00015C082E0282E312C2A0C3B1CF5018080AA
:1029C000918016FF03C06F2D70E002C06FEF7FEFA4
:1029D000C4010E9419166C011068510113FD1CC03E
:1029E00006C080E290E0B3010E946F16EA948E2D3B
:1029F00090E0C816D906A8F30FC0F40117FD859121
:102A000017FF81914F0190E0B3010E946F16E11012
:102A1000EA940894C108D108C114D10471F7E7C041
:102A2000843611F0893651F5F50117FF07C0808112
:102A30009181A281B38124E030E008C0808191813E
:102A4000AA2797FDA095BA2F22E030E0A20EB31E70
:102A5000012F0F76B7FF08C0B095A095909581958E
:102A60009F4FAF4FBF4F0068BC01CD01A2012AE0CC
:102A700030E00E949B16D82ED4183FC0853721F431
:102A80001F7E2AE030E020C0197F8F36A9F0803702
:102A900020F4883509F0AEC00BC0803721F08837AC
:102AA00009F0A8C001C0106114FF09C0146007C07C
:102AB00014FF08C0166006C028E030E005C020E121
:102AC00030E002C020E132E0F50117FF07C060816D
:102AD00071818281938144E050E006C06081718100
:102AE00080E090E042E050E0A40EB51EA2010E94FA
:102AF0009B16D82ED418012F0F7706FF09C00E7F22
:102B0000DF1430F404FF06C002FD04C00F7E02C0D3
:102B10001D2D01C01F2D802F90E004FF0CC0FE0171
:102B2000ED0DF11D2081203311F4097E09C002FF53
:102B300006C01E5F05C086789070009709F01F5F81
:102B4000802E992403FD12C000FF0DC0FD2C1E1520
:102B500050F4FE0CF11A1E2D06C080E290E0B30185
:102B60000E946F161F5F1E15C0F304C01E1510F4DF
:102B7000E11A01C0EE2484FE0FC080E390E0B301AF
:102B80000E946F1682FE1FC081FE03C088E590E0A0
:102B900010C088E790E00DC0C4018678907000975F
:102BA00091F081FC02C080E201C08BE207FD8DE262
:102BB00090E0B3010E946F1606C080E390E0B3017D
:102BC0000E946F16FA94DF14C0F3DA94F201ED0D4F
:102BD000F11D808190E0B3010E946F16DD20A9F7FE
:102BE00006C080E290E0B3010E946F16EA94EE20E6
:102BF000C1F740CEF3018681978102C08FEF9FEF2E
:102C00002D960FB6F894DEBF0FBECDBFDF91CF91EA
:102C10001F910F91FF90EF90DF90CF90BF90AF90FA
:102C20009F908F907F906F905F904F903F902F90EC
:102C30000895FC010590615070400110D8F780950F
:102C400090958E0F9F1F0895FC0161507040019078
:102C50000110D8F7809590958E0F9F1F0895CF9300
:102C6000DF93EC012B8120FF35C026FF09C02F7BAD
:102C70002B838E819F8101969F838E838A8128C0BA
:102C800022FF0FC0E881F9818081992787FD909507
:102C9000009719F420622B831DC03196F983E883D5
:102CA00011C0EA85FB85CE01199597FF0BC02B81DA
:102CB0003FEF8F3F930711F480E101C080E2822B48
:102CC0008B8308C02E813F812F5F3F4F3F832E8330
:102CD00090E002C08FEF9FEFDF91CF9108950F93A7
:102CE0001F93CF93DF938C01EB018B8181FF1BC07E
:102CF00082FF0DC02E813F818C819D81281739076D
:102D000064F4E881F9810193F983E88306C0E885DA
:102D1000F985802F1995009731F48E819F81019656
:102D20009F838E8302C00FEF1FEFC801DF91CF9109
:102D30001F910F910895FA01AA27283051F12031EF
:102D400081F1E8946F936E7F6E5F7F4F8F4F9F4F3F
:102D5000AF4FB1E03ED0B4E03CD0670F781F891F81
:102D60009A1FA11D680F791F8A1F911DA11D6A0F4F
:102D7000711D811D911DA11D20D009F468943F9102
:102D80002AE0269F11243019305D3193DEF6CF0101
:102D90000895462F4770405D4193B3E00FD0C9F7C7
:102DA000F6CF462F4F70405D4A3318F0495D31FD34
:102DB0004052419302D0A9F7EACFB4E0A695979587
:102DC000879577956795BA95C9F70097610571055D
:102DD00008959B01AC010A2E0694579547953795A7
:102DE0002795BA95C9F7620F731F841F951FA01D01
:062DF0000895F894FFCFE6
:102DF6002420002D2D3E25632000256420697320A4
:102E060061207072696D65206E756D626572202134
:102E160021210A00636F756E743D25640A003E2009
:102E2600002564206973207072696D65206E756D6A
:102E3600626572202121210A002564007461736B8A
:102E46005F746331303437612829203A2063757204
:102E560072656E742074656D7065726174757265E5
:102E6600202D3E202564206465677265652E200A44
:102E76002420007461736B5F746337372829203A06
:102E86002063757272656E745F74656D70657261CC
:102E960074757265202D3E20256420646567726511
:102EA600652E0A007461736B5F74633737282920B7
:102EB6003A20756E65787065636574642073746115
:102EC600746520696E207461736B5F746337372E87
:102ED6002E2E007461736B5F74636E37355F6932D3
:102EE600632829203A20534C412B57207772697466
:102EF60065206661696CA1A6007461736B5F74637B
:102F06006E37355F6932632829203A20706F696E03
:102F1600746572207772697465206661696CA1A612
:102F2600007461736B5F74636E37355F6932632853
:102F360029203A20534C412B522077726974652020
:102F46006661696CA1A6007461736B5F74636E370A
:102F5600355F6932632829203A2063757272656E7F
:102F6600745F74656D7065726174757265203F205B
:102F76002564206465677265652E0A007461736B4B
:102F86005F746337353A20537461727420657272C8
:102F96006F72A1A6007461736B5F7463373528295D
:102FA600203A20534C412B5720777269746520666E
:102FB60061696CA1A6007461736B5F746337352811
:102FC60029203A20706F696E746572207772697471
:102FD60065206661696CA1A6005265706561742002
:102FE6005374617274206572726F72A1A600746167
:102FF600736B5F746337352829203A20534C412B75
:1030060052207772697465206661696CA1A60074A6
:1030160061736B5F746337352829203A20726561C6
:10302600642068695F62797465206661696CA1A62F
:10303600007461736B5F7463373528295F31203AFA
:103046002072656164206C6F5F62797465206661C9
:10305600696CA1A6007461736B5F746337352829A8
:103066005F31203A2063757272656E745F74656DA8
:103076007065726174757265203F202564206465F1
:10308600677265652E0A0024200020090A0D0021BA
:1030960021212D313131007072696D65006932630D
:1030A600000074633130343761007463373700745D
:1030B60077690074696D6572002121212D323232E3
:1030C600002121212D333333002121212D343434A5
:1030D600002D2D3E25642825642920003E3E200033
:1030E6002564203A2025640A0000256400000000BB
:1030F60001000000000000E80800000000000200D7
:10310600000000F5080000000000000000000000BC
:10311600000001020203030303040404040404047C
:10312600040505050505050505050505050505054A
:10313600050606060606060606060606060606062A
:103146000606060606060606060606060606060619
:1031560006070707070707070707070707070707FA
:1031660007070707070707070707070707070707E9
:1031760007070707070707070707070707070707D9
:1031860007070707070707070707070707070707C9
:1031960007080808080808080808080808080808AA
:1031A6000808080808080808080808080808080899
:1031B6000808080808080808080808080808080889
:1031C6000808080808080808080808080808080879
:1031D6000808080808080808080808080808080869
:1031E6000808080808080808080808080808080859
:1031F6000808080808080808080808080808080849
:103206000808080808080808080808080808080838
:08321600080000EC0820000094
:00000001FF
