:100000000C9472000C9494000C9494000C94940042
:100010000C9494000C9494000C9494000C94940010
:100020000C9494000C9494000C9494000C94940000
:100030000C9494000C9494000C9494000C949400F0
:100040000C9494000C9494000C9494000C949400E0
:100050000C9494000C9494000C9494000C949400D0
:100060000C9494000C9494000C9494000C949400C0
:100070000C9494000C9494000C9494000C949400B0
:100080000C9494000C9494000C9494000C949400A0
:100090000C9494000C9494000C9494000C94940090
:1000A0000C9494000C9494000C9494000C94940080
:1000B0000C9494000C9494000C9494000C94940070
:1000C0000C9494000C9494000C9494000C94940060
:1000D0000C9494000C9494000C9494000C94940050
:1000E0000C94940011241FBECFEFD1E2DEBFCDBF30
:1000F00000E00CBF12E0A0E0B2E0E6EDF1E000E0CD
:100100000BBF02C007900D92A030B107D9F71BBEFC
:1001100012E0A0E0B2E001C01D92A130B107E1F70A
:100120000E94CB000C94E9000C9400008FEF8093A8
:100130000B0180930A01089510920B0110920002A6
:1001400008958FEF80930B0180930002089521E0C2
:1001500030E002C0220F331F8A95E2F7809100023F
:1001600082238093000280930B01089521E030E008
:1001700002C0220F331F8A95E2F780910002822B82
:100180008093000280930B01089580958093000274
:1001900080930B0108950E949600C0E0D0E08C2F60
:1001A00087700E94B6008FED93E9A4E081509040E3
:1001B000A040E1F700C000000E949C008FED93E991
:1001C000A4E081509040A040E1F700C000002196DB
:0601D000E6CFF894FFCF1A
:00000001FF
